:020000040800F2
:10000000000002205D030008590300083D2100089C
:1000100059030008590300085903000800000000B4
:10002000000000000000000000000000590300086C
:10003000590300080000000059030008C12000080F
:100040005903000859030008590300085903000820
:100050005903000859030008590300085903000810
:10006000590300085903000859030008691E0008D5
:10007000751E000859030008811E00088D1E000827
:100080004DB70008F9120008590300085903000889
:1000900059030008590300085903000859030008D0
:1000A00059030008590300085903000859030008C0
:1000B0007DAB000889AB000895AB00082913000848
:1000C00059030008351300085903000835A4000837
:1000D00041A400085DB500088DB50008C5B500084D
:1000E00059030008590300080000000059030008E4
:1000F0005903000859030008590300085903000870
:100100005903000859030008A1AB00084DA40008DA
:10011000FDB5000835B6000859030008590300086A
:10012000590300085903000871A40008A5A4000899
:1001300081B7000859030008590300085903000853
:1001400000000000000000000000000000000000AF
:100150005903000859030008590300086DB6000848
:100160004113000859030008D1200008F5200008B9
:100170005903000819210008590300085903000811
:100180005903000859030008A5B60008DDB60008A9
:1001900059A4000865A40008590300085903000881
:1001A00059030008590300085903000859030008BF
:1001B000E91A000859030008590300085903000808
:1001C000590300085903000859030008590300089F
:1001D000590300085903000859030008590300088F
:1001E000590300085903000859030008590300087F
:1001F000590300085903000859030008590300086F
:10020000590300085903000859030008590300085E
:10021000590300085903000859030008590300084E
:1002200059030008590300085903000800000000A2
:100230005903000859030008000000005903000892
:10024000590300085903000859030008590300081E
:10025000590300085903000859030008590300080E
:1002600059030008590300085903000859030008FE
:10027000590300085903000815B7000800000000E2
:100280005903000859030008590300080000000042
:08029000000000005903000802
:1002980053B94AB9002908BF00281CBF4FF0FF31E5
:1002A8004FF0FF3000F00CB8ADF1080C6DE904CE4A
:1002B8000DF006FDDDF804E0DDE9022304B0704727
:1002C800704700BF0348044B834202D0034B03B17D
:1002D800184770477C0300247C03002400000000BA
:1002E8000548064B1B1AD90F01EBA301491002D090
:1002F800034B03B1184770477C0300247C03002498
:100308000000000010B5064C237843B9FFF7DAFF68
:10031800044B13B10448AFF300800123237010BDD0
:1003280080030024000000008CE1000808B5054B9C
:100338001BB105490548AFF30080BDE80840FFF749
:10034800CFBF00BF00000000840300248CE1000838
:10035800FEE700BF0C4A0D4B934204D0D21A0C4959
:1003680018460DF09FFC0B4A0B4B934204D0D21A4F
:10037800002118460DF05BFC02F034F90DF060FC2A
:1003880000F00EF8FEE700BF7C0300240000002404
:10039800BCE10008C02E002480030024704700BF81
:1003A80030B500218FB02448102400F01FF9002236
:1003B800224B0025089208A9039203A81A888DF8F1
:1003C800304001249B88ADF82420ADF82630CDE9D3
:1003D8000A4500F0B7FF00B30121174800F048F8BC
:1003E8006421154800F040F80021134800F040F857
:1003F8006421114800F038F8EEE701210E4800F0BA
:1004080037F829460C4800F02FF821460A4800F032
:100418002FF82946084800F027F810234FF47A757A
:10042800282103A80DEB0302009501F043F80446C8
:100438000028F2D1E1E700BF9C030024C0DF0008D8
:1004480010B400230548064A06495DF8044B0360CA
:1004580043610362C3630DF0E5BB00BF9C03002446
:1004680000000024A5030008084601F0D3BE00BF21
:10047800253000F0EDBD00BF10B540F203318EB05D
:1004880000244FF60B7340F20342ADF808100299AE
:1004980009A8ADF81030ADF824300123ADF80C20D0
:1004A8002246009407940C94CDE90544CDE90A440A
:1004B80000F0CCFB04A8012322460399009400F025
:1004C800C5FB09A800F0D0FC10B901200EB010BD82
:1004D80004A800F0C9FC80F00100C0B240000EB0D2
:1004E80010BD00BF2DE9F04103239AB00127002475
:1004F800149306463A4B1094119340F204531597FF
:10050800ADF84830CDE91647FFF7B6FFB8420546C3
:1005180043D0022832D1334B40F601320DF12C087A
:100528000094CDF84A304FF60B73ADF818204046CA
:1005380006993A46ADF82C3023460E94CDE9184773
:10054800CDE90C4400F082FB2146404600F098FCBF
:1005580010A906F13C0001F09BFC302003224FF06B
:100568007E5341460D930E93CDE90B02F26B06F1D3
:10057800140000F01BFB1AB0BDE8F08140F6013210
:10058800184B0DF12C08ADF82C200B98CDF84A30FB
:10059800CDE9184700F0A4F8DAE71023114A06A9B4
:1005A80006908DF828300DF12C080F4BCDF84A2015
:1005B80009940294CDE90730CDE9180402A800F0A7
:1005C800C1FE0823029A03A94046ADF80C508DF8E5
:1005D8000E40049505930B9400F0C0F8B8E700BFEF
:1005E80004020404040604030704010B2DE9F04186
:1005F800394B0446394D40F20112012604F1040832
:100608002DED028B82B04560A36003F58133ADF810
:10061800042040F2027203F580730020A4F825201C
:10062800E36040F606632682A4F8293084F8276040
:1006380084F82B6000918DF8060001F087FF0546CD
:1006480001F0EAFD6946074610BB0DB304F130001E
:100658008DF8066001F002FF072D34D104F114056E
:100668002046FFF73FFF284600F0DCFA2846B0EEA8
:10067800408A00F0D3FAD0ED007AF8EE677A88EE77
:10068800277A84ED0E7A02B0BDEC028BBDE8F081CA
:1006980004F1300001F0E2FE072D02D1002FDDD079
:1006A80004E04146204601F0A3F88FB104F125008B
:1006B80000F0F0FB04F1290000F0ECFB04F112005B
:1006C80000F066F9CAE74146204601F091F8C5E70F
:1006D800002DEBD0C2E700BF050705060508050990
:1006E80010B584B00346012403A8ADF80C30ADF86A
:1006F8000E4000F0CFFB214603A800F0A9FC2046DD
:1007080001F088FD002103A800F0A2FC204601F0BA
:1007180081FD214603A800F09BFC04B010BD00BF7A
:1007280010B5C2F3002384B00C46017C8DF80D206F
:1007380043EA4402FA2402238DF80C2003AA009409
:1007480000F090FE18B10124204604B010BD044604
:100758000A2001F05FFD204604B010BD034670B5C5
:10076800044684B043F8042BFA2507C983E8070038
:10077800A1791E23009503AA1A31ADF80C30204642
:100788000223C9B2217400F06DFE10B1012004B03B
:1007980070BD0A2001F03EFD4FF4B85200950223C7
:1007A800ADF80C20204603AA217C00F05BFE00284F
:1007B800ECD10A2001F02EFD41F2027200950223CD
:1007C800ADF80C20204603AA217C00F04BFE00283F
:1007D800DCD10A2001F01EFD042200950223ADF8A9
:1007E8000C20204603AA217C00F03CFE0028CDD135
:1007F8000A2001F00FFD062200950223ADF80C2017
:10080800204603AA217C00F02DFE0028BED10A2034
:1008180001F000FD41F2082200950223ADF80C20FA
:10082800204603AA217C00F01DFE0028AED10A2034
:100838000A2601F0EFFC0095022303AA217C20463A
:10084800ADF80C6000F00EFE00289FD1304601F094
:10085800E1FC23790C220095002B217C8DF80C20DB
:10086800204614BF622342236A448DF80D300223C8
:1008780000F0F8FD002889D1304601F0CBFCA368D0
:1008880000952046E268217C1343627943EA4213CB
:10089800227982F0010243EA82130E228DF80D308C
:1008A80002238DF80C2003AA00F0DCFD00287FF459
:1008B8006DAF304601F0AEFC102200950223ADF872
:1008C8000C20204603AA217C00F0CCFD00287FF4F0
:1008D8005DAF304601F09EFC122100950223ADF871
:1008E8000C1003AA217C204600F0BCFD00287FF4F0
:1008F8004DAF304601F08EFC01220921204604B09C
:10090800BDE87040FFF70CBF70B586B00024012524
:10091800102602A94FF480521C480194CDE90256D2
:10092800CDE9045407F074FF642002F0A5F802230F
:1009380002A94FF48052154802930594CDE9036546
:1009480007F066FF042302A94FF480520F4803966C
:10095800CDE904340323029307F05AFF40F232230F
:10096800042202A90948019310230495CDE9022322
:10097800019B4FF48052059307F04AFF40F60601A9
:10098800024807F065FF204606B070BDE403002466
:1009980070B51D4B88B008224FF4006400211B4E2F
:1009A8001A614FF0020C03920A225C62202406921C
:1009B8004022054699600320196210215E600126D5
:1009C800C3E905424FF4C072DE60DA6107229FED89
:1009D8000C7BCDE900C20422CDE904016946181D4B
:1009E800029283ED0A7B07F0E9FE30B904462846F7
:1009F800FFF78AFF204608B070BD304608B070BDCA
:100A08000010000000000000E003002440410052F4
:100A18005E4A0023F0B514688FB00A93002C40F0AA
:100A2800B2805B4B012103260C2511600227D3F805
:100A3800D420584842F48052C3F8D420D3F8D420A4
:100A480002F480520092009AD3F8E02042F010029B
:100A5800C3F8E020D3F8E02002F010020192019AD6
:100A6800D3F8E02042F04002C3F8E020D3F8E020B9
:100A780002F040020292029AD3F8E02042F0080203
:100A8800C3F8E020D3F8E02002F008020392039AAA
:100A9800D3F8E02042F48072C3F8E020D3F8E020D5
:100AA80002F480720492049AD3F8E02042F08002A3
:100AB800C3F8E020D3F8E02002F080020592059AFE
:100AC800D3F8E02042F02002C3F8E020D3F8E02079
:100AD80002F020020692069AD3F8E02042F00402BF
:100AE800C3F8E0204FF68372D3F8E0300B9603F09A
:100AF80004030C9507930223079908A9CDE9082355
:100B080002F02AFF48F2371308A9234808930C95E6
:100B18000997CDE90A4602F01FFF4CF2037308A9B2
:100B28001E480893CDE90974CDE90B6502F014FF5E
:100B380040F2FF6308A91A480893CDE90974CDE982
:100B48000B6502F009FF4FF60C7308A915480893C6
:100B5800CDE90974CDE90B6502F0FEFE4FF63F03BF
:100B680008A911480893CDE90974CDE90B6502F08D
:100B7800F3FE202308A90B4809970C950893CDE9A3
:100B88000A4602F0E9FE0FB0F0BD00BFDC03002406
:100B9800004402580010025800180258000C02586D
:100BA80000200258001C02580014025830B5184C96
:100BB80085B01546046004F1080E0FC98EE80F00D1
:100BC800D4ED047AF5EEC07A8DE80F00F1EE10FA54
:100BD8001ADDB7EE006A94ED057A27EE277AC6EE9D
:100BE800276A84ED0D7AC4ED0C6A6DB1204640F891
:100BF800185F01F04BFA074903690020064A216291
:100C0800A262E36005B030BD012005B030BD00BF71
:100C1800180400240020003000000030006808306C
:100C2800704700BF0068183001F032BA064B302018
:100C380003214FF07E52C3E90201002000211A610E
:100C48005A61C3E9060170471804002410B592B030
:100C58000180ADF80410C9B2149C0B29C460C0E926
:100C680001233FD090F801E08446BEF10F0F39D838
:100C7800022A39D0032A04D0A2F10102B2FA82F280
:100C88005209012B0E9205D0A3F10203B3FA83F3A4
:100C98005B095B00022C0F9306D0032C04D0A4F14F
:100CA8000104B4FA84F464090A2910940FD8624B39
:100CB8004A1E03EB8123CCF81030092A00F2AC80DD
:100CC800DFE802F0233241505F6E7D8C9B140023D5
:100CD8001846CCF8103001230DA903FA0EF30D9332
:100CE80002F03AFE12B010BD1122CAE7534B544825
:100CF800D3F8E02042F48062C3F8E020D3F8E03073
:100D080003F480630C930C9BE5E74C4B4D48D3F8F8
:100D1800E02042F00202C3F8E020D3F8E03003F00C
:100D280002030393039BD6E7444B4748D3F8E020DC
:100D380042F00402C3F8E020D3F8E03003F00403E3
:100D48000493049BC7E73D4B4048D3F8E02042F0AA
:100D58000802C3F8E020D3F8E03003F00803059355
:100D6800059BB8E7354B3A48D3F8E02042F010022B
:100D7800C3F8E020D3F8E03003F010030693069B95
:100D8800A9E72E4B3348D3F8E02042F02002C3F8FD
:100D9800E020D3F8E03003F020030793079B9AE79D
:100DA800264B2D48D3F8E02042F04002C3F8E0205B
:100DB800D3F8E03003F040030893089B8BE71F4B00
:100DC8002648D3F8E02042F08002C3F8E020D3F8A8
:100DD800E03003F080030993099B7CE7174B204818
:100DE800D3F8E02042F48072C3F8E020D3F8E03072
:100DF80003F480730A930A9B6DE7104B1948D3F8E4
:100E0800E02042F40072C3F8E020D3F8E03003F4A5
:100E180000730B930B9B5EE7084B0748D3F8E02061
:100E280042F00102C3F8E020D3F8E03003F00103F8
:100E38000293029B4FE700BF00000258004402588B
:100E4800002802580004025800080258000C0258F2
:100E5800001002580014025800180258001C0258CA
:100E6800002002580024025808B50121437800697F
:100E7800994089B203F0AAF8003818BF012008BDCC
:100E880001230A464178006903FA01F189B203F0A7
:100E9800A3B800BF8378022B30B504468FB039D091
:100EA800032B00F0D180A3F10102B2FA82F25209B9
:100EB800E3780A92012B05D0A3F10203B3FA83F376
:100EC8005B095B0000222046CDE90B3201F0B2FC41
:100ED8000546204601F0B6FC23780990082B13D864
:100EE800DFE803F02D405366798C9F051A00574BB5
:100EF800D3F8E02042F08002C3F8E020D3F8E030D5
:100F080003F080030793079B09A9284602F024FDF4
:100F18000FB030BD1122CBE74C4B09A92846D3F8B6
:100F2800E02042F48072C3F8E020D3F8E03003F404
:100F380080730893089B02F00FFD0FB030BD434B40
:100F480009A92846D3F8E02042F00102C3F8E020BE
:100F5800D3F8E03003F001030093009B02F0FCFC9F
:100F68000FB030BD394B09A92846D3F8E02042F02C
:100F78000202C3F8E020D3F8E03003F00203019343
:100F8800019B02F0E9FC0FB030BD304B09A928469F
:100F9800D3F8E02042F00402C3F8E020D3F8E030B0
:100FA80003F004030293029B02F0D6FC0FB030BD9D
:100FB800264B09A92846D3F8E02042F00802C3F8D6
:100FC800E020D3F8E03003F008030393039B02F01A
:100FD800C3FC0FB030BD1D4B09A92846D3F8E0204B
:100FE80042F01002C3F8E020D3F8E03003F0100319
:100FF8000493049B02F0B0FC0FB030BD134B09A959
:101008002846D3F8E02042F02002C3F8E020D3F8C5
:10101800E03003F020030593059B02F09DFC0FB020
:1010280030BD0A4B09A92846D3F8E02042F0400217
:10103800C3F8E020D3F8E03003F040030693069BA2
:1010480002F08AFC0FB030BD1A4631E7004402585E
:1010580070B506460D4601F0EDFB0446304601F03A
:10106800F1FB2A1E0146204618BF0122BDE8704048
:1010780002F0B2BF70B5002386B012220446039373
:10108800CDE901230368032B01D804230493261D0B
:101098000634304601F0CEFB0546304601F0D2FB5F
:1010A800034669462846009302F056FC204601F0A4
:1010B800C1FB034620461C4601F0C4FB69460346B3
:1010C8002046009302F048FC06B070BD634A0368EE
:1010D800934210B58CB028D0614A934258D0614AE7
:1010E800934200F09480604A934201D00CB010BD46
:1010F8005E4C5F48D4F8E03043F00203C4F8E030B7
:10110800D4F8E03003F002030A930A9BFFF7B2FF1A
:10111800D4F8F43043F08003C4F8F430D4F8F43051
:1011280003F080030B930B9BE0E7504C5148D4F835
:10113800E03043F00203C4F8E030D4F8E03003F0C4
:1011480002030193019BFFF795FFD4F8E8300022D2
:101158001F2043F400131146C4F8E830D4F8E830EF
:1011680003F400130293029BD4F8D83043F0010330
:10117800C4F8D830D4F8D83003F001030393039BA4
:1011880001F0A4FC1F200CB0BDE8104001F0DABC4F
:10119800364C3948D4F8E03043F08003C4F8E030E6
:1011A800D4F8E03003F080030493049BD4F8E030D3
:1011B80043F00203C4F8E030D4F8E03003F002034F
:1011C8000593059BFFF756FFD4F8E830002221204D
:1011D80043F480031146C4F8E830D4F8E83003F447
:1011E80080030693069BD4F8D83043F00103C4F873
:1011F800D830D4F8D83003F001030793079B01F0E7
:1012080065FC21200CB0BDE8104001F09BBC1B48D8
:10121800FFF730FF154B00224820D3F8E84011466D
:1012280044F40004C3F8E840D3F8E84004F40004A8
:101238000894089CD3F8D84044F00104C3F8D84077
:10124800D3F8D83003F001030993099B01F03EFC61
:1012580048200CB0BDE8104001F074BC00540040B8
:1012680000580040005C0040001C00580044025830
:10127800DC060024540400242C0500240406002461
:10128800F0B5002287B0184B1021CDF802206F4628
:10129800CDF806209C46CDF80A206E46CDF80E20E3
:1012A8000CF11805CDF812200CF1300EADF816200F
:1012B800FF220E4B6C46ADF800101A700FCFACE849
:1012C8000F0097E803008CE803000FCE0FC596E8DF
:1012D800030085E803000FCCAEE80F0094E8030094
:1012E8008EE8030007B0F0BD040000245004002479
:1012F80010B5EFF3108472B6074B1A78120602D5B0
:1013080004B962B610BD1B78D820044A5BB200FB52
:10131800032002F00DF9F3E75004002468040024C8
:10132800014803F01BBF00BFE0040024014803F09C
:1013380015BF00BFB8050024014803F00FBF00BF68
:10134800900600242DE9F0410F68D8253C4E84B062
:1013580007FB05F5032F06EB0503036058DCCA6895
:101368000C46012A54D84FD020689C4661684FF03B
:10137800D808A2680DF1100EE36808FB0768ACE80E
:101388000F00304B227C8CF80020D8F808C00FCB17
:101398000EE90F000EEB8703BCF1010F53F8103C68
:1013A800C8F88C3042D0BCF1020F35D0BCF1000F28
:1013B80008D101F0C9F8244B98420CBF234B244BA9
:1013C800C8F890308C35D823217C002203FB0763B2
:1013D800012035444900C3E926022846C3F8941081
:1013E800C3E92822C3E92A2203F0F4FA80B90146A6
:1013F800284603F0BFFE58B90146284603F0E4FE2C
:10140800003818BF012004E00A7C103A672AABD9DB
:10141800012004B0BDE8F08101F096F80A4B98422B
:101428000CBF0C4B0C4BC8F89030CBE701F08CF894
:10143800054B98420CBF094B094BC8F89030C1E7DF
:1014480054040024C8DF0008000E27075F4390609B
:101458008A62E030200BA0101A0980102D0FB030DE
:101468003211D0202DE9F041D0F8008082B00D462D
:1014780017461E4608F18C04204603F077FE202804
:10148800FAD1D8F80C3073B96D002046089C334661
:101498003A46A9B2009403F0F3FA003818BF0120C5
:1014A80002B0BDE8F081089B32463946204603F079
:1014B8008DFCF2E72DE9F041D0F8008082B00D46AE
:1014C80017461E4608F18C04204603F04FFE2028DC
:1014D800FAD1D8F80C3073B96D002046089C334611
:1014E8003A46A9B2009403F09FFB003818BF0120C8
:1014F80002B0BDE8F081089B32463946204603F029
:1015080057FDF2E7044B10221A7483F8E82083F899
:10151800C02183F8982270475404002430B5002372
:1015280095B04FF48071062204460B9306921393EC
:10153800CDE90C13CDE90E33CDE9113301F006F8EE
:1015480007282AD004F1100541F2883206A9284656
:1015580004F084FC28B1012384F85C30012015B024
:1015680030BD0223102206A9284602920022CDE9A6
:101578000033012303934FF48003CDE904230522AC
:101588004FF0807306926A460F9341F2883304F055
:1015980001FE0028DFD115B030BD032384F85C308C
:1015A800DCE700BF0000000070B50023A4B04FF0D6
:1015B80080724FF480750446ADF806301B93CDE970
:1015C8001E320122CDE91C53CDE92023CDE9223377
:1015D800002942D0F02300F1100516AEADF8063010
:1015E800C02341F2883231462846169304F036FC6F
:1015F80028B1012384F85C30012024B070BD41F289
:1016080088320DF10601284604F0A4FC03460028A0
:10161800EFD14FF480710522284601250892102247
:1016280010930D93159302930595CDE90E139FED35
:101638001E7B4FF08071CDE91333119141F288334D
:1016480008A9CDE9035202AA8DED067B04F0A2FD9C
:101658000028D2D084F85C50CEE700F1100516AE11
:10166800612341F2883231462846169304F0F6FB8E
:101678000028BED141F288320DF10601284604F057
:10168800F7FC0028B5D1BDF80630204623F07803D2
:1016980043F04003ADF80630FFF740FF00289FD025
:1016A800A7E700BFAFF30080000000000000400083
:1016B8002DE9F04F00234FF4807601254FF0807814
:1016C80004462DED028BABB08DF8073021931393B0
:1016D8001B9322961C95CDF89480CDE92333CDE950
:1016E8002653CDE92833CDE91463CDE91633CDE986
:1016F800193306230E9300F029FF072808D004F1B8
:10170800100741F288320EA9384604F0A7FB40B111
:10171800012384F85C3001202BB0BDEC028BBDE8BE
:10172800F08F02234FF010094FF0050A08AA0EA9FE
:1017380038460B95CDF85C80CDF82890CDF838A0C8
:101748009FED298BCDE9083341F288338DED0C8B61
:1017580004F020FD0028DBD141F2883238461CA96C
:1017680004F07CFB0028D3D14FF0400B41F28832C3
:101778000DF1070138468DF807B004F0EBFB00289F
:10178800C6D141F288331CA902AA3846CDF870A008
:10179800CDF89480CDE902BBCDE904958DED068B9B
:1017A80004F0F8FC03460028B2D1139308AA1B934F
:1017B8000EA938461496CDF838A0CDF85C80CDF83F
:1017C80028900B95CDE91533CDE91933CDE90835C6
:1017D80041F288338DED0C8B04F0DCFC00289BD0A3
:1017E80084F85C5097E700BF00000000000040004C
:1017F8002DE9F0435C4CA3B00E46046000F0A6FE51
:10180800072800F0A480306825467168B26807C5CB
:10181800B389284620F8043B267B677B04F000FB4D
:10182800E0B9524B012E4FF00108E06123610CBF73
:101838004FF400034FF48013C4E9058893FAA3F327
:10184800B3FA83F34FF48079013BC4F82490C4E9D8
:101858000B00281D236204F06FFA38B1012384F8C5
:101868005C300126304623B0BDE8F08366230B9038
:10187800139041F2883206A90693CDE90C90CDE980
:101888000E00CDE91100281D04F0E8FA0028E5D182
:10189800992341F2883206A9281D069304F0DEFA3E
:1018A8000028DBD105231C9019906A4614934FF049
:1018B8008073219014A91D931023CDF80C800293F6
:1018C80041F288339FED247BCDE91A90CDE91F00C2
:1018D800CDE90008281D8DED047B04F05BFC002891
:1018E800BCD131462046FFF75FFE0028B6D120461E
:1018F800FFF7DEFE06460028B0D1002FB2D1EB2359
:1019080006AA14A9281D14934FF44063CDF86890D3
:101918001B934FF40053189617934FF440431C93AE
:10192800A0231693062319934FF080539FED0C7B49
:1019380021934FF04073CDE91F661D938DED067B13
:1019480004F0B6FC00288DD084F85C8089E7032376
:1019580084F85C3085E700BF00000000000040000C
:101968000000000000000000B807002400500052EA
:101978002DE9F04F8FB0414B0024026800AF9A4226
:101988007C63C7E90944C7E90B4403D03C37BD462B
:10199800BDE8F08F3A4B40F609213A48EA46D3F8B9
:1019A800D42007F11C0607F1220B4FF0020942F47C
:1019B80080424FF00308C3F8D420D3F8D42002F4AF
:1019C8008042BA60BA68D3F8E02042F04002C3F817
:1019D800E020D3F8E02002F04002FA60FA68D3F879
:1019E800E02042F02002C3F8E020D3F8E02002F023
:1019F80020023A613A69D3F8E02042F01002C3F8B5
:101A0800E020D3F8E02002F010027A617A69D3F876
:101A1800E02042F00202C3F8E020D3F8E030F86199
:101A280003F002033984BB61174B7B60BB697B6899
:101A380053F8040F7B6000F0FDFE7B6805461868CC
:101A480000F000FF16F8013B786207F124012846F0
:101A5800C7F830807B63C7E90A9401F07DFF5E45D3
:101A6800E5D100225C20114601F030F85C2001F03D
:101A780069F83C37D546BD46BDE8F08F00500052A6
:101A8800004402580A0A090914080024114B026884
:101A98009A4200D07047104A70B5D2F8D4300F4C33
:101AA80023F4804304F11806C2F8D43054F8040F24
:101AB80000F0C0FE0546206800F0C4FE0146284636
:101AC80002F058F9B442F1D15C20BDE8704001F051
:101AD80047B800BF005000520044025814080024C0
:101AE800014804F073BC00BFC8070024084B1A1D46
:101AF800981D03F1080110B49C1C9A6603F10A02B0
:101B0800C3E91834C3E91B015DF8044B5A677047F1
:101B1800B80700242DE9F041821D05468AB0031D4F
:101B280005F10A010830CDE9052305F10C02AB697E
:101B3800CDE907010992002B3BD0EF69B7FA87F787
:101B48007F090123022205AE4FF006080393CDE971
:101B5800012356F8044B2B792278934217D02B682F
:101B6800F3B1012B02D1F2B10A230493204600F00D
:101B780069FE03462046009300F05CFE694601F0CA
:101B8800EBFE0AAB9E42E4D10AB0BDE8F081697968
:101B980063789942E3D1002FF3D02B68002BE0D172
:101BA800CDF81080E2E76378022B0CBF08230A23E4
:101BB800DBE70127C5E700BFA04A0368934270B579
:101BC80005468AB07FD0203293427CD09C4A93420B
:101BD80004D02032934201D00AB070BD994C9A4883
:101BE800D4F8E03043F00103C4F8E030D4F8E03032
:101BF80003F001030593059BD4F8E03043F0080394
:101C0800C4F8E030D4F8E03003F008030693069BEC
:101C1800D4F8E03043F04003C4F8E030D4F8E030C2
:101C280003F040030793079BD4F8F03043F4000314
:101C3800C4F8F030D4F8F03003F400030893089B9C
:101C4800FFF768FFD4F8D820804B42F001022968DA
:101C5800D3F85C02C4F8D820D4F8D82002F00102E6
:101C68000992774A099C914200F0AB80D3F8802210
:101C7800013A18BF01229201002840F0CC80744834
:101C8800582103F22C4403F54775C3F82C040023AC
:101C98002046C4E901124FF480524FF48061636218
:101CA80062614FF48042C4E903314FF48073C4E9A0
:101CB80006234FF40033236201F0BAF8002800F03D
:101CC8009580FFBEFEE75F4C604ED4F8E0303046AA
:101CD80043F00103C4F8E030D4F8E03003F0010326
:101CE8000093009BD4F8E03043F01003C4F8E030D0
:101CF800D4F8E03003F010030193019BD4F8E030EE
:101D080043F04003C4F8E030D4F8E03003F0400377
:101D18000293029BD4F8F03043F48003C4F8F03007
:101D2800D4F8F03003F480030393039BFFF7F2FE2B
:101D3800D4F8D830296843F00103404A3068C4F821
:101D4800D8309142D4F8D83003F001030493049BAF
:101D580027D0736A013B18BF01239B01002852D189
:101D68003B4A06F5E8745821C036C6F8102100220F
:101D78002046C4E901134FF480534FF48061626236
:101D880063614FF48073C4E903214FF48042C4E9CE
:101D980006234FF40033236201F04AF808B3FFBE6C
:101DA800FEE7336A013B18BF01239B0118BB02F50C
:101DB800284206F5AC74572128360C32C6F8302173
:101DC800D5E7D3F87C22013A18BF0122920158BB0B
:101DD8002048572103F56D7403F52175C3F8B40342
:101DE80055E7C6E92044A6630AB070BDC5E920449A
:101DF800A5630AB070BD184A06F5AC745921283697
:101E0800C6F83021B3E7154A06F5E8745A21C036FA
:101E1800C6F81021ABE711485A2103F22C4403F508
:101E28004775C3F82C0432E70B48592103F56D7444
:101E380003F52175C3F8B40329E700BF045801402E
:101E4800045C0140004402588C0A00243008002435
:101E58002800024010000240580002407000024072
:101E6800014801F065BB00BF88090024014801F062
:101E78005FBB00BF000A0024014801F059BB00BF46
:101E8800E40B0024014801F053BB00BF5C0C0024A4
:101E98002DE9F04F0C684FF41777774E87B004FBA5
:101EA80007F7012C06EB0708C0F8008000F39C80B8
:101EB8004FF0000907F512730D468E4646F8039059
:101EC8003344C446C3F80490C8F8509266A3D3E9D3
:101ED800002367A1D1E90001CDE902230DEB8403BA
:101EE800CDE90401D3F808B0D3F810A0BEE80F007C
:101EF800ACE80F00BEE80F00ACE80F009EE8030056
:101F0800C8F828B0C8F8C0A08CE803002B69042BD7
:101F18000DD8DFE803F07D87910374004FF4177341
:101F28004BF6803203FB04639A64C3F8E020AA6985
:101F3800296A002A54D000294FF0010214BF032156
:101F480002214FF4177303FB0463C3E90B12EA6918
:101F5800696A002A4CD1003918BF012168694FF419
:101F68001773022803FB0463C3E9311206D8434BF5
:101F780013F80090424B53F8203001934FF4177335
:101F88000022404907F1280004FB03F3304403F121
:101F9800380403F1500C03F1D0050A510C44626077
:101FA80003F1E80433445A645A6341F80C208C4422
:101FB800CCF80420DA654A510D446A60C3F8DC2085
:101FC800C3F8CC200A510C4401996260C3F8F4208C
:101FD80002234A4606F040FB002837D0FFBEFEE742
:101FE800003918BF0121ACE7012007B0BDE8F08F28
:101FF80000294FF0010214BF03210221AEE74FF47C
:102008001773214A03FB04639A64C3F8E0208EE740
:102018004FF417734FF4FA5203FB04639A64C3F83E
:10202800E02084E74FF417734FF47A5203FB0463FC
:102038009A64C3F8E0207AE74FF417734FF4FA4232
:1020480003FB04639A64C3F8E02070E707F1C0005B
:1020580002234A460199304406F0FEFA0028C4D00B
:10206800FFBEFEE7AFF3008004580140045C014066
:1020780024580140245C0140300800241CE000087A
:1020880010E0000834080024007701000068704759
:1020980003681B69042B05D8044A02EB830393EDFC
:1020A800000A70479FED020A704700BFFCDF000876
:1020B80000803B47704700BF08B500F0CBFCBDE887
:1020C800084000F0C7BD00BF064808B503680BB15B
:1020D80001F086FF044803681BB1BDE8084003F01F
:1020E8009FB808BDF8100024F00C0024064808B575
:1020F80003680BB101F074FF044803681BB1BDE825
:10210800084003F08DB808BDF8100024F00C002436
:10211800064808B503680BB101F062FF044803687C
:102128001BB1BDE8084003F07BB808BDF8100024D7
:10213800F00C0024364BDA6A520062D59A6A9A6A21
:102148009A6A9B6A180600D500BE314B9B6A9906AD
:1021580000D500BE2E4B9B6ADA0600D500BE2C4B7C
:102168009B6A1B0700D500BE294B9B6A980700D5C0
:1021780000BE274B9B6AD90700D500BE244B9B6A3B
:102188001A0400D500BE224B9B6A9B0400D500BEF2
:102198001F4B9B6AD80400D500BE1D4B9B6A1905CE
:1021A80000D500BE1A4B9B6A5A0500D500BE184BD5
:1021B8009B6A9B0500D500BE154B9B6AD80500D5C8
:1021C80000BE134B9B6A990100D500BE104B9B6A59
:1021D800DA0100D500BE0E4B9B6A1B0300D500BE7A
:1021E8000B4B9B6A580300D500BE094B9B6A9903A9
:1021F80000D500BE064B9B6ADA0306D400BE00BEBB
:10220800FEE7DB6A9B07FAD5F8E700BEF6E700BFF2
:1022180000ED00E000F030BC0A4B9B6803F1784306
:10222800B3F5003F0BD3084B986848B1986801286C
:1022380006D09868022803D09868032070470120C8
:10224800704700BF00ED00E0000080382DE9F04342
:10225800CFB005464C2200210AAC20460BF0E7FC23
:102268002022002102A80BF0E2FCBC2200211EA8BB
:102278000BF0DDFC022003F06DFC2B68012B54D021
:102288005349002202260192C86A524A20F00100EE
:10229800C862C820C96A01F001010191916941F43D
:1022A80040419161926902F440420192019B494A7E
:1022B80093699904FCD548490225002201278B6AB5
:1022C8004FF004094FF0080823F003032B438B62F7
:1022D800052320632046A3634FF48033A761656319
:1022E800E563C4F84080C4E911222122CDE91355E1
:1022F800CDE90A23C4F82C9004F070F900B1FEE788
:1023080040233F224FF4806404900993314602A889
:10231800CDF814800894CDE906330323CDE90223D0
:1023280004F076FC0346C8B1FEE72A4900226B4652
:10233800042600928869264A40F440408861F020CB
:10234800896901F440410091D16A41F00101D162EB
:10235800D26A02F0010200921B68A8E74FF48032AB
:102368004FF480512C94062446921EA83591CDF83E
:102378008480CDF8A8901F97239722952F953395A1
:10238800CDE92531CDE93032CDE92D3300224FF4A6
:102398008071CDE93B334FF4401343911021CDE9CF
:1023A8003E2340F2271280232991249334930C234F
:1023B800CDE92742202220932B92084A1E9204F04E
:1023C80071FE00B1FEE703F0EBFB4FB0BDE8F08310
:1023D8000004005800480258004402580F130F0325
:1023E80070B584B0012400F0E3FB4FF480764FF021
:1023F8004052194B6846ADF80040019200250293FF
:10240800039600F0F3FB192368468DF80F408DF80A
:1024180008304FF04043ADF80D6001938DF801404E
:102428008DF80A5000F0E2FB02230B2268468DF873
:102438000F508DF801304FF062538DF8082001934A
:10244800ADF80D408DF80A4000F0D0FB042000F0F4
:10245800BDFB04B070BD00BF0E00010330B50C46D3
:10246800054685B0D1E9000185E8030000F0C2FA0D
:10247800A379A3B309F002FBFEF702FF07F096FF6A
:1024880008F0EAFF23798BBB63799BB1BFF34F8FC9
:10249800BFF36F8F2A4B0022C3F85022BFF34F8F30
:1024A800BFF36F8F5A6942F400325A61BFF34F8FFE
:1024B800BFF36F8F4FF0FF320023002400256946D9
:1024C800204802928DF80C30CDE9004508F06AFBEF
:1024D8001C4808F0CBFB07F029FC05B030BD2846A6
:1024E800FFF7B4FE2846FFF77BFFC3E71449002334
:1024F800C1F88430BFF34F8FD1F8805043F6E07EA7
:10250800C5F34E3CC5F3C9054FEA4C1C0CEA0E0056
:102518002B4640EA8372013BC1F860225A1CF8D16D
:10252800ACF1200C1CF1200FF0D1BFF34F8F4B6999
:1025380043F480334B61BFF34F8FBFF36F8FA3E733
:1025480000ED00E0E80C002404F094BC1C4B9B68F0
:1025580003F17842B2F5003F25D3B3F5803F20D38D
:1025680003F16042B2F5003F1FD303F15C42B2F5BC
:10257800002F1CD303F17042B2F5902F19D303F149
:102588004842B2F5803F16D303F18042B2F1806F22
:1025980013D303F1E043B3F5000F34BF072008203D
:1025A80070470120704700207047022070470320C1
:1025B800704704207047052070470620704700BF09
:1025C80000ED00E010B400230348044A04495DF814
:1025D800044B03600BF026BBE80C00240000002429
:1025E800BD20000810B4204C83B0204B0022D4F842
:1025F80088001F4940F47000C4F8880018681D4C12
:1026080040F0010018601A611868014019609A6169
:10261800DA611A629A62DA621A635A639A63DA634F
:102628001A645A64196821F4802119601A66D3F86B
:10263800DC2042F06042C3F8DC20D3F8DC300193A0
:10264800019B23686FF30F03B3F1005F03D20A4BBA
:102658000122C3F80821044B4FF000629A6003B0CE
:102668005DF8044B704700BF00ED00E000440258DD
:102678007FEDF6EA0010005C0080005100F57171F2
:10268800D0F8040406F050BFC1EBC10300EB83038C
:10269800D0F80404D3F8082206F074BFC1EBC103D4
:1026A80000EB8303D0F804049A6C06F0A3BF00BFC4
:1026B800D0F8040407F03EB8C16810B5044619B153
:1026C800022900D0FEE70121D4F8040407F01CF821
:1026D800D4F80404BDE8104006F0EEBF10B5044677
:1026E800D0F8040407F014F82268D2F8003E43F04A
:1026F8000103C2F8003E236A23B1034A136943F079
:102708000603136110BD00BF00ED00E0D0F804041B
:1027180007F008B8D0F8040407F01CB8D0F804048F
:1027280007F016B8D0F8040407F016B8D0F8040477
:1027380007F014B89446D0F898021A4608B56346CC
:1027480003F006F918B102280CBF0120022008BDC9
:1027580008B5D0F8980203F081F918B102280CBF27
:102768000120022008BD00BF08B5D0F8980203F088
:10277800B7F918B102280CBF0120022008BD00BF1C
:102788000A06D0F8983206D4C1EBC10103EB8103E5
:1027980093F8FE01704701F07F01C1EBC10103EB23
:1027A800810393F83E00704708B5D0F8980203F00B
:1027B800B9F818B102280CBF0120022008BD00BFDB
:1027C80008B5D0F8980203F021F918B102280CBF17
:1027D8000120022008BD00BF08B5D0F8980203F018
:1027E800EFF818B102280CBF0120022008BD00BF75
:1027F800D0F8C00207F054BAD0F8C00207F068BA9F
:10280800D0F8C00207F070BA704700BFD0F8C00215
:1028180007F056BAD0F8C00207F056BA08B5D0F893
:10282800D00301F095FF18B102280CBF0120022047
:1028380008BD00BF024B027853F82200704700BF62
:1028480050E00008024B427833F81200704700BF8E
:1028580030E000088CB00A2814D8DFE800F02331F3
:102868003F4D5B697785930615004D4BD3F8E02003
:1028780042F40072C3F8E020D3F8E03003F40073A8
:102888000A930A9B0CB07047454BD3F8E02042F4FA
:102898008062C3F8E020D3F8E03003F480630B9340
:1028A8000B9BEFE73E4BD3F8E02042F00102C3F860
:1028B800E020D3F8E03003F001030193019BE1E746
:1028C800374BD3F8E02042F00202C3F8E020D3F8F7
:1028D800E03003F002030293029BD3E7304BD3F8B6
:1028E800E02042F00402C3F8E020D3F8E03003F01F
:1028F80004030393039BC5E7294BD3F8E02042F078
:102908000802C3F8E020D3F8E03003F0080304938A
:10291800049BB7E7224BD3F8E02042F01002C3F83B
:10292800E020D3F8E03003F010030593059BA9E7F6
:102938001B4BD3F8E02042F02002C3F8E020D3F884
:10294800E03003F020030693069B9BE7144BD3F873
:10295800E02042F04002C3F8E020D3F8E03003F072
:1029680040030793079B8DE70D4BD3F8E02042F017
:102978008002C3F8E020D3F8E03003F08003089326
:10298800089B7FE7064BD3F8E02042F48072C3F837
:10299800E020D3F8E03003F480730993099B71E7D2
:1029A80000440258704700BF0F4B1B780BB9012039
:1029B800704710B504464FF47A700C4AB0FBF3F335
:1029C8001068B0FBF3F000F0DDF80F2C00D808B168
:1029D800012010BD002221464FF0FF3000F076F8AC
:1029E800034B00201C6010BD54000024500000243C
:1029F8005800002438B50320124C00F055F8124D49
:102A080004F078F8114A12499369C3F30323E35C8D
:102A180003F01F0320FA03F30E202B60926902F0E3
:102A28000F02A25C02F01F02D3400B60FFF7BCFF4D
:102A380010B10124204638BD0446FFF7B3FF2046F5
:102A480038BD00BF20E000085000002400440258B0
:102A58004C000024034A044B11681B780B44136094
:102A6800704700BFBC13002454000024014B1868B1
:102A7800704700BFBC13002438B50446FFF7F6FFC3
:102A88000546631C02D0044B1B781C44FFF7EEFF7D
:102A9800401BA042FAD338BD54000024014B1868EB
:102AA800000C70470010005C06494FF6FF0C00024E
:102AB800054BCA6800F4E06002EA0C0210430343C5
:102AC800CB60704700ED00E00000FA051A4BDB68A8
:102AD800C3F3022300B5C3F1070E03F1040CBEF1E2
:102AE800040F28BF4FF0040EBCF1060F1AD9A3F14A
:102AF800030C4FF0FF3303FA0CF322EA03024FF002
:102B0800FF33002803FA0EF321EA030303FA0CF358
:102B180043EA02034FEA0313DBB206DB074A135406
:102B28005DF804FB00229446E9E700F00F00044A30
:102B380013545DF804FB00BF00ED00E000E400E082
:102B480014ED00E0002807DB00F01F010123400915
:102B5800024A8B4042F82030704700BF00E100E095
:102B680000280CDB4309012200F01F000449203330
:102B7800824041F82320BFF34F8FBFF36F8F704718
:102B880000E100E0431EB3F1807F01D301207047CC
:102B98004FF0E022002005494FF0F00C5361072365
:102BA80081F823C090611361704700BF00ED00E019
:102BB800BFF35F8F044B00215A6A22F480325A62B5
:102BC800C3F89410704700BF00ED00E0064B40F0DA
:102BD8000100C3F894005A6A42F480325A62BFF383
:102BE8004F8FBFF36F8F704700ED00E0174A4378AF
:102BF800C2F89830017821B3436800B5C2F89C3018
:102C0800C37A90F80CC01B0690F80FE043EA0C73E7
:102C180090F80AC00B43817B43EACC4390F80DC07F
:102C280043EA8C4390F809C043EA4143017A43EAF6
:102C38000E4343EA0C2343EA4103C2F8A0305DF88F
:102C480004FBC2F89C10C2F8A010704700ED00E029
:102C5800704700BF08B5FFF7FBFF08BD36490246BD
:102C680003688B4233D01831591AB1FA81F14909F6
:102C780069BB3248834239D0183083423ED018307D
:102C8800834239D0183083423BD0183083423ED03B
:102C9800183083422FD000F55670834235D028492A
:102CA8008B4231D018318B4234D018318B4234D01A
:102CB80018318B4234D018318B4234D018318B42C2
:102CC80034D018318B4234D023F0FF0011E0DBB24E
:102CD8001C491D48103BA1FB031310B41B091B4CD6
:102CE800E15C5DF8044BC2E91601704710211648F3
:102CF800D1659065704716211548F9E716211248E5
:102D0800F6E706211248F3E706211248F0E71021FA
:102D18000F48EDE710210F48EAE716210D48E7E7CD
:102D280000210D48E4E706210B48E1E710210A4895
:102D3800DEE716210848DBE71000024040000240A9
:102D480028040240ABAAAAAA0000024080E00008BA
:102D58000400024000040240040402400268284BB8
:102D6800284930B4284D294CAA4218BF9A420CBFB2
:102D7800012300238A4208BF43F001032831A242FD
:102D880008BF43F0010328348A4208BF43F0010317
:102D98002831A24208BF43F001038A4208BF43F02A
:102DA8000103D1B213B91A4B9A4211D1A1F1080308
:102DB800184C194A0121A4FB0343184C1D0902EBC6
:102DC8001313A9409B008166C0E9183430BC7047D2
:102DD800A1F110031249134C1144A4FB0343A82981
:102DE8004FEA131308D903F01F040F4A01211A44AC
:102DF800A1400E4C9300E6E708331C46F5E700BFF8
:102E080008540258305402581C540258445402586A
:102E180094540258CDCCCCCC009600168058025859
:102E2800F0FBFDBFABAAAAAA0082001080080240EE
:102E380070B50546FFF71AFE002D00F0A9802B6833
:102E480004468E4A8E498B4218BF934201F11801FD
:102E58000CBF012200228B4208BF42F00102183148
:102E68008B4208BF42F0010218318B4208BF42F082
:102E7800010218318B4208BF42F0010218318B421F
:102E880008BF42F0010218318B4208BF42F001022C
:102E980001F556718B4208BF42F0010218318B428E
:102EA80008BF42F0010218318B4208BF42F001020C
:102EB80018318B4208BF42F0010218318B4208BF1B
:102EC80042F0010218318B4208BF42F0010218316A
:102ED8008B4208BF42F001021AB96A4A934240F095
:102EE800DF800222002185F8352085F834101A6821
:102EF80022F001021A6005E0FFF7B8FD031B052B5D
:102F080041D82B681A68D107F6D4D5E90224296973
:102F18002243A8691C680A4369690A43E9690243AC
:102F28000A43594921402C6A22430A43696A042901
:102F380030D01A605A6922F00702114359612846B5
:102F4800FFF78CFEEA6D3F2302F01F029340836077
:102F58002846FFF703FFAB68A96E802BD5E9184216
:102F68006BD06B68D8B2013B072B206051602ED91B
:102F78000023C5E91B336B67002301226B651846E4
:102F880085F8352070BD202203236A6585F8353021
:102F9800012070BDD5E90B4121431143AA6A19608C
:102FA800596921F00701114341F00401002CC5D0F3
:102FB800002847D1012A5BD032F00202BED1E201DB
:102FC800BCD5402201236A6585F83530E0E72A68D8
:102FD800411E2E4B2E4CA24218BF9A4204F11404F3
:102FE8000CBF01230023A24208BF43F0010314349D
:102FF800A24208BF43F001031434A24208BF43F0C1
:1030080001031434A24208BF43F001031434A2425E
:1030180008BF43F001031BB91E4B9A4240F09A8047
:103028001D4A1E4C0244920001238B400021C5E931
:103038001B246B67116063609EE700236B6023604D
:10304800516095E7B0F5005F04D0022AB9D9032A88
:10305800B5D073E7032A3FF671AF01A050F822F00C
:10306800CB2F0008C72F0008CB2F000879300008A5
:10307800B4F1C07F7FF462AFA3E700BF1000024045
:1030880028000240B80402403F8010FE085402584D
:103098001C540258945402583F960016405902583E
:1030A800334A34483449834218BF934200F1280018
:1030B8000CBF012200228B4208BF42F001022831D6
:1030C800834208BF42F0010228308B4208BF42F019
:1030D80001022831834208BF42F001028B4208BF37
:1030E80042F0010212B9254A93423AD10020022146
:1030F800AA6885F8340085F83510402A1C686FF3F3
:1031080010142CD0A2F18002B2FA82F25209910373
:10311800EE69D5E9032010436A691043AA69104390
:10312800174A30432E6A1A4444EA161444EAD00077
:1031380001431448A0FB02022846196013099B00AA
:10314800EB65FFF78BFDE96D012201F01F018A4055
:103158004260FDE60C4A0D4C0244920064E71021DF
:10316800D6E7402203236A6585F8353010E700BFAB
:10317800085402581C5402583054025894540258A7
:10318800F8ABFDA7CDCCCCCC3F8200104009024063
:10319800002800F022812DE9F04F90F8344083B0E8
:1031A800012C00F0C380012480F8344090F83540A9
:1031B800012C09D000224FF4006380F834204365C5
:1031C800012003B0BDE8F08F0224864D864E80F8BA
:1031D80035400024854F44650468D0F85890B442BF
:1031E80018BFAC4205F13005A6F160060CBF4FF0E0
:1031F800010E4FF0000EAC4208BF4EF0010E05F56F
:103208005675AC4208BF4EF0010E1835AC4208BFE7
:103218004EF0010E1835AC4208BF4EF0010E1835BD
:10322800AC4208BF4EF0010E1835AC4208BF4EF054
:10323800010E1835AC4208BF4EF0010EA5F58665A3
:10324800B44218BFAC4205F58965C66E0CBF4FF095
:1032580001084FF00008AC4208BF4EF0010EA5F57A
:103268008665AC4208BF48F0010805F58965AC429F
:1032780008BF4EF0010EA5F59265AC4218BFBC42DE
:1032880027684EEA080C0CBF0125002527F0010726
:103298000195D0E919AB2760CAF804B002D0BCF197
:1032A800000F47D03EB1D0E91C757D60019D15B96E
:1032B800BCF1000F42D0C76D07F01F0A3F2707FA7D
:1032C8000AF7C9F80870276827F480272760636021
:1032D8008368402B27D0A160E260019B13B9B8F145
:1032E800000F76D0236823F01E0343F016032360F3
:1032F800036C1BB1236843F008032360036E1A684C
:10330800D20303D51A6842F480721A601EB133687A
:1033180043F4807333602368002043F00103236083
:1033280003B0BDE8F08FA260E160D6E7022003B0E9
:10333800BDE8F08F16B1D0E91C757D602C4FDFF821
:10334800B8E0744518BFBC420EF1140E0CBF01273B
:103358000027744508BF47F001070EF1140E7445A5
:1033680008BF47F001070EF1140E744508BF47F077
:1033780001070EF1140E744508BF47F001070EF15E
:10338800140E744508BF47F0010717B9194FBC421E
:103398000DD1C76D07F01F0E012707FA0EF7C9F800
:1033A800047063608368402B19D0A160E2602268D2
:1033B800016C22F00E02036E42F00A02226000291C
:1033C8009DD0226842F0040222601A68D10399D481
:1033D8009CE7BEF1000F85D1E9E701207047A260A4
:1033E800E160E4E788000240A000024010000240CB
:1033F80008540258945402581C540258002860D0AB
:1034080090F83530022B5AD10268454B454910B522
:10341800454CA24218BF9A4204F130040CBF012364
:1034280000238A4208BF43F001033031A24208BF9B
:1034380043F0010330348A4208BF43F001033031BE
:10344800A24208BF43F0010330348A4208BF43F068
:10345800010301F55C71A24208BF43F0010304F5C2
:103468005C748A4208BF43F001033031A24208BFAE
:1034780043F0010330348A4208BF43F0010330317E
:10348800A24208BF43F0010330348A4208BF43F028
:1034980001033031A24208BF43F001038A4208BF4A
:1034A80043F0010313B9214B9A420CD1042380F84D
:1034B8003530136823F001031360002010BD80230A
:1034C8004365012070471368046E23F00E03C16D35
:1034D800D0F858C0136001F01F01136823F00103EE
:1034E8001360012322688B4022F480722260CCF89A
:1034F8000430C36ED0E91921516033B11A68D0E99C
:103508001C1422F480721A604C6000210122036DA1
:1035180080F8341080F83520002BCED09847CCE7BF
:10352800100002404000024028000240B804024057
:10353800F0B50022944B83B0856D07461E68019252
:10354800924B026892482C68824218BF9A4200F156
:10355800180029680CBF01230023824208BF43F0EA
:1035680001031830824208BF43F001031830824239
:1035780008BF43F001031830824208BF43F001033B
:103588001830824208BF43F001031830824208BF56
:1035980043F0010300F55670824208BF43F001036F
:1035A8001830824208BF43F001031830824208BF36
:1035B80043F001031830824208BF43F0010318307A
:1035C800824208BF43F001031830824208BF43F02B
:1035D80001031830824208BF43F001031BB96D4B49
:1035E8009A4240F02F81FB6D082103F01F03994098
:1035F80021420BD01068400708D5106820F004005D
:103608001060A960796D41F00101796524FA03F130
:10361800C80709D55169090606D501219940A9604D
:10362800796D41F00201796504219940214207D062
:103638001068800704D5A960796D41F004017965A7
:1036480010219940214200F0B0801068000740F135
:10365800AC80A960116811F4802F116840F09E8039
:10366800C90503D4116821F008011160396C0029DB
:1036780000F09B8038468847FB6D202103F01F032C
:103688009940214253D03A684048414CA24218BF61
:10369800824204F118040CBF01200020A24208BF96
:1036A80040F001001834A24208BF40F0010018346D
:1036B800A24208BF40F001001834A24208BF40F0FF
:1036C80001001834A24208BF40F001001834A24299
:1036D80008BF40F0010004F55674A24208BF40F04C
:1036E80001001834A24208BF40F001001834A24279
:1036F80008BF40F001001834A24208BF40F00100A2
:103708001834A24208BF40F001001834A24208BF92
:1037180040F001001834A24208BF40F00100002820
:1037280047D11C48824244D01068800744D47B6D3E
:10373800002B70D07B6DDC071ED53A68042187F812
:10374800351015491368A1FB066123F00103890AA6
:10375800136002E01368D80704D5019B01338B423C
:103768000193F7D9002387F834301368DB074CBF7F
:103778000323012387F83530FB6C002B4BD03846E8
:1037880003B0BDE8F0401847500000241000024084
:1037980028000240B8040240B5814E1B08037FF59B
:1037A80065AFB96C00297FF465AF202199400C42C0
:1037B800BDD01068C406BAD5A96097F83510042999
:1037C8000ED0136813F4802F136826D01D0331D54B
:1037D800FB6B002BABD0384698477B6DDBB1A9E774
:1037E800116821F016011160516921F080015161C1
:1037F800396C19B3116821F0080111603F220021CA
:1038080002FA03F30122AB603B6D87F8341087F8A6
:103818003520002BB3D103B0F0BD13F48073D7D19A
:10382800116821F010011160012287F8343087F8FF
:103838003520CDE77B6C002BCDD178E7B96C00291A
:10384800D8D1DBE7404B4148824218BF9A4200F189
:1038580014000CBF01230023824208BF43F0010378
:103868001430824208BF43F001031430824208BF7B
:1038780043F001031430824208BF43F001031430BF
:10388800824208BF43F0010313B9314B9A42C2D1B7
:10389800F86D0424136800F01F0084400C420BD01C
:1038A8005E0709D519046C6032D5DA0336D4BB6CCF
:1038B800002B7FF464AFAEE7022484400C420BD0A7
:1038C8009E0709D519046C602DD5DA0337D47B6CB3
:1038D800002B7FF454AF9EE7082484400C429AD012
:1038E8001B0798D51368002123F00E0313600123EA
:1038F800FA6C03FA00F068607B6587F8341087F883
:103908003530002A87D0384603B0BDE8F04010476C
:103918009B0603D4136823F0040313603B6C002B4D
:103928007FF42DAF77E713F0200308D11168012049
:1039380021F00A01116087F8343087F83500FB6BF5
:10394800002B7FF41CAF66E7085402581C54025839
:1039580094540258406D70470B68002B00F0ED81BD
:10396800824A90424FF000022DE9F04F85B000F0F6
:10397800F8804FF001084FF0B04E42E04FEAD20C09
:1039880002F007050F694FF00F0A00EB8C0CAD0031
:10399800DCF82090AF400AFA05F529EA05054FF052
:1039A80003092F4304F00305CCF820705700D0F822
:1039B80000C009FA07F9BD402CEA090C6FEA090BA7
:1039C80045EA0C0505608D6805FA07FCD0F80890F3
:1039D8002409CD6809EA0B09944005FA07F747EA74
:1039E80009078760476827EA060634434460C468C5
:1039F80004EA0B0444EA0C04C460013233FA02F40A
:103A080079D008FA02F616EA0309F6D04C6824F0D1
:103A18001005022DB2D057004FF0030C05F1FF3A04
:103A2800D0F800B00CFA07FC04F00305BAF1010F56
:103A38002BEA0C0B05FA07F545EA0B056FEA0C0BA8
:103A480005608D6805FA07FCC0D9C6680BEA06054B
:103A580045EA0C05C560E500CFD5454E22F00307C1
:103A68004FF00F0CD6F8F45007F1B04745F00205B7
:103A780007F58067C6F8F450D6F8F45002F003064C
:103A880005F00205B60003950CFA06FC039DBD6817
:103A980025EA0C0A374DA8425ED0374DA8422DD0F2
:103AA800DFF8D8C0604500F04281DFF8D4C0604537
:103AB80000F04481DFF8CCC0604500F03181DFF8C8
:103AC800C8C0604500F04181DFF8C0C0604500F023
:103AD8004381DFF8BCC0604500F04581DFF8B4C021
:103AE80060450CBF4FF0090C4FF00A0C0CFA06F6B3
:103AF8004AEA060508E005B0BDE8F08F4FF0020C71
:103B08000CFA06F64AEA0605BD606FEA0906DEF811
:103B18008050E70354BF354049EA0505A703CEF8AE
:103B28008050DEF8845054BF354049EA0505E70265
:103B3800CEF88450DEF8005054BF354049EA0505F8
:103B4800A402CEF80050DEF8045054BF354049EACC
:103B58000505CEF8045050E708FA06F64AEA0605C5
:103B6800D2E7DFF80CB04FF0B0467BE00000025817
:103B7800004402580004025800080258000C025879
:103B8800001002580014025800180258001C02586D
:103B980000200258002402580CF1FF374FEA420E69
:103BA800D0F800A004F003080197032708FA0EF8DC
:103BB80007FA0EFC2AEA0C0A6FEA0C0C48EA0A0813
:103BC800C0F800808F6807FA0EF8019F012F40F2B5
:103BD8008180C56805EA0C0545EA0805C560E50069
:103BE8003BD5DBF8F45022F0030C0F2745F0020513
:103BF8000CF1B04CCBF8F4500CF5806CDBF8F450B9
:103C080005F002050395039D02F00305DCF808E0C2
:103C1800AD0007FA05F5E7032EEA0505CCF80850CC
:103C28006FEA090CD6F8805077D405EA0C05A7038B
:103C3800C6F88050D6F884506CD40CEA0505E70223
:103C4800C6F88450356862D40CEA0505A7023560C9
:103C5800756859D40CEA05057560013233FA02F427
:103C68003FF449AF012404FA02F513EA0509F4D038
:103C78004C6824F0100CBCF1020F8DD102F0070C37
:103C88000F694FEAD20E4FEA8C0C00EB8E0E07FA42
:103C98000CF90F27DEF8208007FA0CFC032728EA26
:103CA8000C0849EA0808CEF820804FEA420ED0F8FE
:103CB800009004F0030807FA0EFC08FA0EF829EA47
:103CC8000C096FEA0C0C48EA0908C0F800808F68F4
:103CD80007FA0EF8D0F808902409CF6809EA0C0909
:103CE800944007FA0EFE4EEA090EC0F808E0D0F834
:103CF80004E02EEA05052C434460C46804EA0C0479
:103D080044EA0804C460A8E749EA0505A4E749EAC3
:103D180005059BE749EA050591E745EA090586E7B0
:103D28004FF0050C0CFA06F64AEA0605ECE6032500
:103D380005FA06F64AEA0605E6E670474FF0040C6F
:103D48000CFA06F64AEA0605DEE64FF0060C0CFA0F
:103D580006F64AEA0605D7E64FF0070C0CFA06F60F
:103D68004AEA0605D0E64FF0080C0CFA06F64AEACD
:103D78000605C9E6002900F00881894B98422DE91B
:103D8800F04F00F09A8000234FF001084FF00F0A1F
:103D98004FF0B04708FA03F212EA010E77D023F089
:103DA800030603F003047F4D06F1B046E400A84281
:103DB8000AFA04F9D6F808C406F5806609EA0C0C74
:103DC80027D0794DA8426ED0784DA84270D0784D52
:103DD800A84263D0DFF8E0B1584500F0D180DFF8A1
:103DE800DCB1584500F0D280DFF8D4B1584500F076
:103DF800C280DFF8D0B1584500F0CD80DFF8C8B1F7
:103E080058450CBF4FF0090B4FF00A0B0BFA04F49E
:103E180001E008FA04F4A44517D1B46824EA0904B7
:103E2800B460D7F8804024EA0E04C7F88040D7F879
:103E3800844024EA0E04C7F884403C6824EA0E044F
:103E48003C607C6824EA0E047C6003245E004FEA30
:103E5800D30C04FA06F6046800EB8C0C34430460B7
:103E680003F00704DCF820E0A4000AFA04F42EEAC0
:103E78000404CCF82040846824EA0604846044687A
:103E880024EA02024260C26822EA0602C2600133E2
:103E980031FA03F27FF47EAFBDE8F08F4FF0040BE8
:103EA8000BFA04F4B7E74FF0020B0BFA04F4B2E78D
:103EB8004FF0030B0BFA04F4ADE700224FF0010CAE
:103EC8003C4C0F264FF0B0474FF0030E02F00303AF
:103ED8000CFA02F522F00308DB0011EA0509A044F8
:103EE80006FA03F341D0D8F808A013EA0A0F19D14B
:103EF800D8F808A02AEA0303C8F80830D7F88030B1
:103F080023EA0903C7F88030D7F8843023EA090385
:103F1800C7F884303B6823EA09033B607B6823EADF
:103F280009037B604FEA420803684FEAD2090EFA98
:103F380008F800EB890948EA0303036002F0070365
:103F4800D9F820A09B0006FA03F32AEA0303C9F86C
:103F58002030836823EA08038360436823EA050363
:103F68004360C36823EA0803C360013231FA02F3ED
:103F7800ACD1BDE8F08F4FF0070B0BFA04F44AE719
:103F88004FF0050B0BFA04F445E770474FF0060BAA
:103F98000BFA04F43FE74FF0080B0BFA04F43AE786
:103FA800000002580004025800080258000C025889
:103FB8000010025800040058001402580018025853
:103FC800001C0258002002580024025803691940B6
:103FD800081E18BF0120704702B9090481617047A3
:103FE8002DE9F04F056885B00446284605F042F8EB
:103FF800012802D005B0BDE8F08F206804F0EAFF80
:104008000028F7D0206804F0E5FF8202236802D573
:104018004FF400125A61184604F0DCFFC702236807
:1040280002D54FF480125A61184604F0D3FF4601B6
:10403800236802D54FF080625A61184604F0CAFF1F
:104048008007236832D4184604F0C4FF810000F1C9
:104058000981206804F0BEFFC201266800F1C4800F
:10406800304604F0B7FF070700F1B280206804F07B
:10407800B1FF034620689E011BD404F0ABFFC306C2
:10408800B8D52568AB6923F01003AB612E6A06F436
:10409800F011C6F30A17B1F5802F02D1002F40F0B6
:1040A800DA81AB6943F01003AB61A3E702225A61DE
:1040B800C9E705F047F8A2688146002A00F08F801A
:1040C80005F5A0650026206840E05A075BD5042363
:1040D800BB60FB6843F00203FB60BB689B0500F113
:1040E8002781B96811F0010100F0CE8023694BB136
:1040F80008EB8802396904EBC202C1F31201936C20
:104108005B1AD3644FEA88030122002003EB0801FD
:1041180004EBC101886581F85D20BA6091F83F0021
:1041280010F0FD0F00F08A81032800F042829844C5
:1041380004EBC80898F8503083F0010388F8503031
:10414800A268206801362035964249D206F00F034E
:1041580029FA03F3D907F5D55FFA86F82B6800F535
:10416800A06A13F4004F4FEA481B0AEB4817BB68D4
:10417800ABD113F004030DD00423BB60FB6843F0FC
:104188000203FB60DEE7BB689B0640F11581202334
:10419800BB60A2E7B96811F0200C00F0D78008EBEB
:1041A800880C202104EBCC0CB9609CF83D10012947
:1041B800C8D18CF83D30022341468CF85C30FB684E
:1041C80043F00203FB6004F0C1FFA2682068B9E76E
:1041D8002046FEF70DFB08232068436147E7206867
:1041E8004FF00073436148E7D6F8403406F5886716
:1041F8000293D6F840340393039B23F02E030393D2
:10420800029B9B0707D5029BD80700F15681039BA9
:1042180043F002030393029B190718D5039B43F04D
:1042280008030393029B5A0740F16781A169022999
:1042380000F09D81E368012B03D14EF66023C6F898
:1042480004342046FEF7E2FA2046FEF7D5FA26683F
:10425800029B9B0603D5039B43F020030393039B18
:104268003B60FDE6D5F84034204623F02E03C5F820
:104278004034FEF7C5FA0121206804F041FF4FF0F1
:10428800005320684361E5E6BB68980740F1B080B9
:10429800FB6823F00203FB6008EB880304EBC3030D
:1042A80093F85D204FEA8803501E072827D8DFE8D7
:1042B80000F0382633262C04260403EB080204EB0E
:1042C800C202926D0132032A00F2078211460222CD
:1042D800434404EBC303996583F85C205AF80B3018
:1042E80023F0804343F000434AF80B300223204672
:1042F8004146BB60FEF788FAA268206822E743447B
:1043080004EBC30393F85C20F0E74344052104EB76
:10431800C30383F85C10E9E74344022204EBC303B8
:10432800DAE74344012104EBC30383F85C10DDE7BB
:10433800FB684146206843F00203FB6004F006FF77
:104348004FF400732068BB60A268FBE6BB685B069D
:1043580000F1BB80BB6813F4007340F00281B968B8
:10436800C90700F13581BB6813F0080340F0A2814A
:10437800B968C90640F1418108EB880204EBC20222
:104388009365032382F85D3092F83D3043B92823C2
:1043980003FB084393F83C2012B9012283F83D201F
:1043A800FB68414643F00203FB6004F0CFFE102394
:1043B8002068BB60A268C5E6BB68190700F1AA803F
:1043C800BB685A057FF589AEFB68414643F0020396
:1043D800FB6004F0BBFE102208EB8803BA600822D9
:1043E80004EBC30383F85D204FF48063BB6074E67D
:1043F800BB6813F0800340F0C580BA68D20640F16C
:10440800AD8008EB880104EBC10191F83F20032A35
:1044180000F0658112F0FD02C9D123698A65002B7D
:10442800C5D128230322414603FB084383F85D20B6
:10443800FB68206843F00203FB60B6E7FA68414670
:10444800206842F002020193FA6004F07FFE102215
:10445800019BBA606BE606F00F0606EB860804EBD4
:10446800C808D8F8441000293FF41BAE3A4628463D
:1044780004F026FD05F5A061D8F8443001EB46129A
:1044880025683B441069D8F84C20C8F844307301BB
:104498003A44C8F84C20AD4A0240002A3FF401AE25
:1044A800CA5822F0804242F00042CA5098F8503070
:1044B80083F0010388F85030F3E5B369204623F010
:1044C8000053B361FEF798F9A1E608EB88030422CC
:1044D800414604EBC30383F85D200122C3F858C0AA
:1044E80083F83D20FB6843F00203FB6004F02EFED6
:1044F80040232068BB60A26824E62046FEF78AF9BC
:104508003B68266823F02E033B60B36943F00053F1
:10451800B3619DE6FB680522414643F00203FB6058
:1045280008EB880304EBC30383F85D201023BB600A
:104538000823BB6004F00AFECFE52823022203FB10
:10454800084383F85C20282302224146204603FBC7
:104558000843BA6093F85C20FEF756F9A268206811
:10456800F0E5FB68414643F00203FB60E6E6029B88
:10457800206803F4C023B3F5802F18BF012104F08D
:10458800BFFD5EE6FA6808EB8803414604EBC30307
:1045980042F00202FA609A6D01329A65062283F8A7
:1045A8005D20206804F0D2FD80232068BB60A268EB
:1045B800C8E55AF80B00019340F000504AF80B0088
:1045C800204681F85C204146FEF71EF9019BAEE5C6
:1045D800FA68414642F0020C08EB880204EBC20874
:1045E800C8F85830C7F80CC004F0B0FD0123BB6010
:1045F80088F85D30A2682068A4E5BB681B067BD4F8
:10460800BB6813F4806340F08980B96889077FF537
:1046180099ADFA6822F00202FA60282202FB0842E9
:1046280092F85D20013A072A8DD801A151F822F0AD
:10463800974600084F4500084345000843450008D1
:1046480059460008674600084F45000867460008B5
:104658002823052203FB084383F85C2073E72822FC
:1046680002FB0842926D0132032A6CD813460221DC
:10467800282202FB084282F85C1093655AF80B3036
:1046880023F0804343F000434AF80B305BE72823CC
:10469800012203FB084383F85C2093F83F20023A89
:1046A800012A3FF650AF93F8512082F0010283F8B7
:1046B800512048E70823414608EB8808BB60FB689F
:1046C80043F00203FB6004F041FD052204EBC8033C
:1046D80083F85D20A268206834E50422F8E5FA68CA
:1046E8002821206801FB084142F002028B654146FF
:1046F800FA6004F02BFD5AE6FB68414643F00203DA
:10470800FB6004F023FD2823062203FB084383F8FB
:104718005D2080232068BB60A26813E5FB684146E2
:1047280043F00203FB6004F011FD10222823BA6055
:104738004FF4806203FB0843BA60082283F85D20C7
:10474800A2682068FEE4042192E700BF0000F81F79
:1047580090F8B832012B0CD0012310B5044600683C
:1047680084F8B83204F052FD0023184684F8B832B1
:1047780010BD0220704700BF2DE9F0410546481CD6
:1047880030D12C68A36999072AD4A369DA06F9D528
:10479800A3699B06FCD520231022E261E361A3698B
:1047A8009E0701D50023A362A369D80713D56368C0
:1047B8002021234A1340002263606B6C43F00403FA
:1047C8006B6485F8411085F842200023012085F8A4
:1047D8004030BDE8F081A36943F00103A361E6E737
:1047E8000020F6E70E4617462C68A3699907F7D408
:1047F800A369DA0613D5A369B6FA86F89B064FEAC9
:104808005818C8D4FEF732F9C01B86420ED3B8F147
:10481800000F0BD12C68A3699B06F3D5BBE7FEF705
:1048280025F9C31BB34201D8002EDDD16B6C2021C2
:1048380000220B436B6485F8411085F84220C4E7D9
:1048480000E800FE70B504460D46164623689969CF
:104858008A0647D49969CA062ED5681C0AD09A696F
:1048680092060AD4FEF702F9801B85422BD355B372
:104878002368F4E79A699106FCD520221021D961B2
:10488800DA619A69900701D500229A629A69D1077C
:1048980023D55A682021144802405A600022636CCC
:1048A80043F00403636484F8411084F84220002331
:1048B800012084F8403070BDFEF7D8F8801BA8426C
:1048C80001D8002DC2D1636C202100220B43636400
:1048D80084F8411084F84220E9E79A6942F001021D
:1048E8009A61D6E7002070BD00E800FE70B5044666
:1048F8000D46164623689A69520753D4986910F0F2
:1049080010002FD0681C0BD09A6992060BD4FEF7C2
:10491800ADF8801B85423BD3002D39D02368F3E7DF
:104928009A699106FCD520221021D961DA619A6929
:10493800900701D500229A629A69D10723D55A684F
:104948002021234802405A600022636C43F004038C
:10495800636484F8411084F842200023012084F81D
:10496800403070BD9A6992061ED4FEF77FF8801B0E
:10497800A84201D8002DBDD1636C20221343636483
:1049880084F84120E9E79A6942F001029A61D6E782
:10499800636C202100220B43636484F8411084F87F
:1049A8004220DAE7002070BD9A69510702D5228DAE
:1049B800002AD6D12020064D0021D8615A682A4005
:1049C8005A60616484F8410084F84210C5E700BF6A
:1049D80000E800FE00284ED010B590F8413004469B
:1049E80003F0FF02002B41D023682421626884F879
:1049F8004110196822F07062E06821F00101012875
:104A080019601A619A68A16822F400429A6029D054
:104A180041F404410228996002D14FF400625A60BF
:104A280058684FF0200C1549226901435960D9682C
:104A380021F40041D960D4E90501024342EA012288
:104A4800D4E90710DA60002201431046196019689A
:104A580041F001011960626484F841C0226384F85E
:104A6800422010BD41F400419960D9E780F8402008
:104A7800FCF72CFBB8E70120704700BF008000025C
:104A88002DE9F843984690F84130089E202B40F0D5
:104A98008F8090F840300446012B00F08980012374
:104AA8000F46914680F84030FDF7E0FF054604E0E8
:104AB800FDF7DCFF401B19287DD82368986910F49E
:104AC8000040F5D12122C7F30907C4F8249084F8DF
:104AD80041201022606384F842206064A4F82A8090
:104AE800628D92B2FF2A7BD8628D494892B259688A
:104AF8002285D2B2014047EA02420A43454911439E
:104B08005960638D2A46314620469BB2002B3ED021
:104B1800FFF732FE002859D1616A226811F8010BAB
:104B2800238D9062B4F82AC0013B61620CF1FF3C0E
:104B38009BB21FFA8CFC2385A4F82AC0618D89B228
:104B4800002BDED10029DCD0701C42D093691B06F3
:104B580009D4FDF78BFF401B86422CD35EB3226835
:104B680093691B06F5D5638D9BB2FF2B42D9536819
:104B7800204629490B4029493B431943FF232385F4
:104B880051602A46638D31469BB2002BC0D1FFF796
:104B980059FED8B923682021214DD9615A682A4085
:104BA8005A6084F8411084F8400084F8420000E01C
:104BB8000220BDE8F883636C202100220B4384F8AF
:104BC8004020636484F8411084F842200120BDE845
:104BD800F88393691906C6D493691906C3D4F8E70C
:104BE8005A680B490A400F493A431143FF2222856C
:104BF800596086E7638D08489BB2D9B2238553680C
:104C080003403B4343EA014343F00073536078E7B2
:104C1800009800FC00200082009C00FC0000FF01BE
:104C280000E800FE0020FF812DE9F843984690F83F
:104C38004130089E202B40F0888090F84030044690
:104C4800012B00F0828001230F46914680F8403006
:104C5800FDF70CFF054605E0FDF708FF401B192886
:104C680000F281802368986910F40040F4D1222270
:104C7800C7F30907C4F8249084F841201022606320
:104C880084F842206064A4F82A80628D92B2FF2AD8
:104C980077D8628D474892B259682285D2B20140CE
:104CA80047EA02420A43444911435960638D2A4640
:104CB800314620469BB2002B36D0FFF717FE00285E
:104CC8005CD12268636A526A1A70B4F82AC0238DCC
:104CD800626A0CF1FF3C013B01321FFA8CFC9BB26B
:104CE8006262A4F82AC0628D238592B2002BDDD1BE
:104CF800002ADBD0701C2BD1226893691906FCD5D9
:104D0800638D9BB2FF2B46D9536820462B490B4035
:104D18002B493B431943FF23238551602A46638D62
:104D280031469BB2002BC8D1FFF78CFD30BB2368FE
:104D38002021244DD9615A682A405A6084F84110CC
:104D480084F8400084F8420000E00220BDE8F883BF
:104D5800226893691B06D3D4FDF788FE401B864260
:104D680001D3002EF4D1636C202100220B4384F878
:104D78004020636484F8411084F842200120BDE893
:104D8800F8835A680B490A400F493A431143FF22F6
:104D9800228559608AE7638D08489BB2D9B223857A
:104DA800536803403B4343EA014343F000735360B5
:104DB8007CE700BF009800FC00240082009C00FCF7
:104DC8000000FF0100E800FE0024FF812DE9F84300
:104DD8001D4690F84130202B40F0B28004460E4624
:104DE800002900F0A780B2FA82F817464FEA58184F
:104DF800002A00F09F805FFA83F990F84030012B79
:104E080000F09E80012380F84030FDF72FFE2168D6
:104E1800212366620646681C84F8413084F8429073
:104E2800C4F8448067854B68C4F8348023F4004391
:104E38004B601BD08B691F0700F19680FDF716FEAB
:104E4800801B2168854201D3002DF3D1636C20209B
:104E58000022034384F84020636484F8410084F806
:104E680042204B6843F400434B6066E08B691A07A5
:104E780055D48A691307FCD50823CB61E368022B54
:104E880052D08B69DB03FCD5638D9BB2C3B132462C
:104E980029462046FFF770FC226800283AD1636A49
:104EA80013F8011B9162B4F82AC063620CF1FF3C4D
:104EB8001FFA8CFCA4F82AC0638D9BB2002BE6D1A4
:104EC800324629462046FFF7BDFC226840B15368A8
:104ED80043F400435360636C042B2ED100236364B6
:104EE8002023681CD3612ED093691B042ED5FDF7AF
:104EF800BDFD831B22689D4201D3002DF4D1636C54
:104F080020200021034384F84010636484F84100A2
:104F180084F84210536843F4004353600DE00823BB
:104F2800CB61E368022BACD18B691807FCD5082349
:104F3800CB61A6E74FF4007363640120BDE8F883F2
:104F48000220BDE8F88393691904FCD45168002352
:104F5800202041F40041516084F84100184684F84B
:104F6800423084F84030E9E70823CB61E368022B3C
:104F780011D1B5FA85F77F098B691A0709D4FDF7AE
:104F880075FD831B21689D42FFF460AF002FF3D0AD
:104F98005CE70823CB618B69DF038DD4FDF766FDE1
:104FA800831B21689D42FFF451AF002DF3D14DE7DB
:104FB8002DE9F8431D4690F84130202B4AD104468C
:104FC8000E4600293FD0B2FA82F817464FEA581821
:104FD800002A38D05FFA83F990F84030012B39D095
:104FE800012380F84030FDF741FD216822236662E5
:104FF800C4F83480064684F8413084F84290C4F8F6
:10500800448067854B6823F400434B606B1C25D0B4
:105018008B691A0756D4FDF729FD801B2168854244
:1050280001D3002DF4D1636C20200022034384F8BF
:105038004020636484F8410084F842204B6843F4BC
:1050480000434B6002E04FF4007363640127384665
:10505800BDE8F88302273846BDE8F8838B691F0747
:1050680002D48A691007FCD50823CB618B69DB035E
:10507800FCD4638D9BB2C3B1324629462046FFF764
:1050880035FC236860BB5A6A636A1A70B4F82AC090
:10509800636A0CF1FF3C01331FFA8CFC6362A4F8CD
:1050A8002AC0638D9BB2002BE6D1324629462046A2
:1050B800FFF7C8FB2268074620B3536843F4004350
:1050C8005360C3E70823CB618B69DF03E9D5FDF79C
:1050D800CDFC831B21689D42A5D3002DF4D1A2E706
:1050E8005A6842F400425A609A695507AED55A6A1E
:1050F800636A1A70638D626A013B01329BB2626215
:105108006385A3E72023681CD36116D093691B0429
:1051180016D5FDF7ABFC831B22689D4201D3002DF9
:10512800F4D1636C20200021034384F840106364A9
:1051380084F8410084F84210BFE793691904FCD44D
:1051480053680021202043F40043536084F8410051
:1051580084F8401084F8421079E700BF0268436B76
:105168009169126803B11847704700BF90F8410071
:10517800704700BF90F84120202A23D15FFA82FCB3
:1051880090F840200346012A1CD00268242000B56C
:1051980083F841004FF0000E106820F00100106005
:1051A800106820F480501060106801437046116048
:1051B800116841F00101116083F841C083F840E0B3
:1051C8005DF804FB0220704790F84120202A22D184
:1051D800034600B55FFA82FE90F84020012A1CD0F1
:1051E800026824204FF0000C83F84100106820F07A
:1051F80001001060106820F4706040EA01216046E8
:105208001160116841F00101116083F841E083F8F1
:1052180040C05DF804FB0220704702205DF804FBE3
:105228002DE9F04FD0F800A089B00446504603F0AD
:1052380021FF039010B109B0BDE8F08F206803F09A
:10524800C9FE0028F7D0206803F0C4FE870723684A
:1052580003D55A6902F002025A61184603F0BAFEF1
:10526800060300F15C814FF0000B206803F0B2FEEA
:1052780010F4802F206840F0F08003F0ABFE002887
:1052880078DB206803F0A6FE030568D4206803F0E5
:10529800A1FE060114D52268536903F00063536127
:1052A80094F8F433002B40F0DC810121204684F887
:1052B800F413536DC3F38303C4F8F83300F048FCC8
:1052C800206803F087FE03462068DD047DD403F0E0
:1052D80081FE03462068990460D403F07BFEC20671
:1052E800236815D59A6922F010029A61DAF82050DD
:1052F80005F4F01205F00F06B2F5802F00F04D828C
:10530800B2F5402F00F0C2819A6942F010029A610A
:10531800184603F05FFE070700F16881206803F074
:1053280059FEC60200F15781206803F053FE85023A
:1053380000F14681206803F04DFE400000F13781FE
:10534800206803F047FE41077FF575AF23685D6865
:105358006A0700F143825A682A435A606BE7DAF811
:105368000838DF0700F136822068436903F40063D8
:1053780043618CE7DAF8043823F00103CAF80438EB
:1053880094F8F433012B00F07A812046FDF7BEF93A
:105398002068436903F00043436173E703F06EFE3E
:1053A800206803F09BFB2568E06001F04DFD227B3F
:1053B8000146284603F0F6FA2046FDF77DF92068F5
:1053C800436903F40053436187E7DAF8043810218E
:1053D8000AF5006623F00103CAF8043803F064FBF9
:1053E8006068B0B10AF510634FF67F31039D99608C
:1053F80001351A682033854222F4001243F8202C24
:10540800C3F8E811D3F8E02122F40012C3F8E02130
:10541800EDD1F36943F00113F361236B002B00F026
:105428002481D6F8843043F00B03C6F88430736CBB
:1054380043F00B037364DAF8003804F57172217CC9
:1054480023F4FE632068CAF8003803F031FE2068B0
:10545800436903F48053436139E703F0D3FD83467E
:10546800002800F02681804627460AF510690026A4
:105478002068554618F0010F08D14FEA5808013640
:105488001C3709F1200918F0010FF6D05FFA86FAE7
:10549800514603F0D3FD0346D8071FD5012006F077
:1054A8000F01D5F8342800FA01F122EA0102C5F803
:1054B80034282269C9F80800824203D1D7E91112B9
:1054C8000A44BA64514620460493FDF7E7F8226976
:1054D800049B012A02D1002E00F0D581190702D5BC
:1054E8000822C9F80820DA0602D51022C9F80820CF
:1054F800580602D54022C9F80820990702D5022289
:10550800C9F808201A0600F1E28020685FEA580806
:1055180000F0D18001361C3709F12009AAE720687C
:1055280003F062FD054600283FF49DAE06460AF5E5
:10553800306BA1464FF0000820680595F50708D4A0
:10554800760808F101080BF1200B09F11C09F50791
:10555800F6D55FFA88F1049103F062FD10F0010FAF
:10556800074600F00803049949D1002B40F0028156
:105578002068FA0602D51023CBF80830BB0606D5FA
:105588002169012900F079812023CBF80830BD0476
:1055980003D54FF40053CBF80830760800F091801B
:1055A80008F101080BF1200B09F11C09C6E7204698
:1055B800FDF7B8F82068436903F080434361C0E60B
:1055C80020465FFA8BF1FDF7A5F82068436903F4DC
:1055D80000134361AFE620465FFA8BF1FDF79EF8B2
:1055E8002068436903F4801343619EE62046FDF773
:1055F8005FF82068436903F0080343618FE6206879
:1056080001222569CBF8082000F53062012DD0F879
:1056180040E002EB4812D2F808C0049200F006817C
:10562800AB4A964540F0F2801CF4004F00F0E88049
:105638004FF4004204998A60002B9AD0036C896861
:10564800A34A934200F0E88020460493FDF716F839
:10565800A04A049B934200F2C9800823CBF8083083
:1056680086E72046FDF73AF82AE6726942F22B03EC
:1056780013437361336943F00B033361DBE60021A5
:10568800204684F8F41300F063FA81E6C6EBC606F8
:10569800082204F57171504603F012FCC5F30A1292
:1056A80004EB8601D1F814321A442368C1F8142295
:1056B8002AE62068E1E5BBFA8BF3AA46C3F1200B82
:1056C800DBE5059DB5FA85F9C9F1200BCEE5D7E9EB
:1056D800143220689A423FF619AFA3EB020C796C9A
:1056E80007908C4528BF8C4600F5106101EB4611E8
:1056F8000CF1030CD1F818E01FFA8EFEBEEB9C0FDC
:10570800C0F0B780CDF818808846CDE904B51D46AD
:1057180083461AE07B6C524658469D4228BF1D4678
:10572800237C0093ABB2B96C03F0B4FB7A6DBB6C0D
:10573800E81C2A442B443D6D7A65D8F81810BB64E0
:1057480089B2B1EB900FC0F08D809542A5EB0205B0
:10575800E0D8DDE904B5DDF818802068079B06F07D
:105768000F0201219140D3F8342822EA0102C3F83C
:105778003428CBE62368226903F530611B6C012AC3
:1057880001EB4811049189687FF45AAF514A93425A
:1057980042D82046FCF772FF5FE747F6F0721542E1
:1057A8003FF4B2ADC6EBC606C5F30A12504604EB89
:1057B80086061546D6F8081203F082FBD6F808329A
:1057C8002B44C6F80832D6F814321D442368C6F8AC
:1057D800145299E52046FCF781FFC5E52046FCF701
:1057E800A5FF2368B7E52046FCF748FF2169012992
:1057F8007FF433AF04F57172206803F059FC2CE78D
:105808001CF0200F02D020220498826020460493C6
:10581800FCF73AFF049BA8E60904E4D54FF40043DB
:10582800049A20469360FCF729FFDFE71CF0080F75
:1058380035D0284A964506D91CF4004F03D04FF4BA
:10584800004204998A6020460693FCF717FF04F586
:1058580071720121206803F02BFC049B08229A60D6
:10586800069B82E62B46DDF810B0DDF81880059D12
:10587800206893423FF64AAE70E704F5717203F070
:1058880017FC206880E6226D002A7FF427AE04F515
:1058980071720121206803F00BFC049B1EE61CF0CA
:1058A800200F09D0202204998A60002B3FF461AEB2
:1058B800049A036C916869E7064A96450CD91CF46A
:1058C800004F09D04FF4004204998A60EDE700BF09
:1058D8000A31544F0A30544F0693049BD9F80402F6
:1058E8001A69C2F31202821AC9F81422D9F80822D6
:1058F80002442046C9F80822FCF7C6FE069BB8F108
:10590800000F7FF432AED4F81022002A7FF42DAEB7
:1059180004F5717201212068049303F0C9FB049B0C
:1059280023E600BF90F8BC23012A0ED0012210B54F
:105938000446006884F8381084F8BC2303F038FB68
:105948000023184684F8BC3310BD0220704700BFFE
:1059580001F00F0C090610B50446CCEBCC004FEA59
:10596800800022D400F5FE714FF0000E204421443F
:1059780080F8FDE18A604A7881F800C0CB700AB1EE
:10598800A1F806C0022B01D100230B7194F8BC3397
:10599800012B13D00123206884F8BC3303F0B0F83E
:1059A8000023184684F8BC3310BD00F13C014FF0C9
:1059B800010E2044214480F83DE0DBE7022010BDC1
:1059C80010B501F00F040021C4EBC40C4FEA8C0C95
:1059D80000EB0C0E0CF5FE7C8EF8FD118EF8FC41E8
:1059E800CEF80822CEE98431036900EB0C01006887
:1059F800012B08BFCEF80C22DAB21CB903F0CEF99D
:105A0800002010BD03F0C2F8002010BD38B501F029
:105A18000F0400250121C4EBC40C4FEA8C0C00EBE9
:105A28000C0E0CF13C0C8EF83D1000EB0C018EF8BE
:105A38003C40CEF84820CEE9143503690068012BB4
:105A480008BFCEF84C20DAB21CB903F0A7F9002041
:105A580038BD03F09BF8002038BD00BF38B5436857
:105A680001F00F059D4231D80B0604461BD4C1EB4B
:105A7800C101890001F5FE7243188118002283F8DC
:105A8800FD2101230D708B7094F8BC239A421BD022
:105A9800206884F8BC3303F027FACDB100231846F8
:105AA80084F8BC3338BDC5EBC50301229B0003F164
:105AB8003C010344014483F83D2001230D708B70A1
:105AC80094F8BC239A42E3D1022038BD012038BDA6
