:020000040800F2
:10000000000002205D0300085903000825080008CD
:1000100059030008590300085903000800000000B4
:10002000000000000000000000000000590300086C
:10003000590300080000000059030008A907000840
:100040005903000859030008590300085903000820
:100050005903000859030008590300085903000810
:100060005903000859030008590300085903000800
:1000700059030008590300085903000859030008F0
:10008000C95E000819060008590300085903000852
:1000900059030008590300085903000859030008D0
:1000A00059030008590300085903000859030008C0
:1000B000E1540008ED540008F9540008490600080E
:1000C000590300085506000859030008354F000879
:1000D000414F0008D95C0008095D0008415D000837
:1000E00059030008590300080000000059030008E4
:1000F0005903000859030008590300085903000870
:100100005903000859030008055500084D4F000821
:10011000795D0008B15D0008590300085903000823
:100120005903000859030008714F0008A54F000843
:10013000FD5E000859030008590300085903000830
:1001400000000000000000000000000000000000AF
:10015000590300085903000859030008E95D000825
:100160006106000859030008B9070008DD07000808
:100170005903000801080008590300085903000842
:100180005903000859030008215E0008595E000861
:10019000594F0008654F000859030008590300082B
:1001A00059030008590300085903000859030008BF
:1001B00059030008590300085903000859030008AF
:1001C000590300085903000859030008590300089F
:1001D000590300085903000859030008590300088F
:1001E000590300085903000859030008590300087F
:1001F000590300085903000859030008590300086F
:10020000590300085903000859030008590300085E
:10021000590300085903000859030008590300084E
:1002200059030008590300085903000800000000A2
:100230005903000859030008000000005903000892
:10024000590300085903000859030008590300081E
:10025000590300085903000859030008590300080E
:1002600059030008590300085903000859030008FE
:100270005903000859030008915E000800000000BF
:100280005903000859030008590300080000000042
:08029000000000005903000802
:1002980053B94AB9002908BF00281CBF4FF0FF31E5
:1002A8004FF0FF3000F00CB8ADF1080C6DE904CE4A
:1002B80007F088FEDDF804E0DDE9022304B07047AA
:1002C800704700BF0348044B834202D0034B03B17D
:1002D8001847704730030024300300240000000052
:1002E8000548064B1B1AD90F01EBA301491002D090
:1002F800034B03B118477047300300243003002430
:100308000000000010B5064C237843B9FFF7DAFF68
:10031800044B13B10448AFF300800123237010BDD0
:1003280030030024000000005C84000808B5054B79
:100338001BB105490548AFF30080BDE80840FFF749
:10034800CFBF00BF00000000340300245C84000815
:10035800FEE700BF0C4A0D4B934204D0D21A0C4959
:10036800184607F021FE0B4A0B4B934204D0D21AD1
:100378000021184607F0DDFD00F0D2FA07F0E2FD93
:1003880000F00EF8FEE700BF300300240000002450
:1003980084840008C828002430030024704700BF64
:1003A80010B50C4B88B010220120002100248DF8D4
:1003B80018201A889B88ADF80C20ADF80E30CDE9CE
:1003C800040102A901A8CDE9014400F04BF9204637
:1003D80008B010BDC482000810B506480024064ABB
:1003E8000649046044610462C46307F09DFD044B40
:1003F8001C6010BD5003002400000024A503000861
:100408004C03002470B5002386B0122204460393DF
:10041800CDE901230368032B01D804230493261D87
:100428000634304600F0A4FB0546304600F0A8FB31
:10043800034669462846009301F032FB204600F047
:1004480097FB034620461C4600F09AFB6946034684
:100458002046009301F024FB06B070BD634A036890
:10046800934210B58CB028D0614A934258D0614A63
:10047800934200F09480604A934201D00CB010BDC2
:100488005E4C5F48D4F8E03043F00203C4F8E03033
:10049800D4F8E03003F002030A930A9BFFF7B2FF97
:1004A800D4F8F43043F08003C4F8F430D4F8F430CE
:1004B80003F080030B930B9BE0E7504C5148D4F8B2
:1004C800E03043F00203C4F8E030D4F8E03003F041
:1004D80002030193019BFFF795FFD4F8E83000224F
:1004E8001F2043F400131146C4F8E830D4F8E8306C
:1004F80003F400130293029BD4F8D83043F00103AD
:10050800C4F8D830D4F8D83003F001030393039B20
:1005180000F0F8FB1F200CB0BDE8104000F02EBC26
:10052800364C3948D4F8E03043F08003C4F8E03062
:10053800D4F8E03003F080030493049BD4F8E0304F
:1005480043F00203C4F8E030D4F8E03003F00203CB
:100558000593059BFFF756FFD4F8E83000222120C9
:1005680043F480031146C4F8E830D4F8E83003F4C3
:1005780080030693069BD4F8D83043F00103C4F8EF
:10058800D830D4F8D83003F001030793079B00F064
:10059800B9FB21200CB0BDE8104000F0EFBB1B48B0
:1005A800FFF730FF154B00224820D3F8E8401146EA
:1005B80044F40004C3F8E840D3F8E84004F4000425
:1005C8000894089CD3F8D84044F00104C3F8D840F4
:1005D800D3F8D83003F001030993099B00F092FB8C
:1005E80048200CB0BDE8104000F0C8BB00540040E3
:1005F80000580040005C0040001C005800440258AD
:100608001C060024940300246C04002444050024E0
:1006180010B5EFF3108472B6074B1A78120602D59C
:1006280004B962B610BD1B78D820044A5BB200FB3F
:10063800032001F021F8F3E790030024A803002425
:10064800014802F05DB800BF20040024014802F010
:1006580057B800BFF8040024014802F051B800BFA1
:10066800D00500242DE9F0410F68D8253C4E84B010
:1006780007FB05F5032F06EB0503036058DCCA6882
:100688000C46012A54D84FD020689C4661684FF028
:10069800D808A2680DF1100EE36808FB0768ACE8FB
:1006A8000F00304B227C8CF80020D8F808C00FCB04
:1006B8000EE90F000EEB8703BCF1010F53F8103C55
:1006C800C8F88C3042D0BCF1020F35D0BCF1000F15
:1006D80008D100F013F9244B98420CBF234B244B4C
:1006E800C8F890308C35D823217C002203FB07639F
:1006F800012035444900C3E926022846C3F894106E
:10070800C3E92822C3E92A2201F0A4FF80B90146DF
:10071800284601F0FDFF58B90146284602F022F8A4
:10072800003818BF012004E00A7C103A672AABD9C8
:10073800012004B0BDE8F08100F0E0F80A4B9842CF
:100748000CBF0C4B0C4BC8F89030CBE700F0D6F838
:10075800054B98420CBF094B094BC8F89030C1E7CC
:1007680094030024CC820008000E27075F439060A2
:100778008A62E030200BA0101A0980102D0FB030CB
:100788003211D020044B10221A7483F8E82083F821
:10079800C02183F89822704794030024704700BF53
:1007A80008B500F09DFABDE8084000F0F7BA00BFB0
:1007B800064808B503680BB101F080FB04480368DC
:1007C8001BB1BDE8084001F0F9BF08BD000B0024CB
:1007D800F8060024064808B503680BB101F06EFB63
:1007E800044803681BB1BDE8084001F0E7BF08BD35
:1007F800000B0024F8060024064808B503680BB16E
:1008080001F05CFB044803681BB1BDE8084001F037
:10081800D5BF08BD000B0024F8060024364BDA6A61
:10082800520062D59A6A9A6A9A6A9B6A180600D533
:1008380000BE314B9B6A990600D500BE2E4B9B6AC1
:10084800DA0600D500BE2C4B9B6A1B0700D500BEFC
:10085800294B9B6A980700D500BE274B9B6AD9078E
:1008680000D500BE244B9B6A1A0400D500BE224B5B
:100878009B6A9B0400D500BE1F4B9B6AD80400D519
:1008880000BE1D4B9B6A190500D500BE1A4B9B6A1A
:100898005A0500D500BE184B9B6A9B0500D500BEC3
:1008A800154B9B6AD80500D500BE134B9B6A99016E
:1008B80000D500BE104B9B6ADA0100D500BE0E4B76
:1008C8009B6A1B0300D500BE0B4B9B6A580300D5DF
:1008D80000BE094B9B6A990300D500BE064B9B6A74
:1008E800DA0306D400BE00BEFEE7DB6A9B07FAD532
:1008F800F8E700BEF6E700BF00ED00E002F09CBCA0
:1009080010B400230348044A04495DF8044B03600B
:1009180007F00ABBF406002400000024A50700081D
:1009280010B4204C83B0204B0022D4F888001F4913
:1009380040F47000C4F8880018681D4C40F00100AD
:1009480018601A611868014019609A61DA611A62C0
:100958009A62DA621A635A639A63DA631A645A64A7
:10096800196821F4802119601A66D3F8DC2042F056
:100978006042C3F8DC20D3F8DC300193019B236884
:100988006FF30F03B3F1005F03D20A4B0122C3F8E0
:100998000821044B4FF000629A6003B05DF8044BE5
:1009A800704700BF00ED00E0004402587FEDF6EA12
:1009B8000010005C0080005100F57171D0F804044B
:1009C80003F090BBC1EBC10300EB8303D0F8040430
:1009D800D3F8082203F0B4BBC1EBC10300EB8303D7
:1009E800D0F804049A6C03F0E3BB00BFD0F8040409
:1009F80003F07EBCC16810B5044619B1022900D0C5
:100A0800FEE70121D4F8040403F05CFCD4F80404E4
:100A1800BDE8104003F02EBC10B50446D0F804041D
:100A280003F054FC2268D2F8003E43F00103C2F8F8
:100A3800003E236A23B1034A136943F00603136196
:100A480010BD00BF00ED00E0D0F8040403F048BC7E
:100A5800D0F8040403F05CBCD0F8040403F056BCDE
:100A6800D0F8040403F056BCD0F8040403F054BCD6
:100A78009446D0F898021A4608B5634602F036FA4A
:100A880018B102280CBF0120022008BD08B5D0F813
:100A9800980202F0B1FA18B102280CBF0120022016
:100AA80008BD00BF08B5D0F8980202F0E7FA18B1FF
:100AB80002280CBF0120022008BD00BF0A06D0F89A
:100AC800983206D4C1EBC10103EB810393F8FE0110
:100AD800704701F07F01C1EBC10103EB810393F87B
:100AE8003E00704708B5D0F8980202F0E9F918B14D
:100AF80002280CBF0120022008BD00BF08B5D0F8AD
:100B0800980202F051FA18B102280CBF0120022005
:100B180008BD00BF08B5D0F8980202F01FFA18B156
:100B280002280CBF0120022008BD00BFD0F8C00277
:100B380003F094BED0F8C00203F0A8BED0F8C002FB
:100B480003F0B0BE704700BFD0F8C00203F096BEF5
:100B5800D0F8C00203F096BE08B5D0F8D00301F073
:100B680065FD18B102280CBF0120022008BD00BF96
:100B7800024B027853F82200704700BF2083000818
:100B8800024B427833F81200704700BF0083000818
:100B98008CB00A2814D8DFE800F023313F4D5B6998
:100BA8007785930615004D4BD3F8E02042F4007288
:100BB800C3F8E020D3F8E03003F400730A930A9BEB
:100BC8000CB07047454BD3F8E02042F48062C3F87C
:100BD800E020D3F8E03003F480630B930B9BEFE73E
:100BE8003E4BD3F8E02042F00102C3F8E020D3F8EE
:100BF800E03003F001030193019BE1E7374BD3F8A1
:100C0800E02042F00202C3F8E020D3F8E03003F01D
:100C180002030293029BD3E7304BD3F8E02042F063
:100C28000402C3F8E020D3F8E03003F00403039390
:100C3800039BC5E7294BD3F8E02042F00802C3F82C
:100C4800E020D3F8E03003F008030493049BB7E7EF
:100C5800224BD3F8E02042F01002C3F8E020D3F88A
:100C6800E03003F010030593059BA9E71B4BD3F86D
:100C7800E02042F02002C3F8E020D3F8E03003F08F
:100C880020030693069B9BE7144BD3F8E02042F021
:100C98004002C3F8E020D3F8E03003F040030793A4
:100CA800079B8DE70D4BD3F8E02042F08002C3F894
:100CB800E020D3F8E03003F080030893089B7FE737
:100CC800064BD3F8E02042F48072C3F8E020D3F852
:100CD800E03003F480730993099B71E700440258DC
:100CE800034A044B11681B780B441360704700BF1C
:100CF800C40D00240C000024014B1868704700BF85
:100D0800C40D00241A4BDB68C3F3022300B5C3F1FA
:100D1800070E03F1040CBEF1040F28BF4FF0040EB8
:100D2800BCF1060F1AD9A3F1030C4FF0FF3303FAF5
:100D38000CF322EA03024FF0FF33002803FA0EF304
:100D480021EA030303FA0CF343EA02034FEA03130D
:100D5800DBB206DB074A13545DF804FB0022944615
:100D6800E9E700F00F00044A13545DF804FB00BFE4
:100D780000ED00E000E400E014ED00E0002807DBEF
:100D880000F01F0101234009024A8B4042F820303D
:100D9800704700BF00E100E0704700BF08B5FFF7EB
:100DA800FBFF08BD3649024603688B4233D0183131
:100DB800591AB1FA81F1490969BB3248834239D0DD
:100DC800183083423ED01830834239D018308342DD
:100DD8003BD0183083423ED0183083422FD000F5E4
:100DE8005670834235D028498B4231D018318B4216
:100DF80034D018318B4234D018318B4234D018316A
:100E08008B4234D018318B4234D018318B4234D0D5
:100E180023F0FF0011E0DBB21C491D48103BA1FB89
:100E2800031310B41B091B4CE15C5DF8044BC2E9C9
:100E38001601704710211648D16590657047162134
:100E48001548F9E716211248F6E706211248F3E794
:100E580006211248F0E710210F48EDE710210F484E
:100E6800EAE716210D48E7E700210D48E4E70621E7
:100E78000B48E1E710210A48DEE716210848DBE7BE
:100E8800100002404000024028040240ABAAAAAA6F
:100E980000000240508300080400024000040240A1
:100EA800040402400268284B284930B4284D294CD4
:100EB800AA4218BF9A420CBF012300238A4208BFE6
:100EC80043F001032831A24208BF43F0010328344C
:100ED8008A4208BF43F001032831A24208BF43F009
:100EE80001038A4208BF43F00103D1B213B91A4B78
:100EF8009A4211D1A1F10803184C194A0121A4FB07
:100F08000343184C1D0902EB1313A9409B0081668B
:100F1800C0E9183430BC7047A1F110031249134CD2
:100F28001144A4FB0343A8294FEA131308D903F07B
:100F38001F040F4A01211A44A1400E4C9300E6E712
:100F480008331C46F5E700BF0854025830540258CD
:100F58001C5402584454025894540258CDCCCCCC5A
:100F68000096001680580258F0FBFDBFABAAAAAA4B
:100F7800008200108008024070B50546FFF7BCFEED
:100F8800002D00F0A9802B6804468E4A8E498B42BA
:100F980018BF934201F118010CBF012200228B42B5
:100FA80008BF42F0010218318B4208BF42F001022B
:100FB80018318B4208BF42F0010218318B4208BF3A
:100FC80042F0010218318B4208BF42F00102183189
:100FD8008B4208BF42F0010201F556718B4208BFEF
:100FE80042F0010218318B4208BF42F00102183169
:100FF8008B4208BF42F0010218318B4208BF42F011
:10100800010218318B4208BF42F0010218318B42AD
:1010180008BF42F0010218318B4208BF42F00102BA
:101028001AB96A4A934240F0DF800222002185F80B
:10103800352085F834101A6822F001021A6005E09C
:10104800FFF75AFE031B052B41D82B681A68D107F6
:10105800F6D4D5E9022429692243A8691C680A4301
:1010680069690A43E96902430A43594921402C6ADC
:1010780022430A43696A042930D01A605A6922F067
:101088000702114359612846FFF78CFEEA6D3F239A
:1010980002F01F02934083602846FFF703FFAB6806
:1010A800A96E802BD5E918426BD06B68D8B2013B8A
:1010B800072B206051602ED90023C5E91B336B67CD
:1010C800002301226B65184685F8352070BD202263
:1010D80003236A6585F83530012070BDD5E90B41D9
:1010E80021431143AA6A1960596921F00701114384
:1010F80041F00401002CC5D0002847D1012A5BD05B
:1011080032F00202BED1E201BCD5402201236A6559
:1011180085F83530E0E72A68411E2E4B2E4CA24256
:1011280018BF9A4204F114040CBF01230023A24201
:1011380008BF43F001031434A24208BF43F001037F
:101148001434A24208BF43F001031434A24208BF7A
:1011580043F001031434A24208BF43F001031BB952
:101168001E4B9A4240F09A801D4A1E4C024492003F
:1011780001238B400021C5E91B246B671160636064
:101188009EE700236B602360516095E7B0F5005F30
:1011980004D0022AB9D9032AB5D073E7032A3FF647
:1011A80071AF01A050F822F0131100080F110008C8
:1011B80013110008C1110008B4F1C07F7FF462AFB9
:1011C800A3E700BF1000024028000240B804024014
:1011D8003F8010FE085402581C5402589454025878
:1011E8003F96001640590258334A344834498342DE
:1011F80018BF934200F128000CBF012200228B4245
:1012080008BF42F001022831834208BF42F00102C0
:1012180028308B4208BF42F001022831834208BFC0
:1012280042F001028B4208BF42F0010212B9254A7E
:1012380093423AD100200221AA6885F8340085F843
:101248003510402A1C686FF310142CD0A2F18002CC
:10125800B2FA82F252099103EE69D5E903201043EC
:101268006A691043AA691043174A30432E6A1A4420
:1012780044EA161444EAD00001431448A0FB0202D1
:101288002846196013099B00EB65FFF78BFDE96D94
:10129800012201F01F018A404260FDE60C4A0D4C14
:1012A8000244920064E71021D6E7402203236A65CE
:1012B80085F8353010E700BF085402581C5402580E
:1012C8003054025894540258F8ABFDA7CDCCCCCC7E
:1012D8003F82001040090240002800F022812DE9D9
:1012E800F04F90F8344083B0012C00F0C380012403
:1012F80080F8344090F83540012C09D000224FF492
:10130800006380F834204365012003B0BDE8F08F06
:101318000224864D864E80F835400024854F44656A
:101328000468D0F85890B44218BFAC4205F13005B3
:10133800A6F160060CBF4FF0010E4FF0000EAC4254
:1013480008BF4EF0010E05F55675AC4208BF4EF0C9
:10135800010E1835AC4208BF4EF0010E1835AC42EC
:1013680008BF4EF0010E1835AC4208BF4EF0010E12
:101378001835AC4208BF4EF0010E1835AC4208BF14
:101388004EF0010EA5F58665B44218BFAC4205F5CE
:101398008965C66E0CBF4FF001084FF00008AC42DB
:1013A80008BF4EF0010EA5F58665AC4208BF48F0AF
:1013B800010805F58965AC4208BF4EF0010EA5F598
:1013C8009265AC4218BFBC4227684EEA080C0CBFB5
:1013D8000125002527F001070195D0E919AB276001
:1013E800CAF804B002D0BCF1000F47D03EB1D0E932
:1013F8001C757D60019D15B9BCF1000F42D0C76D09
:1014080007F01F0A3F2707FA0AF7C9F80870276884
:1014180027F48027276063608368402B27D0A1606A
:10142800E260019B13B9B8F1000F76D0236823F06E
:101438001E0343F016032360036C1BB1236843F0BB
:1014480008032360036E1A68D20303D51A6842F4AE
:1014580080721A601EB1336843F480733360236866
:10146800002043F00103236003B0BDE8F08FA260C1
:10147800E160D6E7022003B0BDE8F08F16B1D0E9ED
:101488001C757D602C4FDFF8B8E0744518BFBC426E
:101498000EF1140E0CBF01270027744508BF47F052
:1014A80001070EF1140E744508BF47F001070EF14D
:1014B800140E744508BF47F001070EF1140E744569
:1014C80008BF47F001070EF1140E744508BF47F036
:1014D800010717B9194FBC420DD1C76D07F01F0E90
:1014E800012707FA0EF7C9F8047063608368402B78
:1014F80019D0A160E2602268016C22F00E02036E2E
:1015080042F00A02226000299DD0226842F00402BB
:1015180022601A68D10399D49CE7BEF1000F85D1E7
:10152800E9E701207047A260E160E4E78800024033
:10153800A000024010000240085402589454025877
:101548001C540258002860D090F83530022B5AD12C
:101558000268454B454910B5454CA24218BF9A420E
:1015680004F130040CBF012300238A4208BF43F072
:1015780001033031A24208BF43F0010330348A42EC
:1015880008BF43F001033031A24208BF43F0010312
:1015980030348A4208BF43F0010301F55C71A2426E
:1015A80008BF43F0010304F55C748A4208BF43F0A6
:1015B80001033031A24208BF43F0010330348A42AC
:1015C80008BF43F001033031A24208BF43F00103D2
:1015D80030348A4208BF43F001033031A24208BFC9
:1015E80043F001038A4208BF43F0010313B9214BBA
:1015F8009A420CD1042380F83530136823F0010394
:101608001360002010BD80234365012070471368D4
:10161800046E23F00E03C16DD0F858C0136001F0BA
:101628001F01136823F001031360012322688B4014
:1016380022F480722260CCF80430C36ED0E91921FC
:10164800516033B11A68D0E91C1422F480721A6010
:101658004C6000210122036D80F8341080F8352099
:10166800002BCED09847CCE7100002404000024043
:1016780028000240B8040240F0B50022944B83B021
:10168800856D07461E680192924B026892482C6845
:10169800824218BF9A4200F1180029680CBF012342
:1016A8000023824208BF43F001031830824208BF7A
:1016B80043F001031830824208BF43F00103183099
:1016C800824208BF43F001031830824208BF43F04A
:1016D80001031830824208BF43F0010300F5567039
:1016E800824208BF43F001031830824208BF43F02A
:1016F80001031830824208BF43F0010318308242C8
:1017080008BF43F001031830824208BF43F00103C9
:101718001830824208BF43F001031830824208BFE4
:1017280043F001031BB96D4B9A4240F02F81FB6DCA
:10173800082103F01F03994021420BD0106840078D
:1017480008D5106820F004001060A960796D41F098
:101758000101796524FA03F1C80709D55169090619
:1017680006D501219940A960796D41F0020179659A
:1017780004219940214207D01068800704D5A96048
:10178800796D41F00401796510219940214200F0FA
:10179800B0801068000740F1AC80A960116811F4AE
:1017A800802F116840F09E80C90503D4116821F08C
:1017B80008011160396C002900F09B803846884781
:1017C800FB6D202103F01F039940214253D03A6852
:1017D8004048414CA24218BF824204F118040CBF91
:1017E80001200020A24208BF40F001001834A242A4
:1017F80008BF40F001001834A24208BF40F00100C1
:101808001834A24208BF40F001001834A24208BFB1
:1018180040F001001834A24208BF40F0010004F56E
:101828005674A24208BF40F001001834A24208BF13
:1018380040F001001834A24208BF40F001001834FB
:10184800A24208BF40F001001834A24208BF40F08D
:1018580001001834A24208BF40F001001834A24227
:1018680008BF40F00100002847D11C48824244D0FC
:101878001068800744D47B6D002B70D07B6DDC072B
:101888001ED53A68042187F8351015491368A1FB5D
:10189800066123F00103890A136002E01368D80780
:1018A80004D5019B01338B420193F7D9002387F8B4
:1018B80034301368DB074CBF0323012387F8353026
:1018C800FB6C002B4BD0384603B0BDE8F0401847FE
:1018D800080000241000024028000240B80402401A
:1018E800B5814E1B08037FF565AFB96C00297FF4FD
:1018F80065AF202199400C42BDD01068C406BAD506
:10190800A96097F8351004290ED0136813F4802FB6
:10191800136826D01D0331D5FB6B002BABD038469E
:1019280098477B6DDBB1A9E7116821F016011160BA
:10193800516921F080015161396C19B3116821F0A6
:10194800080111603F22002102FA03F30122AB6073
:101958003B6D87F8341087F83520002BB3D103B0DE
:10196800F0BD13F48073D7D1116821F01001116014
:10197800012287F8343087F83520CDE77B6C002BBF
:10198800CDD178E7B96C0029D8D1DBE7404B414885
:10199800824218BF9A4200F114000CBF01230023B1
:1019A800824208BF43F001031430824208BF43F06B
:1019B80001031430824208BF43F00103143082420D
:1019C80008BF43F001031430824208BF43F001030B
:1019D80013B9314B9A42C2D1F86D0424136800F050
:1019E8001F0084400C420BD05E0709D519046C60B7
:1019F80032D5DA0336D4BB6C002B7FF464AFAEE784
:101A0800022484400C420BD09E0709D519046C604F
:101A18002DD5DA0337D47B6C002B7FF454AF9EE7C7
:101A2800082484400C429AD01B0798D513680021DB
:101A380023F00E0313600123FA6C03FA00F06860C8
:101A48007B6587F8341087F83530002A87D0384608
:101A580003B0BDE8F04010479B0603D4136823F099
:101A6800040313603B6C002B7FF42DAF77E713F072
:101A7800200308D11168012021F00A01116087F8BC
:101A8800343087F83500FB6B002B7FF41CAF66E71A
:101A9800085402581C54025894540258406D704718
:101AA8000B68002B00F0ED81824A90424FF0000253
:101AB8002DE9F04F85B000F0F8804FF001084FF0A5
:101AC800B04E42E04FEAD20C02F007050F694FF022
:101AD8000F0A00EB8C0CAD00DCF82090AF400AFA3E
:101AE80005F529EA05054FF003092F4304F003051E
:101AF800CCF820705700D0F800C009FA07F9BD40AB
:101B08002CEA090C6FEA090B45EA0C0505608D689B
:101B180005FA07FCD0F808902409CD6809EA0B09F2
:101B2800944005FA07F747EA09078760476827EAF4
:101B3800060634434460C46804EA0B0444EA0C040F
:101B4800C460013233FA02F479D008FA02F616EAD0
:101B58000309F6D04C6824F01005022DB2D05700C6
:101B68004FF0030C05F1FF3AD0F800B00CFA07FC6F
:101B780004F00305BAF1010F2BEA0C0B05FA07F57F
:101B880045EA0B056FEA0C0B05608D6805FA07FC42
:101B9800C0D9C6680BEA060545EA0C05C560E5002C
:101BA800CFD5454E22F003074FF00F0CD6F8F4506E
:101BB80007F1B04745F0020507F58067C6F8F4500D
:101BC800D6F8F45002F0030605F00205B6000395B6
:101BD8000CFA06FC039DBD6825EA0C0A374DA8429D
:101BE8005ED0374DA8422DD0DFF8D8C0604500F050
:101BF8004281DFF8D4C0604500F04481DFF8CCC0F2
:101C0800604500F03181DFF8C8C0604500F04181CF
:101C1800DFF8C0C0604500F04381DFF8BCC0604514
:101C280000F04581DFF8B4C060450CBF4FF0090CE7
:101C38004FF00A0C0CFA06F64AEA060508E005B069
:101C4800BDE8F08F4FF0020C0CFA06F64AEA0605DA
:101C5800BD606FEA0906DEF88050E70354BF3540DF
:101C680049EA0505A703CEF88050DEF8845054BF32
:101C7800354049EA0505E702CEF88450DEF8005001
:101C880054BF354049EA0505A402CEF80050DEF8F5
:101C9800045054BF354049EA0505CEF8045050E7D2
:101CA80008FA06F64AEA0605D2E7DFF80CB04FF064
:101CB800B0467BE000000258004402580004025875
:101CC80000080258000C025800100258001402586C
:101CD80000180258001C025800200258002402581C
:101CE8000CF1FF374FEA420ED0F800A004F00308C9
:101CF8000197032708FA0EF807FA0EFC2AEA0C0ADD
:101D08006FEA0C0C48EA0A08C0F800808F6807FAE6
:101D18000EF8019F012F40F28180C56805EA0C0585
:101D280045EA0805C560E5003BD5DBF8F45022F02C
:101D3800030C0F2745F002050CF1B04CCBF8F4501A
:101D48000CF5806CDBF8F45005F002050395039D53
:101D580002F00305DCF808E0AD0007FA05F5E70333
:101D68002EEA0505CCF808506FEA090CD6F8805021
:101D780077D405EA0C05A703C6F88050D6F8845036
:101D88006CD40CEA0505E702C6F88450356862D4BD
:101D98000CEA0505A7023560756859D40CEA0505F3
:101DA8007560013233FA02F43FF449AF012404FAB2
:101DB80002F513EA0509F4D04C6824F0100CBCF1C4
:101DC800020F8DD102F0070C0F694FEAD20E4FEACD
:101DD8008C0C00EB8E0E07FA0CF90F27DEF820802A
:101DE80007FA0CFC032728EA0C0849EA0808CEF889
:101DF80020804FEA420ED0F8009004F0030807FA5A
:101E08000EFC08FA0EF829EA0C096FEA0C0C48EAED
:101E18000908C0F800808F6807FA0EF8D0F8089013
:101E28002409CF6809EA0C09944007FA0EFE4EEA25
:101E3800090EC0F808E0D0F804E02EEA05052C43A6
:101E48004460C46804EA0C0444EA0804C460A8E7CF
:101E580049EA0505A4E749EA05059BE749EA0505B6
:101E680091E745EA090586E74FF0050C0CFA06F6F6
:101E78004AEA0605ECE6032505FA06F64AEA0605E7
:101E8800E6E670474FF0040C0CFA06F64AEA060537
:101E9800DEE64FF0060C0CFA06F64AEA0605D7E627
:101EA8004FF0070C0CFA06F64AEA0605D0E64FF0A2
:101EB800080C0CFA06F64AEA0605C9E62DE9F04FC1
:101EC800056885B00446284601F0B2FE012802D014
:101ED80005B0BDE8F08F206801F05AFE0028F7D061
:101EE800206801F055FE8202236802D54FF40012E3
:101EF8005A61184601F04CFEC702236802D54FF418
:101F080080125A61184601F043FE4601236802D543
:101F18004FF080625A61184601F03AFE8007236844
:101F280032D4184601F034FE810000F1098120689E
:101F380001F02EFEC201266800F1C480304601F08F
:101F480027FE070700F1B280206801F021FE034652
:101F580020689E011BD401F01BFEC306B8D5256876
:101F6800AB6923F01003AB612E6A06F4F011C6F3D7
:101F78000A17B1F5802F02D1002F40F0DA81AB6942
:101F880043F01003AB61A3E702225A61C9E701F0ED
:101F9800B7FEA2688146002A00F08F8005F5A0658B
:101FA8000026206840E05A075BD50423BB60FB6825
:101FB80043F00203FB60BB689B0500F12781B96809
:101FC80011F0010100F0CE8023694BB108EB8802C3
:101FD800396904EBC202C1F31201936C5B1AD36432
:101FE8004FEA88030122002003EB080104EBC1013A
:101FF800886581F85D20BA6091F83F0010F0FD0F08
:1020080000F08A81032800F04282984404EBC80853
:1020180098F8503083F0010388F85030A26820689F
:1020280001362035964249D206F00F0329FA03F308
:10203800D907F5D55FFA86F82B6800F5A06A13F47E
:10204800004F4FEA481B0AEB4817BB68ABD113F0A7
:1020580004030DD00423BB60FB6843F00203FB605C
:10206800DEE7BB689B0640F115812023BB60A2E731
:10207800B96811F0200C00F0D78008EB880C2021FB
:1020880004EBCC0CB9609CF83D100129C8D18CF840
:102098003D30022341468CF85C30FB6843F0020374
:1020A800FB6001F031FEA2682068B9E72046FEF720
:1020B8003DFD08232068436147E720684FF000731F
:1020C800436148E7D6F8403406F588670293D6F8A6
:1020D80040340393039B23F02E030393029B9B0737
:1020E80007D5029BD80700F15681039B43F00203F2
:1020F8000393029B190718D5039B43F00803039326
:10210800029B5A0740F16781A169022900F09D816D
:10211800E368012B03D14EF66023C6F80434204649
:10212800FEF712FD2046FEF705FD2668029B9B067A
:1021380003D5039B43F020030393039B3B60FDE619
:10214800D5F84034204623F02E03C5F84034FEF776
:10215800F5FC0121206801F0B1FD4FF00053206823
:102168004361E5E6BB68980740F1B080FB6823F05F
:102178000203FB6008EB880304EBC30393F85D20BC
:102188004FEA8803501E072827D8DFE800F03826D2
:1021980033262C04260403EB080204EBC202926DDA
:1021A8000132032A00F2078211460222434404EB5B
:1021B800C303996583F85C205AF80B3023F08043F9
:1021C80043F000434AF80B30022320464146BB60E7
:1021D800FEF7B8FCA268206822E7434404EBC30377
:1021E80093F85C20F0E74344052104EBC30383F82C
:1021F8005C10E9E74344022204EBC303DAE74344F3
:10220800012104EBC30383F85C10DDE7FB6841465A
:10221800206843F00203FB6001F076FD4FF4007381
:102228002068BB60A268FBE6BB685B0600F1BB8068
:10223800BB6813F4007340F00281B968C90700F164
:102248003581BB6813F0080340F0A281B968C9065C
:1022580040F1418108EB880204EBC2029365032335
:1022680082F85D3092F83D3043B9282303FB0843D8
:1022780093F83C2012B9012283F83D20FB684146BF
:1022880043F00203FB6001F03FFD10232068BB60B0
:10229800A268C5E6BB68190700F1AA80BB685A05A1
:1022A8007FF589AEFB68414643F00203FB6001F00D
:1022B8002BFD102208EB8803BA60082204EBC30345
:1022C80083F85D204FF48063BB6074E6BB6813F04D
:1022D800800340F0C580BA68D20640F1AD8008EBB3
:1022E800880104EBC10191F83F20032A00F06581C1
:1022F80012F0FD02C9D123698A65002BC5D12823B4
:102308000322414603FB084383F85D20FB682068ED
:1023180043F00203FB60B6E7FA684146206842F0E2
:1023280002020193FA6001F0EFFC1022019BBA60EF
:102338006BE606F00F0606EB860804EBC808D8F82B
:10234800441000293FF41BAE3A46284601F096FB9C
:1023580005F5A061D8F8443001EB461225683B44E6
:102368001069D8F84C20C8F8443073013A44C8F8CA
:102378004C20AD4A0240002A3FF401AECA5822F070
:10238800804242F00042CA5098F8503083F001036E
:1023980088F85030F3E5B369204623F00053B36161
:1023A800FEF7C8FBA1E608EB88030422414604EBCC
:1023B800C30383F85D200122C3F858C083F83D2089
:1023C800FB6843F00203FB6001F09EFC4023206899
:1023D800BB60A26824E62046FEF7BAFB3B68266885
:1023E80023F02E033B60B36943F00053B3619DE6CD
:1023F800FB680522414643F00203FB6008EB8803B3
:1024080004EBC30383F85D201023BB600823BB6083
:1024180001F07AFCCFE52823022203FB084383F866
:102428005C20282302224146204603FB0843BA6069
:1024380093F85C20FEF786FBA2682068F0E5FB684D
:10244800414643F00203FB60E6E6029B206803F482
:10245800C023B3F5802F18BF012101F02FFC5EE6E1
:10246800FA6808EB8803414604EBC30342F0020212
:10247800FA609A6D01329A65062283F85D20206819
:1024880001F042FC80232068BB60A268C8E55AF8C6
:102498000B00019340F000504AF80B00204681F8E9
:1024A8005C204146FEF74EFB019BAEE5FA684146CB
:1024B80042F0020C08EB880204EBC208C8F8583056
:1024C800C7F80CC001F020FC0123BB6088F85D3020
:1024D800A2682068A4E5BB681B067BD4BB6813F41C
:1024E800806340F08980B96889077FF599ADFA68FB
:1024F80022F00202FA60282202FB084292F85D20CC
:10250800013A072A8DD801A151F822F07325000855
:102518002B2400081F2400081F2400083525000864
:10252800432500082B2400084325000828230522FA
:1025380003FB084383F85C2073E7282202FB084268
:10254800926D0132032A6CD813460221282202FB1D
:10255800084282F85C1093655AF80B3023F08043E8
:1025680043F000434AF80B305BE72823012203FBC2
:10257800084383F85C2093F83F20023A012A3FF68B
:1025880050AF93F8512082F0010283F8512048E7B8
:102598000823414608EB8808BB60FB6843F0020348
:1025A800FB6001F0B1FB052204EBC80383F85D2052
:1025B800A268206834E50422F8E5FA682821206832
:1025C80001FB084142F002028B654146FA6001F0C6
:1025D8009BFB5AE6FB68414643F00203FB6001F0AF
:1025E80093FB2823062203FB084383F85D208023FE
:1025F8002068BB60A26813E5FB68414643F002030C
:10260800FB6001F081FB10222823BA604FF480623E
:1026180003FB0843BA60082283F85D20A26820689B
:10262800FEE4042192E700BF0000F81F90F8B832DA
:10263800012B0CD0012310B50446006884F8B83289
:1026480001F0C2FB0023184684F8B83210BD0220FE
:10265800704700BF00284ED010B590F841300446AE
:1026680003F0FF02002B41D023682421626884F81C
:102678004110196822F07062E06821F00101012818
:1026880019601A619A68A16822F400429A6029D0F8
:1026980041F404410228996002D14FF400625A6063
:1026A80058684FF0200C1549226901435960D968D0
:1026B80021F40041D960D4E90501024342EA01222C
:1026C800D4E90710DA60002201431046196019683E
:1026D80041F001011960626484F841C0226384F802
:1026E800422010BD41F400419960D9E780F84020AC
:1026F800FDF7B4FEB8E70120704700BF0080000274
:102708000268436B9169126803B11847704700BFAC
:1027180090F84120202A23D15FFA82FC90F84020CB
:102728000346012A1CD00268242000B583F8410022
:102738004FF0000E106820F001001060106820F4BF
:10274800805010601068014370461160116841F0B4
:102758000101116083F841C083F840E05DF804FB93
:102768000220704790F84120202A22D1034600B564
:102778005FFA82FE90F84020012A1CD002682420CB
:102788004FF0000C83F84100106820F00100106041
:10279800106820F4706040EA0121604611601168F9
:1027A80041F00101116083F841E083F840C05DF811
:1027B80004FB0220704702205DF804FB2DE9F04F6E
:1027C800D0F800A089B00446504601F031FA0390D1
:1027D80010B109B0BDE8F08F206801F0D9F90028E0
:1027E800F7D0206801F0D4F98707236803D55A6920
:1027F80002F002025A61184601F0CAF9060300F114
:102808005C814FF0000B206801F0C2F910F4802FB2
:10281800206840F0F08001F0BBF9002878DB2068E0
:1028280001F0B6F9030568D4206801F0B1F9060192
:1028380014D52268536903F00063536194F8F433A4
:10284800002B40F0DC810121204684F8F413536DFD
:10285800C3F38303C4F8F83300F048FC206801F0A0
:1028680097F903462068DD047DD401F091F9034609
:102878002068990460D401F08BF9C206236815D545
:102888009A6922F010029A61DAF8205005F4F012E1
:1028980005F00F06B2F5802F00F04D82B2F5402FFB
:1028A80000F0C2819A6942F010029A61184601F05C
:1028B8006FF9070700F16881206801F069F9C6021D
:1028C80000F15781206801F063F9850200F1468123
:1028D800206801F05DF9400000F13781206801F0BF
:1028E80057F941077FF575AF23685D686A0700F1FE
:1028F80043825A682A435A606BE7DAF80838DF07D8
:1029080000F136822068436903F4006343618CE771
:10291800DAF8043823F00103CAF8043894F8F433D9
:10292800012B00F07A812046FEF78EF82068436973
:1029380003F00043436173E701F07EF9206800F07B
:10294800ABFE2568E06000F061FC227B014628466A
:1029580000F006FE2046FEF74DF82068436903F4B0
:102968000053436187E7DAF8043810210AF5006656
:1029780023F00103CAF8043800F074FE6068B0B1AF
:102988000AF510634FF67F31039D996001351A6887
:102998002033854222F4001243F8202CC3F8E811B2
:1029A800D3F8E02122F40012C3F8E021EDD1F36955
:1029B80043F00113F361236B002B00F02481D6F858
:1029C800843043F00B03C6F88430736C43F00B0378
:1029D8007364DAF8003804F57172217C23F4FE631D
:1029E8002068CAF8003801F041F92068436903F407
:1029F8008053436139E701F0E3F88346002800F08B
:102A08002681804627460AF5106900262068554623
:102A180018F0010F08D14FEA580801361C3709F1A0
:102A2800200918F0010FF6D05FFA86FA514601F036
:102A3800E3F80346D8071FD5012006F00F01D5F8A3
:102A4800342800FA01F122EA0102C5F83428226983
:102A5800C9F80800824203D1D7E911120A44BA64BE
:102A6800514620460493FDF7B7FF2269049B012ACB
:102A780002D1002E00F0D581190702D50822C9F825
:102A88000820DA0602D51022C9F80820580602D50F
:102A98004022C9F80820990702D50222C9F808205F
:102AA8001A0600F1E28020685FEA580800F0D18039
:102AB80001361C3709F12009AAE7206801F072F8ED
:102AC800054600283FF49DAE06460AF5306BA14640
:102AD8004FF0000820680595F50708D4760808F136
:102AE80001080BF1200B09F11C09F507F6D55FFA6F
:102AF80088F1049101F072F810F0010F074600F018
:102B08000803049949D1002B40F002812068FA0695
:102B180002D51023CBF80830BB0606D52169012958
:102B280000F079812023CBF80830BD0403D54FF499
:102B38000053CBF80830760800F0918008F10108BE
:102B48000BF1200B09F11C09C6E72046FDF788FFA9
:102B58002068436903F080434361C0E620465FFA7A
:102B68008BF1FDF775FF2068436903F40013436197
:102B7800AFE620465FFA8BF1FDF76EFF20684369E8
:102B880003F4801343619EE62046FDF72FFF20687B
:102B9800436903F0080343618FE620680122256931
:102BA800CBF8082000F53062012DD0F840E002EBA8
:102BB8004812D2F808C0049200F00681AB4A964544
:102BC80040F0F2801CF4004F00F0E8804FF400421F
:102BD80004998A60002B9AD0036C8968A34A9342AF
:102BE80000F0E88020460493FDF7E6FEA04A049B27
:102BF800934200F2C9800823CBF8083086E72046C4
:102C0800FDF70AFF2AE6726942F22B031343736148
:102C1800336943F00B033361DBE60021204684F877
:102C2800F41300F063FA81E6C6EBC606082204F541
:102C38007171504600F022FFC5F30A1204EB8601B9
:102C4800D1F814321A442368C1F814222AE62068FD
:102C5800E1E5BBFA8BF3AA46C3F1200BDBE5059D42
:102C6800B5FA85F9C9F1200BCEE5D7E91432206809
:102C78009A423FF619AFA3EB020C796C07908C458A
:102C880028BF8C4600F5106101EB46110CF1030CCE
:102C9800D1F818E01FFA8EFEBEEB9C0FC0F0B7808B
:102CA800CDF818808846CDE904B51D4683461AE05C
:102CB8007B6C524658469D4228BF1D46237C009394
:102CC800ABB2B96C00F0C4FE7A6DBB6CE81C2A4448
:102CD8002B443D6D7A65D8F81810BB6489B2B1EB06
:102CE800900FC0F08D809542A5EB0205E0D8DDE994
:102CF80004B5DDF818802068079B06F00F02012153
:102D08009140D3F8342822EA0102C3F83428CBE6EC
:102D18002368226903F530611B6C012A01EB481115
:102D2800049189687FF45AAF514A934242D82046A9
:102D3800FDF742FE5FE747F6F07215423FF4B2AD89
:102D4800C6EBC606C5F30A12504604EB86061546BE
:102D5800D6F8081200F092FED6F808322B44C6F8CE
:102D68000832D6F814321D442368C6F8145299E57F
:102D78002046FDF751FEC5E52046FDF775FE2368A0
:102D8800B7E52046FDF718FE216901297FF433AF26
:102D980004F57172206800F069FF2CE71CF0200F21
:102DA80002D020220498826020460493FDF70AFE90
:102DB800049BA8E60904E4D54FF40043049A20468E
:102DC8009360FDF7F9FDDFE71CF0080F35D0284ABE
:102DD800964506D91CF4004F03D04FF400420499DD
:102DE8008A6020460693FDF7E7FD04F5717201211C
:102DF800206800F03BFF049B08229A60069B82E64D
:102E08002B46DDF810B0DDF81880059D2068934248
:102E18003FF64AAE70E704F5717200F027FF2068AC
:102E280080E6226D002A7FF427AE04F57172012135
:102E3800206800F01BFF049B1EE61CF0200F09D041
:102E4800202204998A60002B3FF461AE049A036C37
:102E5800916869E7064A96450CD91CF4004F09D0D9
:102E68004FF4004204998A60EDE700BF0A31544FDD
:102E78000A30544F0693049BD9F804021A69C2F326
:102E88001202821AC9F81422D9F8082202442046EC
:102E9800C9F80822FDF796FD069BB8F1000F7FF4EC
:102EA80032AED4F81022002A7FF42DAE04F57172E8
:102EB80001212068049300F0D9FE049B23E600BF9B
:102EC80090F8BC23012A0ED0012210B504460068F0
:102ED80084F8381084F8BC2300F048FE0023184614
:102EE80084F8BC3310BD0220704700BF01F00F0CFE
:102EF800090610B50446CCEBCC004FEA800022D47A
:102F080000F5FE714FF0000E2044214480F8FDE1E9
:102F18008A604A7881F800C0CB700AB1A1F806C06F
:102F2800022B01D100230B7194F8BC33012B13D071
:102F38000123206884F8BC3300F0C0FB0023184646
:102F480084F8BC3310BD00F13C014FF0010E204461
:102F5800214480F83DE0DBE7022010BD10B501F008
:102F68000F040021C4EBC40C4FEA8C0C00EB0C0ED0
:102F78000CF5FE7C8EF8FD118EF8FC41CEF8082287
:102F8800CEE98431036900EB0C010068012B08BF0E
:102F9800CEF80C22DAB21CB900F0DEFC002010BD1D
:102FA80000F0D2FB002010BD38B501F00F04002559
:102FB8000121C4EBC40C4FEA8C0C00EB0C0E0CF195
:102FC8003C0C8EF83D1000EB0C018EF83C40CEF81E
:102FD8004820CEE9143503690068012B08BFCEF8F4
:102FE8004C20DAB21CB900F0B7FC002038BD00F064
:102FF800ABFB002038BD00BF38B5436801F00F05B2
:103008009D4231D80B0604461BD4C1EBC10189008F
:1030180001F5FE7243188118002283F8FD2101236F
:103028000D708B7094F8BC239A421BD0206884F8EA
:10303800BC3300F037FDCDB10023184684F8BC330B
:1030480038BDC5EBC50301229B0003F13C010344D5
:10305800014483F83D2001230D708B7094F8BC2344
:103068009A42E3D1022038BD012038BD04F57172BF
:10307800217C206800F0FAFDDEE700BF01F00F02B6
:1030880038B543689A422ED8C2EBC20309060446F3
:103098004FEA830317D403F5FE7100250344014466
:1030A800002083F8FD010A708D7094F8BC33012B61
:1030B80017D00123206884F8BC3300F02BFD284684
:1030C80084F8BC5338BD03F13C0100250344014496
:1030D800012083F83D000A708D7094F8BC33012BF1
:1030E800E7D1022038BD012038BD00BF704700BFBE
:1030F8003F4A136903F03803102B4FD0182B0AD01E
:10310800002B4DD1136899064CD513683948C3F381
:10311800C103D8407047916A30B4946AD56A14F4F0
:103128007C7F536BC4F3051036D0C3F3CC0305F092
:10313800010501F0030107EE900A05FB03F30129DD
:10314800F8EEE77A06EE903AFAEEE96A02D002293A
:1031580048D049B39FED287A87EE276A136BC3F3EB
:10316800080307EE103AF7EE005AB8EEC77A37EEC2
:10317800267A37EE257A27EE067A1D4B1B6BC3F3AA
:103188004623013307EE903AF8EEE76AC7EE267A4F
:10319800FCEEE77A17EE900A30BC70471748704784
:1031A800174870471348704713689B061DD5106869
:1031B800F7EE005A136B0F49C0F3C102C3F30803BB
:1031C800D14007EE103A06EE101AB8EEC77AB8EEFC
:1031D800C66A77EE266A86EE277A76EEA57A27EE15
:1031E800277ACAE79FED077AB6E79FED077AB3E734
:1031F800004402580090D0030024744A0024F400CC
:1032080000093D000024744B0024744C08B500F0FC
:1032180091F9064B06499B69064A03F00F03CB5CFC
:1032280003F01F03D840106008BD00BF00440258D7
:10323800F08200080400002410B500F07BF9094969
:10324800094A8B69094C03F00F03D35C03F01F0391
:10325800D8402060CB69C3F30213D35C03F01F038B
:10326800D84010BD00440258F08200080400002431
:1032780010B500F05FF90949094A8B69094C03F058
:103288000F03D35C03F01F03D8402060CB69C3F35E
:103298000223D35C03F01F03D84010BD004402583A
:1032A800F08200080400002408B5FFF7AFFF054BC3
:1032B800054A1B6AC3F30213D35C03F01F03D8400B
:1032C80008BD00BF00440258F0820008474A70B4A5
:1032D800946A956AD66A15F47C3FC5F30533D16BB9
:1032E8005BD0C1F3CC0106F0100604F0030407EE2E
:1032F800903A06FB01F1012CB8EEE77A06EE901A37
:10330800FAEEE96A03D0022C6AD0002C4AD0DFED2D
:10331800387A87EE876A936BC3F3080307EE903A0F
:10332800F7EE005AF8EEE77A77EEA67A77EEA57A06
:1033380067EE867A2D4AB7EE006A936BC3F346238D
:1033480007EE103AB8EEC77A70BC37EE067AC7EEC9
:10335800876AFCEEE66AC0ED006A936BC3F3064326
:1033680007EE103AB8EEC77A37EE067AC7EE876AE4
:10337800FCEEE66AC0ED016A936BC3F3066306EEE2
:10338800903AF8EEE66A76EE866A87EEA67AFCEE62
:10339800C77A17EE903A8360704770BCC0E9003373
:1033A8008360704713689B061DD51468F7EE005AB2
:1033B800936B1049C4F3C102C3F30803D14007EE6D
:1033C800903A06EE101AF8EEE77AB8EEC66A77EE8B
:1033D800A66AC6EE077A36EEA57A67EE877AA9E777
:1033E800DFED057A95E7DFED057A92E700440258AC
:1033F8000024744A0090D0030024744B0024744CB9
:10340800474A70B4946A956AD66A15F07C7FC5F30A
:103418000553516C5BD0C1F3CC0106F4807604F0FF
:10342800030407EE903A06FB01F1012CB8EEE77AA7
:1034380006EE901AFAEEE96A03D0022C6AD0002C44
:103448004AD0DFED387A87EE876A136CC3F3080336
:1034580007EE903AF7EE005AF8EEE77A77EEA67A9A
:1034680077EEA57A67EE867A2D4AB7EE006A136C76
:10347800C3F3462307EE103AB8EEC77A70BC37EEAE
:10348800067AC7EE876AFCEEE66AC0ED006A136C3E
:10349800C3F3064307EE103AB8EEC77A37EE067A5A
:1034A800C7EE876AFCEEE66AC0ED016A136CC3F3E7
:1034B800066306EE903AF8EEE66A76EE866A87EEDE
:1034C800A67AFCEEC77A17EE903A8360704770BC14
:1034D800C0E900338360704713689B061DD51468E4
:1034E800F7EE005A136C1049C4F3C102C3F3080382
:1034F800D14007EE903A06EE101AF8EEE77AB8EEE9
:10350800C66A77EEA66AC6EE077A36EEA57A67EE41
:10351800877AA9E7DFED057A95E7DFED057A92E787
:10352800004402580024744A0090D0030024744BCD
:103538000024744C08B5FFF7DBFD064B06499B6970
:10354800064AC3F30323CB5C03F01F03D840106083
:1035580008BD00BF00440258F0820008080000249B
:10356800022A82B0844613D009230193DCF80C3078
:10357800002023F47053CCF80C30019BDCF80C20AD
:103588009B0203F470531343CCF80C3002B070471D
:10359800224B234A0B44934207D9224B224A0B441D
:1035A800934205D80E230193E0E70F230193DDE74B
:1035B8001E4B1F4A0B44934207D91E4B1E4A0B440D
:1035C800934205D20C230193D0E70D230193CDE755
:1035D8001A4B1B4A0B44934202D80B230193C5E7AD
:1035E800184B194A0B44934202D20A230193BDE7B0
:1035F800164B174A0B449342B6D3164B164A0B4444
:10360800934202D208230193B0E7144B144A0B44A7
:10361800934234BF072306230193A7E7405327FFAC
:10362800FF340C00401E1BFF3F420F0000DC0BFF65
:103638007F4F1200808CF9FE20D6130060B6E5FE9D
:103648005FE3160000D3CEFE40771B00C05BB3FEDD
:10365800C091210000CA91FE20753800E05459FE3F
:10366800E09C4100890182B000230A4A41F0200110
:103678000193016103E0036913F0200307D0019B64
:10368800013393420193F6D9032002B070471846DC
:1036980002B07047400D0300D0F8083882B003F03C
:1036A80006030193019838B10198022804D0019BC0
:1036B800062B0CBF02200F2002B0704730B50A78E5
:1036C800012300F5006C02F00F0E00EB421003FA24
:1036D8000EF391F801E0BEF1010F18D0DCF81C20C0
:1036E80042EA0343CCF81C30D0F8003B1B040CD44E
:1036F8008B68D0F8004BC3F30A03C978114A2343F7
:1037080043EA81431A43C0F8002B002030BDDCF89F
:103718001C402343CCF81C30D0F800391C04F4D4E6
:103728008B68D0F80059C3F30A03CC7805492B43BA
:1037380043EA844343EA82531943C0F8001900203E
:1037480030BD00BF008000102DE9F0434E7891F89D
:1037580000E0012E4B6900EB4E1CCC7858D0DCF809
:10376800105B0CF5306E6FF31205CCF8105BDCF8CB
:10377800105B6FF3DC45CCF8105B8D6893B32B447A
:10378800744E012A03F1FF33B3FBF5F306EAC3468F
:103798009BB205FB03F3DEF8105045EA0605C3F3B8
:1037A8001203CEF81050DEF8105043EA0503CEF8A5
:1037B800103027D0012C0CD1D0F8083813F4807FB2
:1037C800DCF8003B0CBF43F0005343F08053CCF8C7
:1037D800003BDCF8003B43F00443CCF8003B0020FE
:1037E800BDE8F083DEF81030C5F31205012A45EA7A
:1037F8000305CEF81050DEF8103043F40023CEF85D
:103808001030D7D1CB68002BD4D0CEF81430D1E704
:103818000CF5106593B32F69012CD1F808906FF35C
:10382800120709EB03082F6108F1FF382F69B8FB6D
:10383800F9F86FF3DC472F61464F07EAC847D5F818
:10384800108047EA08072F61C3F31207D5F81080E4
:1038580047EA08072F6148D0012A76D0DCF80039FA
:103868000EF00F0E43F0044306FA0EF6CCF80039BA
:10387800D0F834381E43C0F83468B0E72E69012AFE
:103888006FF3DC462E612E6946F400262E612E6900
:103898006FF312062E6139D0DCF80059012C45F07F
:1038A8000445CCF800599AD1D0F8084814F4807F20
:1038B800DCF800490CBF44F0005444F08054CCF8C4
:1038C8000049002A8BD19BB203339A0887D0CB6872
:1038D80000EB0E3E03EB82010EF5805E53F8042BDD
:1038E8008B42CEF80020F9D179E72C69012A24F01F
:1038F800C0442C612C6944F000542C6114D0DCF8CD
:10390800004944F00444CCF80049CDE70B6903B101
:103918006B61012C0BD0DCF80039002043F0044324
:10392800CCF80039BDE8F0830B6903B16B61D0F8BE
:10393800083813F4807FDCF800390CBF43F00053DB
:1039480043F08053CCF80039E5E70B69002BE2D04F
:103958006B61E0E70000F81F4B78F0B4012B0C789E
:103968004D6900EB441C27D0DCF8100B0CF53063D4
:103978006FF31200186118696FF3DC4018618868EA
:1039880005B148611C69C0F31200012A44F40024FF
:103998001C611C6940EA0400186108D0DCF8003B8F
:1039A80043F00443CCF8003B0020F0BC7047CA68E1
:1039B800002AF3D05A61F1E70CF5106365B31E696C
:1039C8006FF312061E611E696FF3DC461E618E6876
:1039D800AE4201D235464E611E69012A46F40026E0
:1039E8001E61C5F312061F6946EA07061E612AD042
:1039F800DCF8003943F00443CCF80039002DD3D06B
:103A080004F00F040123D0F83428A3401343F0BC7A
:103A1800C0F83438002070471869012A6FF3DC4079
:103A28001861186940F40020186118696FF31200D2
:103A3800186108D0DCF80039002043F00443F0BCDA
:103A4800CCF8003970470A69002AF3D05A61F1E7C7
:103A580010B49DF8044064B903339B0809D00132BF
:103A680001EB830300EB023051F8042B8B42026018
:103A7800FAD100205DF8044B704700BF033210B53F
:103A880094080DD000F5805C01EB840E0B46DCF841
:103A9800002043F8042B7345F9D101EB840010BDD5
:103AA800084610BD0B784A7800EB4310003B18BF5E
:103AB8000123012A0CD0D0F8002B002A00DBA3B97F
:103AC800D0F8003B43F40013C0F8003B00207047D7
:103AD800D0F80029002A00DB73B9D0F8003943F484
:103AE8000013C0F8003900207047D0F8003B23F0DD
:103AF8008043C0F8003BE3E7D0F8003923F0804367
:103B0800C0F80039D0F8003943F40013C0F8003980
:103B1800E9E700BFCB784A7891F800C0023B012A58
:103B280000EB4C10DBB211D0D0F8002B012B22F4A3
:103B38000012C0F8002B01D900207047D0F8003BD4
:103B480043F08053C0F8003B00207047D0F80029AC
:103B5800012B22F40012C0F80029EDD8D0F8003962
:103B680043F08053C0F8003900207047034609012C
:103B78000020D3F8002801F4FE6122F4FE62C3F8A5
:103B88000028D3F800281143C3F80018704700BF75
:103B980082B0436901938269019B134001930198A4
:103BA80002B0704782B0D0F818380193D0F81C28BA
:103BB800019B134001930198000C02B0704700BFAD
:103BC80082B0D0F818380193D0F81C28019B134014
:103BD8000193019880B202B0704700BF00EB411119
:103BE80082B0D1F8083B0193D0F81428019B134008
:103BF8000193019802B0704784B0D0F8103801F0F2
:103C08000F0C00EB41110293D0F834380393039B57
:103C1800029A23FA0CF3DB01DBB213430293D1F8C7
:103C28000839029A13400193019804B0704700BF05
:103C3800406900F001007047D0F8002900F50063E2
:103C48006FF30A02C0F800299A6802F00602042AF3
:103C580005D1D0F8002942F00302C0F800295A68BB
:103C6800002042F480725A60704700BF30B4056C7F
:103C780000F53063104CA54203D9D0F8004B002C56
:103C880016DB002401291C611C6944F400241C6112
:103C98001C6944F018041C611C6944F0C0441C6190
:103CA80006D15A61D0F8003B43F08023C0F8003BAE
:103CB800002030BC704700BF0A30544FD0F80024B1
:103CC80001F00303012900F5806C22F00302C0F81B
:103CD8000024D0F8002443EA0203C0F8003409D0D5
:103CE800022901D00020704741F270730020CCF8FF
:103CF800043070474BF680330020CCF8043070470E
:103D0800D0F8140480B2704700EB411182B0002350
:103D180001F5A0620193D1F8003513F4802FD1F892
:103D2800003543F08043C1F8003522D1C36A13F44B
:103D38007F0FD1F8003523D123F00043C1F80035B7
:103D4800D1F8003543F00043C1F80035D1F800350B
:103D580023F40043C1F8003502E01368002B13DA9E
:103D6800019B0133B3F57A7F0193F6D9002002B0A5
:103D78007047D0F8103413F47F0FD1F8003506D00F
:103D880043F00043C1F80035002002B0704723F02B
:103D98000043C1F80035D1F8003543F00043C1F8BD
:103DA8000035D1F8003523F40043C1F8003502E0AE
:103DB8001368002BE8DA019B0133B3F57A7F01938E
:103DC800F6D9002002B0704710B4002485B04FF433
:103DD800846CAB4A00940146836823F00103836036
:103DE8000394C0F810C002E00B69980604D5039B41
:103DF800013393420393F7D900201023A04A02907D
:103E08000B6102E00B69DB0604D5029B0133934288
:103E18000293F7D9D1F8003501F5A06201F5E06009
:103E28000193019B43F080430193019B23F00043DE
:103E38000193019B23F400430193019BC1F80035D2
:103E4800D1F820350193019B43F080430193019BF6
:103E580023F000430193019B23F400430193019B4A
:103E6800C1F82035D1F840350193019B43F08043D8
:103E78000193019B23F000430193019B23F400432A
:103E88000193019BC1F84035D1F860350193019B3E
:103E980043F080430193019B23F000430193019B6E
:103EA80023F400430193019BC1F86035D1F88035B4
:103EB8000193019B43F080430193019B23F000434E
:103EC8000193019B23F400430193019BC1F88035C2
:103ED800D1F8A0350193019B43F080430193019BE6
:103EE80023F000430193019B23F400430193019BBA
:103EF800C1F8A035D1F8C0350193019B43F0804348
:103F08000193019B23F000430193019B23F4004399
:103F18000193019BC1F8C035D1F8E0350193019BAD
:103F280043F080430193019B23F000430193019BDD
:103F380023F400430193019BC1F8E035D1F8003622
:103F48000193019B43F080430193019B23F00043BD
:103F58000193019B23F400430193019BC1F80036B0
:103F6800D1F820360193019B43F080430193019BD4
:103F780023F000430193019B23F400430193019B29
:103F8800C1F82036D1F840360193019B43F08043B5
:103F98000193019B23F000430193019B23F4004309
:103FA8000193019BC1F84036D1F860360193019B1B
:103FB80043F080430193019B23F000430193019B4D
:103FC80023F400430193019BC1F86036D1F8803691
:103FD8000193019B43F080430193019B23F000432D
:103FE8000193019B23F400430193019BC1F88036A0
:103FF800D1F8A0360193019B43F080430193019BC4
:1040080023F000430193019B23F400430193019B98
:10401800C1F8A036D1F8C0360193019B43F0804324
:104028000193019B23F000430193019B23F4004378
:104038000193019BC1F8C036D1F8E0360193019B8A
:1040480043F080430193019B23F000430193019BBC
:1040580023F400430193019BC1F8E03613680193F0
:10406800019B43F080430193019B43F0004301937C
:10407800019B23F400430193019B136005E000BFFB
:10408800400D03001368002B05DA009B0133B3F5DC
:104098007A7F0093F6D920328242DFD14FF0FF3386
:1040A8000020C1F814344B618B6843F001038B6026
:1040B80005B05DF8044B704708B5D0F88C3233B1C1
:1040C8001B689847003818BF0120400008BD02202F
:1040D80008BD00BF08B5D0F88C325B68984700204F
:1040E80008BD00BF38B500F520750446284600F025
:1040F8006FFB0122B4F8863294F88012C4E99B233E
:1041080001F01F0393420ED0022B06D08BB929462B
:10411800204600F00DF9002038BD2946204600F061
:10412800BBFA002038BD2946204600F081FA00205D
:1041380038BD01F080012046FCF7A8FC002038BDFE
:1041480038B5044651B9D0F86C52032D13D0052D5B
:104158000DD1C4F86C12FCF799FC08E0D0F88C3249
:104168009B6933B190F87422032A02D19847002042
:1041780038BD022038BDD0E953539D420CD8D0F841
:104188008C321B6923B190F87422032A00D1984716
:10419800204600F04BFBEAE7ED1A1146AB42C0F8A7
:1041A8004C5128BF2B469AB200F036FBDFE700BF20
:1041B80070B5044679B9D0F86C32022B18D033F0B8
:1041C800040332D094F87832012B0DD1002300205B
:1041D80084F8783270BDD0F88C325B6933B190F8CE
:1041E8007422032A02D19847002070BD022070BDB6
:1041F800D0E908630D469E421BD8C669B6FBF3F2A8
:1042080003FB12620AB9B34220D9D4F88C32DB68B6
:104218001BB194F87422032A28D080212046FCF789
:1042280035FC204600F00EFBCCE78021FCF72EFC85
:10423800C8E7F61A11460662B2B200F0E3FA2B4656
:104248002A4629462046FCF765FCBBE7D0F87032C1
:104258009E42DAD20A4600F0D5FA2B462A4629466B
:104268002046C4F87052FCF755FCABE72046984747
:10427800D3E700BF0022402370B50446402601253D
:104288001146FCF7F5FB3346802100222046C4F88E
:104298005061C4F84451FCF7EBFB0021D4F890328C
:1042A800A561666284F87452C4F86C126160C4F83F
:1042B8007C1223B1D4F88C3220465B6898470020E2
:1042C80070BD00BF034600201974704703460421DF
:1042D800002093F8742283F8741283F875227047CB
:1042E8000346002093F8752283F87422704700BFB4
:1042F80090F87422032A01D00020704708B5D0F83E
:104308008C32DB6903B19847002008BD0020704754
:104318000020704700207047D0F88C22012108B592
:1043280080F87412017953689847002008BD00BFCF
:1043380030B50B7883B00D46044603F06003202B9C
:1043480028D0402B26D053B180212046FCF79EFB75
:1043580000212046FCF79AFB002003B030BD4B78C3
:10436800092BF1D801A252F823F000BFE14300085D
:104378000944000851430008274400085143000835
:104388002F44000869440008514300089944000874
:10439800AF430008D4F88C32294620469B689847DA
:1043A800002003B030BD8978A04D01292970CBD8F1
:1043B80090F87432022B00F01181032B00F0FF807B
:1043C8008021FCF763FB00212046FCF75FFB29787E
:1043D8002046FFF77FFEBFE790F87432013B022BBF
:1043E800B2D8CA88022AAFD1D0F87C320146002B55
:1043F8000CBF0123032341F80C3F00F0F5F9ABE7AC
:1044080090F87432013B022B9ED84B88012BA3D124
:1044180000232046C4F87C3200F008FA9CE74B8859
:10442800012B99D1F5E78B88002B8DD1CB88002BF8
:104438008AD14B887F2B87D890F87422032A83D09F
:10444800DDB2294680F87652FCF74CFB204600F096
:10445800EDF9002D00F0DE80022384F874327BE74A
:104468004A88130A013B062B3FF66EAF01A151F8AB
:1044780023F000BF2D450008154500080345000836
:104488005143000851430008ED440008BF440008A8
:10449800CA88012A7FF458AF90F87432022B00F2D0
:1044A8008780002B3FF450AF0146002341F8083FB6
:1044B80000F09AF950E7037C002B7FF445AFD0F861
:1044C8008C320DF106001B6B984707234370BDF82B
:1044D8000630002B67D0EA88002A5BD1204600F01E
:1044E800A5F939E7037C002B7FF42EAFD0F88C3286
:1044F8000DF106005B6B9847E9E7D1B2052900F298
:104508008D80DFE801F0271F17372F3F027CD0F896
:104518008C32002A70D19B6A0DF10600984702235D
:104528004370D4E7D0F888320DF10601007C1B688F
:104538009847CCE7D0F888320DF10601007CDB689B
:104548009847C4E7D0F888320DF10601007C9B68D3
:104558009847BCE7D0F888320DF10601007C5B680B
:104568009847B4E7D0F888320DF10601007C5B6902
:104578009847ACE7D0F888320DF10601007C1B693A
:104588009847A4E7D0F888320DF10601007C9B69B2
:1045980098479CE79A420146204628BF1A46ADF83C
:1045A800062000F021F9EB88002B7FF4D5AE95E7C3
:1045B800032B7FF4C9AE011D00F016F9CCE611B348
:1045C800416801298AD0C9B2FFF784FD29782046BD
:1045D8006160FFF771FD022880D1B5E600293FF43C
:1045E8007DAF01210323416080F87432FFF764FD39
:1045F80002287FF473AFA7E6DB6A0DF1060098473F
:104608000223437063E70223416080F87432FFF7A6
:1046180061FD63E7012384F874329DE6D0F88C329B
:104628000DF106029B6B984751E700BFC80D0024A7
:1046380038B50B780D4604465A060CD503F06002CF
:10464800402A08D08021FCF721FA00212046FCF7F7
:104658001DFA002038BD94F87432013B022B11D8A2
:104668002B79012B0ED8D4F88C32294620469B682A
:104678009847EB88002BECD10028EAD1204600F0BF
:10468800D5F8E6E780212046FCF700FA002120460D
:10469800FCF7FCF9002038BD38B50B78044603F068
:1046A8006003202B38D0402B36D04BB180212046D8
:1046B800FCF7ECF900212046FCF7E8F9002038BDAA
:1046C8004B788A88012B5FFA82FC3DD0032B2AD0D5
:1046D800002BEBD190F87432022B50D0032BE5D18C
:1046E8000CF00F03120603EB830300EB830357D48C
:1046F800D3F84431002BD9D00CEB8C05634600EB82
:10470800850505F5A075002B55D1022229462046BE
:104718002B6000F069F8D1E7D4F88C3220469B680A
:104728009847002038BD90F87432022B1CD0032B18
:10473800BCD14B88A3B91CF07F0F11D0CB887BB9B3
:104748006146FCF7A3F90BE090F87432022B0BD00A
:10475800032BABD14B88002BB0D11CF07F0F32D18B
:10476800204600F063F8A9E71CF07F0F9ED0614651
:10477800FCF78CF980212046FCF788F99EE71CF0AD
:104788007F0F93D111064FF000034FF002024CBF88
:1047980000F1140100F5A0710B6000F025F88DE719
:1047A8009B69002B82D00CF07F035D1C05EB85050F
:1047B80000EB8505A7E761462046FCF77FF9031E55
:1047C80018BF0123A1E76146FCF76CF9C8E700BFF1
:1047D8000B7803704B7843704B8843808B888380B9
:1047E800CB88C380704700BF10B5134602240A4621
:1047F8000021C0F86C42C0E90733FCF77FF90020BC
:1048080010BD00BF8C46002108B513466246FCF770
:1048180075F9002008BD00BF8C46002108B5134675
:104828006246FCF777F9002008BD00BF08B50421EF
:104838000023C0F86C121A461946FCF75FF90020ED
:1048480008BD00BF08B505210023C0F86C121A4640
:104858001946FCF75FF9002008BD00BFD0F8C42353
:104868000132C0F8C42302780B2A00D07047D0F870
:104878007C33002BFAD09B69184700BF012380F8CE
:1048880023337047002380F8233370470346002200
:104898000121104683F8201383F8212383F822236B
:1048A800704700BF38B501230025044680F821333E
:1048B80080F8235380F82053FCF74EF921792046DD
:1048C80000F006F86179204600F002F8284638BD65
:1048D8000A2907D800EB8101D1F88433C3F30E030A
:1048E800C1F884330020704770B5002304464FF4A4
:1048F800806204214FF440353448C4F83821C4F8A4
:10490800D410C4F83431C4F84C113149C4F8B0009B
:10491800C4F82811C4E92F32C4E93133C4E9333566
:10492800C4E93733C4E94F33C4E95135C4E95533D1
:10493800A2680323C4F8D830C4F85031042A0AD82E
:10494800DFE802F003262D341F0025222623C4F8B1
:10495800B420C4F82C310022402304F1B005C4F877
:10496800B8202846C4F83031FCF706FB08B1FFBE72
:10497800FEE704F594763046FCF7FEFAE8B1FFBE90
:10498800FEE755225623C4F8B420C4F82C31E2E7D8
:1049980027222823C4F8B420C4F82C31DBE73D22B1
:1049A8003E23C4F8B420C4F82C31D4E7532254234E
:1049B800C4F8B420C4F82C31CDE704F12803C4E9C5
:1049C8002865C4F8E830C4F8603170BD400402407E
:1049D800580402402DE9F84F0646884691461D4680
:1049E80000F12804204602F073F90128FAD1304674
:1049F800FFF77AFFEFF3108B72B6DFF858A096F93D
:104A08000830124F8AF800300A9B114E3B600B9B0E
:104A180033600DB11846A8471FFA89F2414620466F
:104A280001F006FD28B9BBF1000F00D162B6BDE860
:104A3800F88F00233B603360FF238AF800300A9B1D
:104A480013B101210B9898470120ECE7D00D002401
:104A5800CC0D0024D40D00242DE9F84F06468846D5
:104A680091461D4600F12804204602F031F901283C
:104A7800FAD13046FFF738FFEFF3108B72B6DFF844
:104A880058A096F90830124F8AF800300A9B114E48
:104A98003B600B9B33600DB11846A8471FFA89F29B
:104AA8004146204601F068FE28B9BBF1000F00D14D
:104AB80062B6BDE8F88F00233B603360FF238AF8B5
:104AC80000300A9B13B101210B9898470120ECE7AD
:104AD800D00D0024CC0D0024D40D00242DE9F84F6E
:104AE800064688461546994600F12804204602F0F5
:104AF800EFF80128FAD13046FFF7F6FEEFF3108BF6
:104B080072B6DFF85CA096F90830134F8AF80030C7
:104B18000B9B124E3B600C9B33600A9B0BB10C98AD
:104B280098471FFA89F342462946204601F02CFD92
:104B380028B9BBF1000F00D162B6BDE8F88F002399
:104B48003B603360FF238AF800300B9B13B10121CF
:104B58000C9898470120ECE7D00D0024CC0D0024D8
:104B6800D40D00242DE9F043002387B00222066902
:104B78000446039326F00205023ECDE9012382682C
:104B8800B5FA85F518BF01269700C2686D0912B9F4
:104B98002B4635461E462278D4F820800B2A12D19F
:104BA800A2780B2A00D046BB23790B2B01D0002D0D
:104BB80051D1A2790B2A02D0B8F1000F78D1002088
:104BC80007B0BDE8F0836E4B607853F827100B7878
:104BD8000B2B02D09A4200F08480CB780B2B02D0AA
:104BE8009A4200F091808B799A4202D10B2B40F0C7
:104BF8009180012007B0BDE8F083791C604BE07814
:104C080053F8213019780B2902D08A4200F08880A5
:104C1800D9780B2902D08A4200F0A18099798A427A
:104C2800E7D10B29E5D0DA798242E2D1063304F1E3
:104C380002099B7848460493FBF79AFF06464846C4
:104C4800FBF79EFF694600903046FCF729FF237961
:104C58000B2BACD1ADE7B91C494A607952F8212039
:104C680011780B2901D08B425FD0D1780B2901D064
:104C78008B427ED091790B29BBD08B42B9D1D379A5
:104C88008342B6D10632251D937828460493FBF754
:104C98006FFF034628461D46FBF772FF0346694629
:104CA80028460093FCF7FCFEA2790B2A84D186E7FC
:104CB8003349FB1CE07951F8233019780B2901D0CE
:104CC8008A4252D0D9780B2901D08A4231D09979B9
:104CD8000B298ED08A428CD1DA79824289D1063367
:104CE8002BE04B7883427FF478AF8B78204604938F
:104CF800FBF73EFF81462046FBF742FF69460090DE
:104D08004846FCF7CDFE4BE70B7983427FF46BAF47
:104D18000331EAE7CB7983427FF46BAF0631E4E7EE
:104D2800597881427FF474AF81E7517881429CD1F0
:104D3800A9E719798142CAD1033306349B78204602
:104D48000493FBF715FF034620461C46FBF718FFA4
:104D58000346694620460093FCF7A2FE2FE719791F
:104D680081427FF45BAF033361E759788142A9D16F
:104D7800E3E7117981427FF47DAF033283E700BF17
:104D880058830008654A0368934200F0B980A2F589
:104D98007842934200F0B68002F58062934200F0B8
:104DA800B38002F57842934200F0B08002F5E052F9
:104DB800934200F0AD805A4A934240F0AB800523FD
:104DC8004FF4D07110B501FB03F3564C86B0E05C8C
:104DD8001C44FBF7DDFEA078FBF7DAFE2079FBF731
:104DE800D7FEA079FBF7D4FEA368052B19D8DFE816
:104DF80003F02F455B7103214B4B00225520D3F85C
:104E0800F01041F48011C3F8F0101146D3F8F030D7
:104E180003F480130493049BFBF774FF5520FBF7FE
:104E2800ADFF2046FFF79EFE012801D006B010BD59
:104E3800FFBEFEE73C4BD3F8F42042F02002C3F853
:104E4800F420D3F8F43003F020030593059BE8E73A
:104E5800354B00222320D3F8F01041F48051C3F8D9
:104E6800F0101146D3F8F03003F480530093009B00
:104E7800FBF748FF2320FBF781FFD2E72A4B0022EC
:104E88002420D3F8E81041F48041C3F8E810114613
:104E9800D3F8E83003F480430193019BFBF732FF1A
:104EA8002420FBF76BFFBCE71F4B00223320D3F80D
:104EB800E81041F40041C3F8E8101146D3F8E8308F
:104EC80003F400430293029BFBF71CFF3320FBF71C
:104ED80055FFA6E7144B00225420D3F8F01041F4F4
:104EE8000051C3F8F0101146D3F8F03003F4005322
:104EF8000393039BFBF706FF5420FBF73FFF90E764
:104F080000235DE701235BE7022359E7032357E703
:104F1800042355E700231B78FFDE00BF0030014063
:104F280000140058380E002400440258014801F0CB
:104F3800A7BD00BF600E0024014801F0A1BD00BF5D
:104F480000100024014801F09BBD00BFA0110024FF
:104F5800014801F095BD00BF40130024014801F04D
:104F68008FBD00BFE014002410B5EFF3108472B6B3
:104F7800084B1A78120602D504B962B610BD1B7820
:104F88004FF4D070044A5BB200FB0320FCF774FBBB
:104F9800F2E700BFD40D0024E80E002410B5EFF3AB
:104FA800108472B6084B1A78120602D504B962B694
:104FB80010BD1B784FF4D070044A5BB200FB03208D
:104FC800FCF75AFBF2E700BFD40D0024600F002461
:104FD8002DE9F04385B0EFF3108872B6274AFF2118
:104FE800274C1368217023B100211160254A1068ED
:104FF800984723781B061DD5234E0025234F34469A
:10500800216889B1606878B1A3692289012BD4F835
:105018001490D4E903CE20D09BB963463846CDE935
:1050280000E9FFF719FD08B301351C3407F5D077FF
:10503800042DE5D1B8F1000F00D162B605B0BDE886
:10504800F0831346CDF800C002463846CDE901E9A1
:10505800FFF744FD0028E7D108E0014663463846DB
:10506800CDE900E9FFF7B6FC0028DDD1C5EBC505A1
:1050780006EB850346F825005860DBE7D00D0024D1
:10508800D40D0024CC0D002410000024380E002478
:105098002DE9F04385B0EFF3108872B6274AFF2157
:1050A800274C1368217023B100211160254A10682C
:1050B800984723781B061DD5234E0025234F3446D9
:1050C800216889B1606878B1A3692289012BD4F875
:1050D8001490D4E903CE20D09BB963463846CDE975
:1050E80000E9FFF7B9FC08B301351C3407F5D077A0
:1050F800042DE5D1B8F1000F00D162B605B0BDE8C6
:10510800F0831346CDF800C002463846CDE901E9E0
:10511800FFF7E4FC0028E7D108E00146634638467B
:10512800CDE900E9FFF756FC0028DDD1C5EBC50540
:1051380006EB850346F825005860DBE7D00D002410
:10514800D40D0024CC0D002410000024380E0024B7
:105158002DE9F04385B0EFF3108872B6274AFF2196
:10516800274C1368217023B100211160254A10686B
:10517800984723781B061DD5234E0025234F344618
:10518800216889B1606878B1A3692289012BD4F8B4
:105198001490D4E903CE20D09BB963463846CDE9B4
:1051A80000E9FFF759FC08B301351C3407F5D0773F
:1051B800042DE5D1B8F1000F00D162B605B0BDE805
:1051C800F0831346CDF800C002463846CDE901E920
:1051D800FFF784FC0028E7D108E00146634638461B
:1051E800CDE900E9FFF7F6FB0028DDD1C5EBC505E1
:1051F80006EB850346F825005860DBE7D00D002450
:10520800D40D0024CC0D002410000024380E0024F6
:105218002DE9F04385B0EFF3108872B601F060F81D
:10522800284A294CFF21136821702BB100211160F5
:105238000121264A1068984723781B061DD5244E5D
:105248000025244F3446216889B1606878B1A36984
:105258002289012BD4F81490D4E903CE20D09BB92D
:1052680063463846CDE900E9FFF7F6FB08B3013598
:105278001C3407F5D077042DE5D1B8F1000F00D123
:1052880062B605B0BDE8F0831346CDF800C002460B
:105298003846CDE901E9FFF721FC0028E7D108E00D
:1052A800014663463846CDE900E9FFF793FB00283D
:1052B800DDD1C5EBC50506EB850346F8250058602A
:1052C800DBE700BFD00D0024D40D0024CC0D002452
:1052D80010000024380E002457490822022357489A
:1052E8009FED537BF0B4C1F89426C1F83428544D8F
:1052F8004A61C1F8B421C1F85423C1F8F42401F576
:105308000462504CC1F8A436C1F844384B62C1F865
:10531800C431C1F86433C1F80435AB784A4F2372FD
:1053280063714A4E3B72337202ED027B2A88E28037
:10533800A4F80320464CFA80E2802372454CF280A0
:10534800E280237201F5A06481EDD67B81ED067BB6
:1053580081ED6E7B01F5D46104ED027B3E4CC28089
:105368000372A0F8032043713C48E2802372C28094
:105378003B4C0372A4F803206371E280237201EDB1
:10538800027B2968374D080C2180A5F80320A070FE
:10539800354C6B712180A070A4F803206371E28002
:1053A8002372324CEA802180A070A4F80320637134
:1053B800E28023722E4C2B722180A070A4F8032067
:1053C8006371E28023722B4C2180A070A4F8032023
:1053D8006371E2802372284C2180A070A4F8032016
:1053E8006371E2802372254C2180A070A4F8032009
:1053F8006371E2802372224C21802249A070A4F8B4
:10540800032021486371E2802372A1F803201F4C16
:105418004B71CA800B721E49E2802372C2800372EC
:10542800A1F803204B71CA800B72F0BC704700BF13
:105438000000000000000000380E0024D400002402
:10544800B883000804010024340100241C0100244E
:1054580010010024F8000024C8000024BC00002427
:105468002C0E0024B0000024200E0024140E00246A
:10547800080E0024FC0D0024F00D0024E40D002487
:10548800D80D0024A40000248C00002498000024D7
:10549800800000240F4B026819698A420BD0996E6C
:1054A8008A4211D0D3F8C0108A420FD0D3F818110D
:1054B8008A420DD070470021582202FB01331A6D31
:1054C800002AF7D0586D10470121F5E70221F3E7CC
:1054D8000321F1E7F8170024014801F005BC00BFDB
:1054E80008180024014801F0FFBB00BF6018002421
:1054F800014801F0F9BB00BFB8180024014801F0C9
:10550800F3BB00BF101900249FED0D7B0E4B4FF02D
:10551800FF31002299601A73196683F86420C3F872
:10552800B81083F8BC20C3F8101183F8142183ED58
:10553800007B83ED167B83ED2C7B83ED427B7047EC
:105548000000000000000000F81700241F4B02684C
:105558002DE9F041D3F88C50C368ADB206695D1BE4
:10556800AAB1AE4213D08768044607EB060810D2EA
:10557800AE1B4046314600F041FE00232768314605
:1055880040466268B847E3682561AB421AD0BDE877
:10559800F0819E1B4046314600F030FE3146002324
:1055A800626840462668B0472946384600F026FE1D
:1055B80000232668384662682946B047E3682561B3
:1055C800AB42E4D100232361BDE8F0810000024032
:1055D8002DE9F84F0446884691461E4600F13405E9
:1055E800284601F049FE2028FAD10023C4E93233C5
:1055F800C4E93533C4F8DC30C4F8E430C4F84431C5
:10560800C4F85431C4F85C31C4E953334FF48063AF
:10561800C4F8D030C4F848314FF44033C4F8E0300F
:10562800C4F85831424BC4F8C03003F57A73C4F853
:1056380038314023C4F84031E369072B0BD8DFE841
:1056480003F00461454C535A686F2923C4F8C430E9
:105658002A23C4F83C3104F59C773846FBF78CFCC8
:1056680008B1FFBEFEE7C4F8A870C4F87051EFF3A4
:10567800108A72B6DFF8C4B094F91C302D4F8BF83D
:1056880000300A9B2C4C3B600B9B23600EB11846E4
:10569800B0471FFA89F24146284601F0E3FB28B9D2
:1056A800BAF1000F00D162B6BDE8F88FFF238BF87E
:1056B800003000233B6023600A9B13B101210B9843
:1056C80098470120BAF1000FEED1ECE72D23C4F87A
:1056D800C4302E23C4F83C31BDE73F23C4F8C4309E
:1056E8004023C4F83C31B6E74123C4F8C430422310
:1056F800C4F83C31AFE74723C4F8C4304823C4F8A2
:105708003C31A8E72B23C4F8C4302C23C4F83C311F
:10571800A1E74F23C4F8C4305023C4F83C319AE7BA
:105728005123C4F8C4305223C4F83C3193E700BF76
:10573800880002405C1900245819002460190024CC
:105748002DE9F84F0446884691461E4600F1340577
:10575800284601F091FD2028FAD10023C4E932330C
:10576800C4E93533C4F8DC30C4F8E430C4F8443153
:10577800C4F85431C4F85C31C4E953334FF480633E
:10578800C4F8D030C4F848314FF44033C4F8E0309E
:10579800C4F85831424BC4F8C03003F57A73C4F8E2
:1057A80038314023C4F84031E369072B0BD8DFE8D0
:1057B80003F00461454C535A686F2923C4F8C43078
:1057C8002A23C4F83C3104F1C0073846FBF7D4FB60
:1057D80008B1FFBEFEE7C4F8AC70C4F8F850EFF3A8
:1057E800108A72B6DFF8C4B094F91C302D4F8BF8CC
:1057F80000300A9B2C4C3B600B9B23600EB1184673
:10580800B0471FFA89F24146284601F073FB28B9D0
:10581800BAF1000F00D162B6BDE8F88FFF238BF80C
:10582800003000233B6023600A9B13B101210B98D1
:1058380098470120BAF1000FEED1ECE72D23C4F808
:10584800C4302E23C4F83C31BDE73F23C4F8C4302C
:105858004023C4F83C31B6E74123C4F8C43042239E
:10586800C4F83C31AFE74723C4F8C4304823C4F830
:105878003C31A8E72B23C4F8C4302C23C4F83C31AE
:10588800A1E74F23C4F8C4305023C4F83C319AE749
:105898005123C4F8C4305223C4F83C3193E700BF05
:1058A800880002405C19002458190024601900245B
:1058B8002DE9F0410C4682B0EFF3108772B600294B
:1058C80048D1FF23254A264D2B7013682BB10020A1
:1058D80021461060234A106898472B781B0625D567
:1058E800DFF888800025204C05E001351C3408F5D8
:1058F800D878092D1AD0A369012B1CD0002BF4D11C
:10590800216840460029F0D06669D4E90332CDE920
:1059180000262289FFF714FF0028E6D1C5EBC5054C
:10592800114A02EB850342F82500586007B962B6B0
:1059380002B0BDE8F08161680029D6D063694046AD
:10594800019323690093E3682289FFF741FE002849
:10595800CBD1E3E702F0AEFAB3E700BF5C1900244D
:1059680060190024581900244001002498190024C3
:10597800F0B5002387B0022204460393CDE9012342
:10598800037EC2690B2B4FEA42051ED1A27E0B2A69
:1059980002D1002007B0F0BD48486B1C484950F8B8
:1059A800233008781D78E67EA84262D0AA4276D0D5
:1059B800DD78A8426DD0AA427AD09D79854272D00E
:1059C800AA422FD0012007B0F0BD3C4A3C4952F80A
:1059D800252090F819C016780878B04238D0B3421C
:1059E8003DD0D678B0423ED0B3424DD0967986426B
:1059F80045D0B342E6D1D3796345E3D1063204F109
:105A08001806937830460493FBF7B2F803463046FD
:105A18001E46FBF7B5F80346694630460093FCF787
:105A28003FF8B3E7DA79B242CCD106331A349B781F
:105A380020460493FBF79CF8034620461C46FBF7D8
:105A48009FF80346694620460093FCF729F8A0E72B
:105A5800577891F801E07745C3D0B342C1D1567861
:105A68006645BED1CBE792F804E04F78BE45BBD17E
:105A7800BCE791F801C05F78BC4597D198E74978B1
:105A8800D0798842B5D19DE716796645AED1033203
:105A9800B5E793F804C04F78BC458CD18DE75D78A5
:105AA800B54285D1C2E74978D879884288D189E753
:105AB8001D79B54281D10333B8E700BF3C02002409
:105AC8002C0300247D4A0368934270B58EB000F021
