:020000040800F2
:1000000000000220150400081104000891240008D3
:100010001104000811040008110400080000000089
:1000200000000000000000000000000011040008B3
:100030001104000800000000110400081524000845
:10004000110400081104000811040008110400083C
:10005000110400081104000811040008110400082C
:10006000110400081104000811040008BD21000853
:10007000C921000811040008D5210008E121000869
:1000800021CD00084D1600081104000811040008D5
:1000900011040008110400081104000811040008EC
:1000A00011040008110400081104000811040008DC
:1000B00079C1000885C1000891C100088D160008AB
:1000C00011040008991600081104000809BA000874
:1000D00015BA000831CB000861CB000899CB0008A5
:1000E00011040008110400080000000011040008B9
:1000F000110400081104000811040008110400088C
:1001000011040008110400089DC1000821BA00086C
:10011000D1CB000809CC0008110400081104000824
:10012000110400081104000845BA000885BA000847
:1001300061CD000811040008110400081104000832
:1001400000000000000000000000000000000000AF
:1001500011040008110400081104000841CC000833
:10016000A5160008110400082524000849240008E9
:10017000110400086D24000811040008110400088F
:10018000110400081104000879CC0008B1CC000863
:100190002DBA000839BA000811040008110400083B
:1001A00011040008110400081104000811040008DB
:1001B0000D1E0008110400081104000811040008B5
:1001C0001104000811040008A10F0008AD0F000879
:1001D00011040008B90F00081104000811040008F8
:1001E000110400081104000811040008110400089B
:1001F000110400081104000811040008110400088B
:10020000110400081104000811040008110400087A
:10021000110400081104000811040008110400086A
:100220001104000811040008110400080000000077
:100230001104000811040008000000001104000867
:10024000110400081104000811040008110400083A
:10025000110400081104000811040008110400082A
:10026000110400081104000811040008110400081A
:100270001104000811040008E9CC00080000000087
:100280001104000811040008110400080000000017
:08029000000000001104000849
:1002A000034613F8012B002AFBD1181A01387047B6
:1002B00001F0FF01102A2BDB10F0070F08D010F817
:1002C000013B013A8B422DD010F0070F42B3F6D11B
:1002D000F0B441EA012141EA014122F007047FF034
:1002E00000070023F0E80256083C85EA010586EA8B
:1002F000010685FA47F5A3FA87F586FA47F6A5FAC7
:1003000087F68EB9EED1F0BC01F0FF0102F00702D2
:1003100032B110F8013B013A83EA010313B1F8D17D
:100320000020704701387047002D06BF354603385E
:10033000073815F0010F07D1013015F4807F02BF97
:10034000013015F4C03F0130F0BC0138704700BFE8
:1003500053B94AB9002908BF00281CBF4FF0FF312C
:100360004FF0FF3000F00CB8ADF1080C6DE904CE91
:1003700010F070F8DDF804E0DDE9022304B0704706
:10038000704700BF0348044B834202D0034B03B1C4
:1003900018477047040600240406002400000000EB
:1003A0000548064B1B1AD90F01EBA301491002D0D7
:1003B000034B03B1184770470406002404060024C9
:1003C0000000000010B5064C237843B9FFF7DAFFB0
:1003D000044B13B10448AFF300800123237010BD18
:1003E0000806002400000000A80A010808B5054B13
:1003F0001BB105490548AFF30080BDE80840FFF791
:10040000CFBF00BF000000000C060024A80A0108AE
:10041000FEE700BF0C4A0D4B934204D0D21A0C49A0
:1004200018460FF0C2F80B4A0B4B934204D0D21A75
:10043000002118460FF07AF802F074FA0FF08EF8E7
:1004400000F00CF8FEE700BF0406002400000024C2
:10045000D80A0108785E00240806002430B500217F
:100460008BB01C48012400F00BF9012000F0E6FCE1
:10047000194800F03DFC10200023184A8DF8240094
:1004800005A9174805930893CDE9062401F010F952
:1004900070B10DF111050DF1030414F8011F11489D
:1004A00000F026FCAC42F8D10F4800F021FCF2E746
:1004B0000121084800F02CF86421064800F024F8D7
:1004C0000021044800F024F86421024800F01CF8E0
:1004D000EEE700BF280600242408010801080109EE
:1004E0002406002430080108340801080023044AC7
:1004F0000449136053611362D3630B60704700BFFC
:100500002806002424060024084602F031B800BF63
:10051000253000F05DBF00BF00B540F203308FB062
:1005200000224FF60B7340F20341ADF80800009231
:1005300009A8ADF81030ADF824300123ADF80C1047
:10054000029907920C92CDE90522CDE90A2200F02A
:1005500039FD002204A801230399009200F032FD26
:1005600009A800F041FE10B901200FB000BD04A899
:1005700000F03AFE80F00100C0B240000FB000BDB4
:1005800070B53C4B9CB0012200240321139340F230
:1005900004530546169112941992ADF85030CDE9E6
:1005A0001724FFF7B9FF012841D002284FF00102BC
:1005B0002FD1314B40F601310DAE0094CDF85230C1
:1005C0004FF60B73ADF8201030460899ADF8343073
:1005D00023461094CDE91A42CDE90E4400F0F2FC16
:1005E0002146304600F00CFE12A905F13C0001F056
:1005F000FFFD302003224FF07E5331460F931093BE
:10060000CDE90D02EA6B05F1140000F01FFB1CB0F0
:1006100070BD40F60131184B0DAEADF834100D9899
:10062000CDF85230CDE91A4200F0A4F8DCE71022F0
:10063000114908900DAE8DF83020104ACDF85210B7
:1006400008A90A90039009920B940494CDE91A0426
:1006500004A801F02DF80821039B3046079105A955
:10066000049AADF814308DF8164006930D9400F0FE
:10067000BDF8B9E704020404040604030704010BEF
:10068000F0B53A4B044685B040F20112A36003F581
:1006900081333748012503F58073ADF80C2040F213
:1006A00002726060E36040F606630020A4F8252033
:1006B000A4F82930271D258284F8275084F82B5070
:1006C00002918DF80E0002F0EBF8064601F052FFA1
:1006D000034610BB0EB302A904F130008DF80E5092
:1006E00002F066F8072E38D12046FFF749FF04F1E3
:1006F000140000F0E9FA04F114008DED010A00F095
:10070000DFFAD0ED007A9DED010AF8EE677A80EE0F
:10071000277A84ED0E7A05B0F0BD02A904F130000D
:10072000019302F045F8072E019B02D1002BDBD08C
:1007300006E039462046019301F0F2F9019B8BB1A6
:1007400004F1250000F066FD04F1290000F062FDCF
:1007500004F1120000F068F9C6E73946204601F0BE
:10076000DFF9C1E7002EEBD0BEE700BF05070506A5
:100770000508050910B584B00124ADF80C0003A8E4
:10078000ADF80E4000F046FD214603A800F020FE23
:10079000204601F0EDFE002103A800F019FE2046DE
:1007A00001F0E6FE214603A800F012FE04B010BDE1
:1007B000C2F3002CFA2300B587B04CEA410C017C4F
:1007C0008DF8152005AA009302238DF814C001F0BE
:1007D00009F818B10123184607B000BD03900A209C
:1007E00001F0C6FE039B184607B000BD034630B5B6
:1007F000044685B043F8042BFA2507C983E80700AF
:10080000A1791E23009503AA1A31ADF80C302046B9
:100810000223C9B2217400F0E5FF10B1012005B038
:1008200030BD0A2001F0A4FE4FF4B8520095022317
:10083000ADF80C20204603AA217C00F0D3FF00284D
:10084000ECD10A2001F094FE41F2027200950223DD
:10085000ADF80C20204603AA217C00F0C3FF00283D
:10086000DCD10A2001F084FE042200950223ADF8B9
:100870000C20204603AA217C00F0B4FF0028CDD133
:100880000A2001F075FE062200950223ADF80C2027
:10089000204603AA217C00F0A5FF0028BED10A2033
:1008A00001F066FE41F2082200950223ADF80C200B
:1008B000204603AA217C00F095FF0028AED10A2033
:1008C00001F056FE4FF00A0200950223ADF80C200D
:1008D000204603AA217C00F085FF00289ED10A2033
:1008E00001F046FE23790C220095002B217C8DF827
:1008F0000C20204614BF622342236A448DF80D3039
:10090000022300F06FFF002888D10A2001F030FE9A
:10091000A36800952046E268217C1343627943EA8C
:100920004213227982F0010243EA82130E228DF8EB
:100930000D3002238DF80C2003AA00F053FF00288D
:100940007FF46CAF0A2001F013FE10220095022301
:10095000ADF80C20204603AA217C00F043FF0028BC
:100960007FF45CAF0A2001F003FE12210095022300
:10097000ADF80C1003AA217C204600F033FF0028BC
:100980007FF44CAF0A2001F0F3FD0122092120463B
:1009900005B0BDE83040FFF70BBF00BF70B586B0B3
:1009A00000240125102602A94FF480521C4801940E
:1009B000CDE90256CDE9045408F02EFE642002F081
:1009C000ABFD022302A94FF480521548029305940F
:1009D000CDE9036508F020FE042302A94FF48052FC
:1009E0000F480396CDE904340323029308F014FE64
:1009F00040F23223042202A90948019310230495EE
:100A0000CDE90223019B4FF48052059308F004FEC8
:100A100040F60601024808F021FE204606B070BDEF
:100A2000740600240000000030B51F4B89B0082276
:100A3000DFF878C000214FF400641A614FF0020E15
:100A400003920A22C3F804C04FF0200C0692402201
:100A5000054699600320196210215C620124C3E9F4
:100A600005C24FF4C072DC60DA6107229FED0C7B97
:100A7000CDE900E20422CDE904016946181D029285
:100A800083ED0A7B08F09EFD28B9284609B0BDE831
:100A90003040FFF783BF204609B030BDAFF3008080
:100AA00000100000000000007006002440410052C9
:100AB0005E4A0023F0B514688FB00A93002C40F012
:100AC000B2805B4B012103260C2511600227D3F86D
:100AD000D420584842F48052C3F8D420D3F8D4200C
:100AE00002F480520092009AD3F8E02042F0100203
:100AF000C3F8E020D3F8E02002F010020192019A3E
:100B0000D3F8E02042F04002C3F8E020D3F8E02020
:100B100002F040020292029AD3F8E02042F008026A
:100B2000C3F8E020D3F8E02002F008020392039A11
:100B3000D3F8E02042F48072C3F8E020D3F8E0203C
:100B400002F480720492049AD3F8E02042F080020A
:100B5000C3F8E020D3F8E02002F080020592059A65
:100B6000D3F8E02042F02002C3F8E020D3F8E020E0
:100B700002F020020692069AD3F8E02042F0040226
:100B8000C3F8E0204FF68372D3F8E0300B9603F001
:100B900004030C9507930223079908A9CDE90823BC
:100BA00003F046FD48F2371308A9234808930C9533
:100BB0000997CDE90A4603F03BFD4CF2037308A9FF
:100BC0001E480893CDE90974CDE90B6503F030FDAB
:100BD00040F2FF6308A91A480893CDE90974CDE9EA
:100BE0000B6503F025FD4FF60C7308A91548089313
:100BF000CDE90974CDE90B6503F01AFD4FF63F030B
:100C000008A911480893CDE90974CDE90B6503F0F3
:100C10000FFD202308A90B4809970C950893CDE9EF
:100C20000A4603F005FD0FB0F0BD00BF68060024C2
:100C3000004402580010025800180258000C0258D4
:100C400000200258001C02580014025810B5194C1C
:100C500084B09646046004F1080C0FC98CE80F00BC
:100C6000D4ED047AF5EEC07A8DE80F00F1EE10FABB
:100C70001CDDB7EE006A94ED057A27EE277AC6EE02
:100C8000276A84ED0D7AC4ED0C6ABEF1000F0DD019
:100C9000204640F818EF01F0A9FB0749036900203E
:100CA000064A2162A262E36004B010BD012004B0D4
:100CB00010BD00BFA8060024002000300000003056
:100CC00000680830704700BF0068183001F090BB22
:100CD000064B302003214FF07E52C3E90201002071
:100CE00000211A615A61C3E906017047A806002471
:100CF0000FB470B582B01C4D1C4E06AB286853F87B
:100D0000042BC0F18001304401930EF0C9FB2B6825
:100D1000C4187F2C2C6006D9802342F224421C4642
:100D2000A6F87E202B60124E3368012B0CD9224688
:100D30000E49104800F02AF90028F8D1286002B0C6
:100D4000BDE8704004B0704722460849094800F0E9
:100D50001DF90028F3D1336828600133336002B0F5
:100D6000BDE8704004B07047E8060024EC0600249B
:100D7000E4060024E00600240FB470B582B02B4EC8
:100D80002B4D06AB306853F8042BC0F1800128448A
:100D900001930EF085FB3368C01840D02A1801E09B
:100DA000013820D012F8013D0A2BF9D00D2BF7D0D5
:100DB000841C7F2C18D9802342F224421C46A5F8BB
:100DC0007E201C4D33602B68012B18D92246184910
:100DD000194800F0DBF80028F8D1306002B0BDE817
:100DE000704004B0704702240D230A222B5405449E
:100DF00023466A700F4D33602B68012BE6D82246DC
:100E00000B490D4800F0C2F80028E7D12B6830608C
:100E100001332B6002B0BDE8704004B070470D2173
:100E20000A22022329701C466A70CAE7E8060024D9
:100E3000EC060024E4060024E006002410B5044675
:100E40000021084800F018F8074A630007481360BB
:100E5000FFF792FF0648FFF78FFF0A20BDE810401A
:100E600001F086BBE0060024E406002438080108EF
:100E700048080108704700BF012908B519D00229A8
:100E800010D019B1BDE8084005F034BD364B0A4614
:100E9000DFF8F4C035493648C3F800C009F05EFDFC
:100EA000D0B1FEE701223349334809F057FD68B15C
:100EB000FEE70A4630482F4909F050FD00B1FEE731
:100EC0002E492D4809F06CFDC0B1FEE72B492A4898
:100ED00009F066FD60B1FEE72849254809F060FD8C
:100EE00000B1FEE72649224809F0EAFC18B3FEE704
:100EF0002449214809F0E4FC60B1FEE721491E487D
:100F000009F0DEFC00B1FEE71B4809F061FD002896
:100F1000B8D0FEE7184809F05BFD024650B9124B05
:100F2000DFF864C011491248C3F800C009F016FD8B
:100F300038B1FEE7FEE70E4809F04AFD0028A1D0CF
:100F4000FEE70E490A4809F02BFD00B1FEE70C4907
:100F5000074809F0B5FC00B1FEE7054809F038FD87
:100F600000288FD0FEE700BF6C070024E4000024B7
:100F700074070024B4000024100A00243C0200245A
:100F80007000002460000024750E0008084691B22D
:100F900008B501F0B9FD003818BF012008BD00BF39
:100FA000014804F0CDBE00BF58390024014804F0C8
:100FB000C7BE00BF58390024014804F0C1BE00BFBD
:100FC0005839002400B593B00180ADF80410C9B2BF
:100FD000DDF850C00B29C0F80CC0C0E901233FD098
:100FE00090F801E0BEF10F0F3AD8022A3CD0032A54
:100FF00004D0A2F10102B2FA82F25209012B0E9240
:1010000005D0A3F10203B3FA83F35B095B00BCF1E3
:10101000020F0F9326D0BCF1030F23D0ACF10103D4
:10102000B3FA83F35B090A2910930ED8624B4A1E68
:1010300003EB81230361092A00F2AE80DFE802F0AE
:101040009D8E7F7061524334251600231A4603613A
:1010500001230DA9104603FA0EF30D9303F0E8FAED
:1010600013B000BD6346DEE71122C7E7534B544A75
:10107000D3F8E01041F48061C3F8E010D3F8E03019
:1010800003F480630C930C9BE2E74C4B4D4AD3F87E
:10109000E01041F40071C3F8E010D3F8E03003F43D
:1010A00000730B930B9BD3E7444B474AD3F8E010F4
:1010B00041F48071C3F8E010D3F8E03003F480739A
:1010C0000A930A9BC4E73D4B404AD3F8E01041F035
:1010D0008001C3F8E010D3F8E03003F080030993F7
:1010E000099BB5E7354B3A4AD3F8E01041F040018F
:1010F000C3F8E010D3F8E03003F040030893089BF6
:10110000A6E72E4B334AD3F8E01041F02001C3F894
:10111000E010D3F8E03003F020030793079B97E734
:10112000264B2D4AD3F8E01041F01001C3F8E0102F
:10113000D3F8E03003F010030693069B88E71F4BBB
:10114000264AD3F8E01041F00801C3F8E010D3F8C4
:10115000E03003F008030593059B79E7174B204A1D
:10116000D3F8E01041F00401C3F8E010D3F8E03008
:1011700003F004030493049B6AE7104B194AD3F865
:10118000E01041F00201C3F8E010D3F8E03003F0C2
:1011900002030393039B5BE7084B074AD3F8E01075
:1011A00041F00101C3F8E010D3F8E03003F001038F
:1011B0000293029B4CE700BF000002580044025813
:1011C000002802580024025800200258001C02582F
:1011D000001802580014025800100258000C02585F
:1011E000000802580004025808B50121437800693C
:1011F000994089B203F032FD003818BF012008BDC4
:1012000090F801C001230A46006903FA0CF189B283
:1012100003F02ABD8378022B30B504468FB039D055
:10122000032B00F0D180A3F10102B2FA82F252093D
:10123000E3780A92012B05D0A3F10203B3FA83F3FA
:101240005B095B0000222046CDE90B3202F038F842
:101250000546204602F03CF823780990082B13D865
:10126000DFE803F02D405366798C9F051A00574B39
:10127000D3F8E02042F08002C3F8E020D3F8E03059
:1012800003F080030793079B09A9284603F0D0F9D0
:101290000FB030BD1122CBE74C4B09A92846D3F83B
:1012A000E02042F48072C3F8E020D3F8E03003F489
:1012B00080730893089B03F0BBF90FB030BD434B1C
:1012C00009A92846D3F8E02042F00102C3F8E02043
:1012D000D3F8E03003F001030093009B03F0A8F97A
:1012E0000FB030BD394B09A92846D3F8E02042F0B1
:1012F0000202C3F8E020D3F8E03003F002030193C8
:10130000019B03F095F90FB030BD304B09A9284679
:10131000D3F8E02042F00402C3F8E020D3F8E03034
:1013200003F004030293029B03F082F90FB030BD77
:10133000264B09A92846D3F8E02042F00802C3F85A
:10134000E020D3F8E03003F008030393039B03F09D
:101350006FF90FB030BD1D4B09A92846D3F8E02026
:1013600042F01002C3F8E020D3F8E03003F010039D
:101370000493049B03F05CF90FB030BD134B09A933
:101380002846D3F8E02042F02002C3F8E020D3F84A
:10139000E03003F020030593059B03F049F90FB0FB
:1013A00030BD0A4B09A92846D3F8E02042F040029C
:1013B000C3F8E020D3F8E03003F040030693069B27
:1013C00003F036F90FB030BD1A4631E70044025839
:1013D00070B506460D4601F073FF0446304601F035
:1013E00077FF2A1E0146204618BF0122BDE8704043
:1013F00003F03ABC026800231221032A70B586B0BC
:101400000446CDE90113039301D804230493201D5E
:1014100001F056FF0646201D01F05AFF6946009074
:10142000304603F005F9A01D01F04AFF0546A01D56
:1014300001F04EFF69460090284603F0F9F806B027
:1014400070BD00BF684A0368934200B58DB029D0D3
:10145000664A93425CD0664A934200F09B80654A9C
:10146000934201D00DB000BD634B6448D3F8E02037
:1014700042F00202C3F8E020D3F8E02002F00202BA
:101480000A920A9AFFF7B6FF5B4BD3F8F42042F0BA
:101490008002C3F8F420D3F8F43003F080030B93F8
:1014A0000B9BDFE7544B5648D3F8E02042F0020292
:1014B000C3F8E020D3F8E02002F002020192019A82
:1014C000FFF798FF4C4B00221F20D3F8E81041F49F
:1014D000001C1146C3F8E8C0D3F8E8C00CF4001CA7
:1014E000CDF808C0DDF808C0D3F8D8C04CF0010C26
:1014F000C3F8D8C0D3F8D83003F001030393039B9B
:1015000002F034F81F200DB05DF804EB02F05EB875
:10151000394B3C48D3F8E02042F08002C3F8E02089
:10152000D3F8E02002F080020492049AD3F8E0207D
:1015300042F00202C3F8E020D3F8E02002F00202F9
:101540000592059AFFF756FF2B4B00222120D3F876
:10155000E81041F4800C1146C3F8E8C0D3F8E8C0A5
:101560000CF4800CCDF818C0DDF818C0D3F8D8C042
:101570004CF0010CC3F8D8C0D3F8D83003F0010305
:101580000793079B01F0F2FF21200DB05DF804EBFB
:1015900002F01CB81C48FFF72DFF174B0022482013
:1015A000D3F8E8C011464CF4000CC3F8E8C0D3F8F7
:1015B000E8C00CF4000CCDF820C0DDF820C0D3F852
:1015C000D8C04CF0010CC3F8D8C0D3F8D83003F021
:1015D00001030993099B01F0C9FF48200DB05DF894
:1015E00004EB01F0F3BF00BF00540040005800407E
:1015F000005C0040001C005800440258380F0024D2
:10160000B00C0024880D0024600E00240D4B002235
:1016100010210D484FF0FF0C5A6019801A8180F894
:1016200000C05A611983DA611A84DA6219865A6332
:101630001A875A64C3E90322C3E90922C3E90F22C6
:10164000704700BF00000024AC0C0024EFF31082B0
:1016500072B60C4B1978090603D50AB962B6704701
:10166000704700B51B78D820074983B05BB2019260
:1016700000FB031002F07AFC019A02B962B603B0D3
:1016800000BD00BFAC0C0024C40C0024014804F0D1
:1016900035BA00BF3C0D0024014804F02FBA00BF4A
:1016A000140E0024014804F029BA00BFEC0E0024F7
:1016B000F0B50C68D825414E87B004FB05F5032C26
:1016C00006EB050303605FDCCA68012A5CD857D0CB
:1016D0000F4608689C464968BA680DF1180EFB6809
:1016E000ACE80F00D822364B02FB04613A7C019132
:1016F0008CF80020D1F808C00FCB0EE90F000EEBDC
:101700008403019ABCF1010F53F8103CC2F88C30ED
:1017100048D0BCF1020F3AD0BCF1000F09D101F062
:10172000BDF8284B019A98420CBF274B274BC2F8B3
:101730009030D8233A7C2649012003FB04F4520060
:101740008C3533199834C3F894200022C3E926025B
:10175000C3F8A020A8190A510C446260C3F8AC2059
:1017600003F0AEFF80B90146A81904F0D9F958B9C1
:101770000146A81904F000FA003818BF012004E05F
:101780000A7C103A672AA3D9012007B0F0BD01F006
:1017900085F80C4B019A98420CBF0E4B0E4BC2F8C9
:1017A0009030C6E701F07AF8064B019A98420CBFD8
:1017B0000A4B0B4BC2F89030BBE700BFB00C0024C3
:1017C000F0070108000E27075F4390608A62E0304F
:1017D000BC0C0024200BA0101A0980102D0FB03073
:1017E0003211D0202DE9F041056882B088461646B6
:1017F0001F4605F18C04204604F08EF92028FAD10A
:10180000EB687BB94FEA48012046089C3B463246CC
:1018100089B2009403F0B4FF003818BF012002B071
:10182000BDE8F081089B3A463146204604F076F840
:10183000F2E700BF044B10221A7483F8E82083F803
:10184000C02183F898227047B00C002410B5002303
:1018500096B04FF48071062204460D9308921593BA
:10186000CDE90E13CDE91033CDE9133301F018F8AB
:1018700007282DD004F1100341F2883208A9184638
:10188000019305F0B7F928B1012384F85C300120F9
:1018900016B010BD022201234FF0100C08A90593C9
:1018A0004FF480030198CDF810C0CDE90222002248
:1018B000CDE9062305224FF08073089202AA119306
:1018C00041F2883305F02CFB0028DDD116B010BDA5
:1018D000032384F85C30DAE730B50023A7B04FF07B
:1018E00080724FF480750446ADF80E301D93259339
:1018F000CDE920320122CDE91E53CDE923332292D6
:10190000002942D0F02200F1100518ABADF80E20EE
:10191000C02041F2883219461890284605F06AF92D
:1019200028B1012384F85C30012027B030BD41F29A
:1019300088320DF10E01284605F0DCF90346002837
:10194000EFD14FF480710522284601250A9210221A
:1019500012930F93179304930795CDE910139FEDFE
:101960001E7B4FF08071CDE91533139141F288331E
:101970000AA9CDE905526A448DED087B05F0D0FA3D
:101980000028D2D084F85C50CEE718AB612100F17A
:10199000100541F28832189119462846019305F046
:1019A00029F90028BDD141F288320DF10E012846F7
:1019B00005F026FA0028B4D1BDF80E20204622F00A
:1019C000780242F04002ADF80E20FFF73FFF019B86
:1019D00000289DD0A5E700BF0000000000004000E7
:1019E0002DE9F04D0023AAB04FF4807501248DF845
:1019F00007304FF080782193074613931B9322956D
:101A00001C94CDF89480CDE92333CDE92643CDE96C
:101A10002833CDE91453CDE91633CDE91933062324
:101A20000E9300F03DFF072807D041F288320EA93F
:101A300007F1100005F0DEF830B1012387F85C30C3
:101A400001202AB0BDE8F08D02234FF0000B4FF4C7
:101A5000800C08AA0EA907F110000B94CDF85C8049
:101A6000CDE9083310230A9305230E9341F28833FE
:101A7000CDE90CBC05F054FA0028DED141F28832E1
:101A800007F110001CA905F0B5F80028D5D14023B6
:101A900041F288320DF1070107F110008DF807308F
:101AA00005F028F90028C8D1402305204FF0000A8E
:101AB0004FF4800B1C901CA902AA07F1100005949A
:101AC000CDF89480CDE902331023049341F288339A
:101AD000CDE906AB05F024FA03460028ADD1052078
:101AE000102213930EA90E9007F110000A9208AA73
:101AF0001B931495CDF85C800B94CDE91533CDE99B
:101B00001933CDE9083441F28833CDE90CAB05F047
:101B100007FA002895D087F85C4091E700000000A4
:101B20002DE9F0415E4CA4B00E46046000F0B8FE12
:101B3000072800F0A680306825467168B26807C59E
:101B4000B389284620F8043B237B94F80D80019349
:101B500005F030F8D8B9019B0126E061012B514B0B
:101B6000C4E9056623610CBF4FF400034FF48013F2
:101B700093FAA3F3B3FA83F34FF48077013B6762E0
:101B8000C4E90B00281D236204F094FF38B101233F
:101B900084F85C300127384624B0BDE8F081662324
:101BA0000D90159041F2883208A90893CDE90E7086
:101BB000CDE91000CDE91300281D05F01BF8002821
:101BC000E5D1992341F2883208A9281D089305F030
:101BD00011F80028DBD105231E901B9002AA169352
:101BE0004FF08073239016A91F931023059604933A
:101BF00041F288339FED267BCDE91C70CDE92100B1
:101C0000CDE90206281D8DED067B05F089F9002837
:101C1000BDD101992046FFF75FFE0028B7D12046CD
:101C2000FFF7DEFE07460028B1D1B8F1000FB2D1B0
:101C30004FF4807308AA16A9281D1C93EB231A974A
:101C400016934FF440631D934FF4005319934FF4D0
:101C500040431E93A023189306231B934FF08053F9
:101C60009FED0D7B23934FF04073CDE921771F93B8
:101C70008DED087B05F0E8F900288CD084F85C60D5
:101C800088E7032384F85C3084E700BFAFF300806B
:101C90000000000000004000000000000000000004
:101CA00010100024005000522DE9F0478CB03E4B3C
:101CB0000024026800AF9A42FC62C7E90744C7E902
:101CC000094403D03037BD46BDE8F087374B40F6B6
:101CD00009213748EA46D3F8D42007F11405354ED8
:101CE00007F11A0842F48042C3F8D420D3F8D42074
:101CF00002F480423A603A68D3F8E02042F04002B1
:101D0000C3F8E020D3F8E02002F040027A607A685D
:101D1000D3F8E02042F02002C3F8E020D3F8E0201E
:101D200002F02002BA60BA68D3F8E02042F0100254
:101D3000C3F8E020D3F8E02002F01002FA60FA685D
:101D4000D3F8E02042F00202C3F8E020D3F8E030FC
:101D5000786103F0020339833B613B6956F8040F55
:101D600001F0AEFA8146306801F0B2FA0223F86160
:101D700007F11C014846C7E908340323BB6215F884
:101D8000013BFB6202F054FC4545E7D100225C2098
:101D9000114601F0EBFB5C2001F018FC3037D54612
:101DA000BD46BDE8F08700BF005000520044025815
:101DB0000A0A09096C100024114B02689A4200D0EB
:101DC0007047104A70B5D2F8D4300F4C23F48043DA
:101DD00004F11806C2F8D43054F8040F01F070FA78
:101DE0000546206801F074FA0146284602F018FE04
:101DF000B442F1D15C20BDE8704001F0F5BB00BFFA
:101E000000500052004402586C100024014805F0B4
:101E1000A5B900BF20100024074B1A1D03F1020CC6
:101E2000981D03F108019A6603F10A02C3E9183C00
:101E3000C3E91B015A677047101000242DE9F041D7
:101E4000821D05468AB0031D05F10A010830CDE95F
:101E5000052305F10C02AB69CDE907010992002BBE
:101E60003AD0EF69B7FA87F77F090123022205AE5E
:101E70004FF006080393CDE9012356F8044B2B7964
:101E80002278934216D02B68EBB1012B02D1EAB134
:101E90000A230493204601F01BFA0090204601F02B
:101EA0000FFA694602F0C4FB0AAB9E42E5D10AB0C4
:101EB000BDE8F081697963789942E4D1002FF3D0CD
:101EC0002B68002BE1D1CDF81080E3E76378022B7B
:101ED0000CBF08230A23DCE70127C6E7AE49024608
:101EE00003688B4200B58DB000F08A8020318B42B0
:101EF00000F08680A9498B4204D020318B4201D06A
:101F00000DB000BDA64B0092D3F8E010A54841F0FB
:101F10000101C3F8E010D3F8E01001F001010791CE
:101F20000799D3F8E01041F00801C3F8E010D3F8A6
:101F3000E01001F0080108910899D3F8E01041F091
:101F40004001C3F8E010D3F8E01001F0400109911E
:101F50000999D3F8F01041F40001C3F8F010D3F858
:101F6000F01001F400010A910A99FFF767FF8C4B0A
:101F7000009AD3F8D800D2F800C08B4940F0010293
:101F8000D1F85C02C3F8D820D3F8D83003F00103AD
:101F90000B93824B0B9A9C4500F0BB80D1F88032AA
:101FA000013B18BF01239A01002840F0E1807F48DF
:101FB00001F22C434FF0580C01F54771C1F81001A4
:101FC0000020019100935862C3E901C24FF4806C74
:101FD0004FF48052C3E9030C5A614FF4804C4FF424
:101FE00080721846C3E906C24FF400321A6201F04B
:101FF00067FCDDE90031002800F0A180FFBEFEE7AC
:10200000674B0092D3F8E010674841F00101C3F834
:10201000E010D3F8E01001F0010102910299D3F829
:10202000E01041F01001C3F8E010D3F8E01001F027
:10203000100103910399D3F8E01041F04001C3F877
:10204000E010D3F8E01001F0400104910499D3F8B6
:10205000F01041F48001C3F8F010D3F8F01001F44F
:10206000800105910599FFF7E9FE4D4B009AD3F8E1
:10207000D810D2F800E041F00101DFF81CC14A4855
:10208000C3F8D810E645D3F8D830026803F001034E
:102090000693069B2DD0436A013B18BF012399018B
:1020A000002A5BD1414A4FF0580C00F5E873C0F8A4
:1020B000D02100F1C0020020019200935862C3E9D0
:1020C00001C14FF4806C4FF48051C3E9030C596196
:1020D0004FF4804C4FF480711846C3E906C14FF4A9
:1020E0000031196201F0ECFBDDE9003210B3FFBEF4
:1020F000FEE7036A013B18BF0123990122BB2C4A6A
:102100004FF0570C00F5AC73C0F8582100F12802CD
:10211000D1E7D1F87C32013B18BF01239A0188BB7B
:10212000234801F56D734FF0570C01F52171C1F88B
:10213000300145E7C2E920339A630DB000BDC1E923
:10214000203399630DB000BD1A4A4FF0590C00F5C9
:10215000AC73C0F8582100F12802ACE7164A4FF0E2
:102160005A0C00F5E873C0F8D02100F1C002A2E7D4
:10217000114801F22C434FF05A0C01F54771C1F898
:1021800010011DE70B4801F56D734FF0590C01F577
:102190002171C1F8300113E704580140045C01408B
:1021A00000440258E4120024881000242800024051
:1021B000100002405800024070000240014801F047
:1021C000D5BE00BFE0110024014801F0CFBE00BF22
:1021D00058120024014801F0C9BE00BF3C1400247D
:1021E000014801F0C3BE00BFB41400240000000089
:1021F0002DE9F047D1F800C04FF41777764D86B03F
:1022000007FB0CF7BCF1010F05EB0708C0F80080D5
:1022100000F39C804FF0000907F512730E460C4640
:1022200045F803902B44C646C3F80490C8F8509272
:1022300065A3D3E9002366A1D1E90001CDE902231A
:102240000DEB8C03CDE904019A681B6900920193A0
:102250000FCCAEE80F000FCCAEE80F00009A019B48
:1022600094E80300C8F828208EE80300C8F8C030BE
:102270003369042B0DD8DFE803F07D8791037400E8
:102280004FF417734BF6803203FB0C539A64C3F878
:10229000E020B269316A002A54D000294FF00102CF
:1022A00014BF032102214FF4177303FB0C53C3E93E
:1022B0000B12F269716A002A4CD1891A18BF0121E8
:1022C00070694FF41773022803FB0C53C3E93112F2
:1022D00006D8424B13F80090414B53F820309A46F1
:1022E0004FF4177300223F4907F1280003FB0CF35A
:1022F000284403F1380403F1500C03F1D0060A51CD
:102300000C44626003F1E8042B445A645A6341F8B8
:102310000C208C44CCF80420DA658A510E4472609B
:10232000C3F8DC20C3F8CC200A510C44514662604B
:10233000C3F8F42002234A4607F076F8002837D085
:10234000FFBEFEE7891A18BF0121ACE7012006B0E5
:10235000BDE8F08700294FF0010214BF03210221DC
:10236000AEE74FF41773204A03FB0C539A64C3F88B
:10237000E0208EE74FF417734FF4FA5203FB0C532F
:102380009A64C3F8E02084E74FF417734FF47A524D
:1023900003FB0C539A64C3F8E0207AE74FF41773F9
:1023A0004FF4FA4203FB0C539A64C3F8E02070E741
:1023B00007F1C00002234A465146284407F034F88A
:1023C0000028C4D0FFBEFEE704580140045C014071
:1023D00024580140245C01408810002404090108AD
:1023E000F80801088C10002400770100006870478D
:1023F00003681B69042B05D8044A02EB830393EDA1
:10240000000A70479FED020A704700BFE408010808
:1024100000803B4708B501F06DF8BDE8084001F0C9
:102420005DB900BF064808B503680BB102F020FC97
:10243000044803681BB1BDE8084003F081BC08BD37
:10244000603F002450350024064808B503680BB1EE
:1024500002F00EFC044803681BB1BDE8084003F01D
:102460006FBC08BD603F002450350024064808B505
:1024700003680BB102F0FCFB044803681BB1BDE824
:10248000084003F05DBC08BD603F002450350024C7
:10249000364BDA6A520062D59A6A9A6A9A6A9B6ADD
:1024A000180600D500BE314B9B6A990600D500BEC8
:1024B0002E4B9B6ADA0600D500BE2C4B9B6A1B078D
:1024C00000D500BE294B9B6A980700D500BE274B5C
:1024D0009B6AD90700D500BE244B9B6A1A0400D51D
:1024E00000BE224B9B6A9B0400D500BE1F4B9B6A1B
:1024F000D80400D500BE1D4B9B6A190500D500BE4F
:102500001A4B9B6A5A0500D500BE184B9B6A9B0567
:1025100000D500BE154B9B6AD80500D500BE134BF5
:102520009B6A990100D500BE104B9B6ADA0100D569
:1025300000BE0E4B9B6A1B0300D500BE0B4B9B6A73
:10254000580300D500BE094B9B6A990300D500BE15
:10255000064B9B6ADA0306D400BE00BEFEE7DB6AC8
:102560009B07FAD5F8E700BEF6E700BF00ED00E0F4
:1025700000F0D2BF0A4B9B6803F17843B3F5003FEC
:102580000BD3084B986848B19868012806D0986822
:10259000022803D09868032070470120704700BFCD
:1025A00000ED00E0000080382DE9F041CEB0044697
:1025B0004C2200210AA80CF0B9FF2022002102A819
:1025C0000CF0B4FFBC2200211EA80CF0AFFF0220CB
:1025D00004F06AF92368012B51D0524900220225E8
:1025E0000192C86A504A20F00100C862C820C96A36
:1025F00001F001010191916941F4404191619269B9
:1026000002F440420192019B474A93699904FCD528
:1026100046490224002201268B6A4FF0040808274D
:1026200023F0030323438B62052316900AA8189313
:102630004FF48033109617941994CDF854801A975C
:10264000CDE91B222122CDE91344CDE90A2304F070
:10265000A9FE00B1FEE7402329463F224FF48065E2
:102660000993049002A805970895CDE90633032342
:10267000CDE9022305F0B2F90346C8B1FEE72A49C5
:1026800000226B46042500928869264A40F44040A7
:102690008861F020896901F440410091D16A41F0DC
:1026A0000101D162D26A02F0010200921B68ABE71D
:1026B0004FF480324FF4805122941EA846922F94FA
:1026C0003394062435912197CDF8A8802C951F9638
:1026D0002396CDE92531CDE93032CDE92D330022E5
:1026E0004FF48071CDE93B334FF4401343911021F7
:1026F000CDE93E2340F2271280232991249334937D
:102700000C23CDE92742202220932B92084A1E92C7
:1027100005F0ACFB00B1FEE704F0ECF84EB0BDE80C
:10272000F08100BF000400580048025800440258DD
:102730000F130F0370B584B0012400F07DFF4FF438
:1027400080764FF04052194B6846ADF80040019238
:1027500000250293039600F08DFF192368468DF83B
:102760000F408DF808304FF04043ADF80D600193F5
:102770008DF801408DF80A5000F07CFF02230B22F7
:1027800068468DF80F508DF801304FF062538DF888
:1027900008200193ADF80D408DF80A4000F06AFF63
:1027A000042000F057FF04B070BD00BF0E0001030D
:1027B00030B50C46054685B0D1E9000185E8030037
:1027C00000F062FEA379A3B30AF064FCFEF71EFFDB
:1027D00009F0EAF80AF050F923798BBB63799BB1D1
:1027E000BFF34F8FBFF36F8F2A4B0022C3F85022E5
:1027F000BFF34F8FBFF36F8F5A6942F400325A61B3
:10280000BFF34F8FBFF36F8F4FF0FF3200230024D1
:1028100000256946204802928DF80C30CDE900452C
:1028200009F0C2FC1C4809F021FD08F069FD05B063
:1028300030BD2846FFF7B8FE2846FFF77BFFC3E709
:1028400014480023C0F88430BFF34F8FD0F8803095
:1028500043F6E075C3F34E3CC3F3C90E4FEA4C1C7C
:102860000CEA0501734641EA8372013BC0F860221D
:102870005A1CF8D1ACF1200C1CF1200FF0D1BFF3A1
:102880004F8F436943F480334361BFF34F8FBFF3EE
:102890006F8FA3E700ED00E04015002405F0CAB9F2
:1028A0001C4B9B6803F17842B2F5003F25D3B3F58A
:1028B000803F20D303F16042B2F5003F1FD303F104
:1028C0005C42B2F5002F1CD303F17042B2F5902F99
:1028D00019D303F14842B2F5803F16D303F1804289
:1028E000B2F1806F13D303F1E043B3F5000F34BFAF
:1028F0000720082070470120704700207047022001
:102900007047032070470420704705207047062059
:10291000704700BF00ED00E0014B00221A607047D5
:1029200040150024DFF88CC082B01F4B0022DCF879
:1029300088001E4940F47000CCF888001868DFF861
:1029400078C040F0010018601A61186801401960F1
:102950009A61DA611A629A62DA621A635A639A6356
:10296000DA631A645A64196821F4802119601A66BE
:10297000D3F8DC2042F06042C3F8DC20D3F8DC302E
:102980000193019BDCF800306FF30F03B3F1005F9C
:1029900003D2074B0122C3F80821064B4FF0006217
:1029A0009A6002B0704700BF004402587FEDF6EA1B
:1029B0000080005100ED00E00010005C704700BF97
:1029C0000020704738B504460D460748214607F0F9
:1029D0008BFF054807F0AAFF044B204629461B68D9
:1029E0009847002038BD00BF740700244815002414
:1029F00038B504460D460748214607F075FF0548DF
:102A000007F094FF044B204629461B689847002096
:102A100038BD00BF100A00244415002400220949D3
:102A2000094808B507F056FF0849074807F05CFF5A
:102A3000074B1A680AB1002008BD064A00201A6038
:102A400008BD00BF4C250024740700244C2D002431
:102A500048150024BD29000800220949094808B585
:102A600007F038FF0849074807F03EFF074B1A6890
:102A70000AB1002008BD064A00201A6008BD00BF48
:102A80004C150024100A00244C1D00244415002479
:102A9000BD29000820280CD0212801D00020704733
:102AA000094B18689A889B79086000208A808B718E
:102AB0007047054B0868B1F804C08A791860002097
:102AC000A3F804C09A7170475800002420280CD045
:102AD000212801D000207047094B18689A889B79FB
:102AE000086000208A808B717047054B0868B1F838
:102AF00004C08A7918600020A3F804C09A71704756
:102B0000500000240020704708B5094BD3F89022EC
:102B1000D2F814220AB1012008BD0A46014618461F
:102B200007F0D8FE0248BDE8084007F0E5BE00BF48
:102B3000740700240000000003684F4A10B5934258
:102B40008AB04FF00004CDE90444CDE9064408946E
:102B500004D04A4A934249D00AB010BD484B4FF4C2
:102B6000C0500221D3F8E02042F00102C3F8E02077
:102B7000D3F8E02002F001020092009A0A22CDE987
:102B8000040104A93F48089201F052FD04A93D4800
:102B900006949FED357B8DED047B01F049FD384BAC
:102BA00022462146D3F8D80040F00060C3F8D80090
:102BB0006220D3F8D83003F000630193019B00F04A
:102BC000D5FC622000F002FD22462146632000F081
:102BD000CDFC632000F0FAFC22462146652000F07F
:102BE000C5FC652000F0F2FC0AB010BD244B04A91E
:102BF0002548D3F8E02042F00202C3F8E020D3F8E1
:102C0000E02002F002029FED1A7B0292029A0C224F
:102C10008DED047B089201F00BFD194B22462146F5
:102C2000D3F8D80040F00070C3F8D8004A20D3F899
:102C3000D83003F000730393039B00F097FC4A2005
:102C400000F0C4FC224621464B2000F08FFC4B20B4
:102C500000F0BCFC224621464D2000F087FC4D20B0
:102C600000F0B4FC0AB010BD00020000000000003B
:102C700000C0000002000000000008400000044006
:102C800000440258000002580004025800F5717117
:102C9000D0F8040407F0B8BE0346C1EBC102D0F877
:102CA000040403EB8203D3F8082207F0E1BE00BF5F
:102CB0000346C1EBC102D0F8040403EB82039A6C13
:102CC00007F016BFD0F8040407F0BABFC16819B105
:102CD000022900D0FEE701210346D0F8040400B524
:102CE00083B0019307F096FF019BD3F8040403B06F
:102CF0005DF804EB07F066BF10B50446D0F8040495
:102D000007F08CFF2268D2F8003E43F00103C2F8BE
:102D1000003E236A23B1034A136943F0060313619B
:102D200010BD00BF00ED00E0D0F8040407F080BF44
:102D3000D0F8040407F094BFD0F8040407F08EBF65
:102D4000D0F8040407F08EBFD0F8040407F08CBF5D
:102D500030B5037883B0054623B1012B2ED0002077
:102D600003B030BD2C4C02222C49C4F8040421606D
:102D70000921C0F89842012061600121A2616362CB
:102D800023630193C4E90A012046C4E90323C4E98B
:102D9000073302F01BFF00B1FEE78021204603F05D
:102DA00067FD40220199204603F0DCFC80220121CE
:102DB000204603F0D7FC2B78012BD0D1184C0022F1
:102DC0001848022122616263C4F80454206020463E
:102DD000C5F89842E160A1610193C4E90722C4E902
:102DE0000923C4E90B220922626002F0EFFE0546C6
:102DF00000B1FEE74FF40071204603F039FD29468B
:102E00008022204603F0AEFC4FF4BA7201992046AE
:102E100003F0A8FCA3E700BF5839002400000840D5
:102E2000503500240000044008B5D0F8980202F0A4
:102E300065FF18B102280CBF0120022008BD00BFA9
:102E40009446D0F898021A4608B5634603F030FB62
:102E500018B102280CBF0120022008BD08B5D0F827
:102E6000980203F063FB18B102280CBF0120022076
:102E700008BD00BF08B5D0F8980203F0EBFB18B10D
:102E800002280CBF0120022008BD00BF08B5D0F801
:102E9000980203F02BFC18B102280CBF012002207D
:102EA00008BD00BF0A06D0F8983206D4C1EBC101B4
:102EB00003EB810393F8FE01704701F07F01C1EB42
:102EC000C10103EB810393F83E00704708B5D0F8C9
:102ED000980203F0D3FA18B102280CBF0120022097
:102EE00008BD00BF08B5D0F8980203F08BFB18B1FD
:102EF00002280CBF0120022008BD00BF08B5D0F891
:102F0000980203F049FB18B102280CBF01200220EF
:102F100008BD00BFD0F8980203F06ABB1223014835
:102F20000B807047A0000024122301480B807047DB
:102F3000D0000024042301480B8070479C0000242B
:102F40000A460348034908B508F01EF9014808BDC0
:102F500058080108603D00240A460348034908B5A3
:102F600008F012F9014808BD68080108603D002416
:102F70000A460348034908B508F006F9014808BDA8
:102F80007C080108603D00240A460348034908B54F
:102F900008F0FAF8014808BD88080108603D0024DF
:102FA0000A460348034908B508F0EEF8014808BD91
:102FB00098080108603D0024042301480B807047F5
:102FC0009C0000240A460348034908B508F0DCF8D1
:102FD000014808BD58080108603D00244B4A4FF0E5
:102FE0001A0CD2F80038D2F80808A1F800C01B1853
:102FF00001D147487047180FD2F80418444A4FF0DF
:10300000000C092882F803C04FF0000C8CBF373049
:10301000303082F805C04FF0000C9070C3F30360AD
:1030200082F807C04FF0000C092882F809C04FF061
:10303000000C8CBF3730303082F80BC04FF0000CE2
:103040001071C3F3035082F80DC04FF0000C092833
:1030500082F80FC04FF0000C8CBF3730303082F850
:1030600011C04FF0000C9071C3F3034082F813C0FD
:103070004FF0000C092882F815C04FF0000C8CBFEF
:103080003730303082F817C01072C3F3033009288C
:103090008CBF373030309072C3F3032009288CBFC7
:1030A000373030301073C3F3031003F00F030928D7
:1030B0008CBF37303030092B90734FEA117094BFBA
:1030C0003033373309281374C1F303638CBF3730AF
:1030D0003030092B90748CBF03F1370003F13000BE
:1030E000C1F303531075092B8CBF03F1370003F1B3
:1030F0003000C1F3034300219075092B0448517639
:1031000094BF303337331376704700BF00E0F11FB0
:10311000800000244B4A4FF01A0CD2F80038D2F845
:103120000808A1F800C01B1801D147487047180FC4
:10313000D2F80418444A4FF0000C092882F803C062
:103140004FF0000C8CBF3730303082F805C04FF0A4
:10315000000C9070C3F3036082F807C04FF0000CBE
:10316000092882F809C04FF0000C8CBF373030308E
:1031700082F80BC04FF0000C1071C3F3035082F8BB
:103180000DC04FF0000C092882F80FC04FF0000C62
:103190008CBF3730303082F811C04FF0000C907186
:1031A000C3F3034082F813C04FF0000C092882F8E3
:1031B00015C04FF0000C8CBF3730303082F817C08C
:1031C0001072C3F3033009288CBF3730303090724F
:1031D000C3F3032009288CBF373030301073C3F39A
:1031E000031003F00F0309288CBF37303030092B50
:1031F00090734FEA117094BF30333733092813743A
:10320000C1F303638CBF37303030092B90748CBF0F
:1032100003F1370003F13000C1F303531075092B9C
:103220008CBF03F1370003F13000C1F303430021E9
:103230009075092B0448517694BF30333733137699
:10324000704700BF00E0F11F800000240A460348D9
:10325000034908B507F098FF014808BD8808010830
:10326000603D00240A460348034908B507F08CFF77
:10327000014808BD7C080108603D0024D0F8C00268
:1032800007F0F8BFD0F8C00208F00CB8D0F8C002C0
:1032900008F014B8704700BFD0F8C00207F0FABFBA
:1032A000D0F8C00207F0FABF08B5D0F8D00302F09A
:1032B00033F918B102280CBF0120022008BD00BF5D
:1032C000024B027853F82200704700BF380901080A
:1032D000024B427833F81200704700BF180901080A
:1032E0008CB00A2814D8DFE800F023313F4D5B6929
:1032F0007785930615004D4BD3F8E02042F4007219
:10330000C3F8E020D3F8E03003F400730A930A9B7B
:103310000CB07047454BD3F8E02042F48062C3F80C
:10332000E020D3F8E03003F480630B930B9BEFE7CE
:103330003E4BD3F8E02042F00102C3F8E020D3F87E
:10334000E03003F001030193019BE1E7374BD3F831
:10335000E02042F00202C3F8E020D3F8E03003F0AE
:1033600002030293029BD3E7304BD3F8E02042F0F4
:103370000402C3F8E020D3F8E03003F00403039321
:10338000039BC5E7294BD3F8E02042F00802C3F8BD
:10339000E020D3F8E03003F008030493049BB7E780
:1033A000224BD3F8E02042F01002C3F8E020D3F81B
:1033B000E03003F010030593059BA9E71B4BD3F8FE
:1033C000E02042F02002C3F8E020D3F8E03003F020
:1033D00020030693069B9BE7144BD3F8E02042F0B2
:1033E0004002C3F8E020D3F8E03003F04003079335
:1033F000079B8DE70D4BD3F8E02042F08002C3F825
:10340000E020D3F8E03003F080030893089B7FE7C7
:10341000064BD3F8E02042F48072C3F8E020D3F8E2
:10342000E03003F480730993099B71E7004402586C
:10343000704700BF114B1B780BB90120704700B5D6
:1034400083B00F4A01904FF47A70B0FBF3F3106829
:10345000B0FBF3F000F0DAF801990F2900D810B1B1
:10346000012003B000BD02464FF0FF3000F07EF8AF
:10347000044B00200199196003B000BD0001002435
:103480004C0000240401002400B5032083B000F0A8
:103490005BF804F013FA134ADFF850C09369DFF8C1
:1034A00050E0C3F3032310491CF8033003F01F035B
:1034B00020FA03F30E20CEF80030926902F00F02DA
:1034C0001CF8022002F01F02D3400B60FFF7B2FF8E
:1034D00010B1012003B000BD0190FFF7A9FF0198D2
:1034E00003B000BD00440258480000240809010848
:1034F0004C000024034A044B11681B780B441360F2
:10350000704700BF2442002400010024014B1868CA
:10351000704700BF2442002438B50446FFF7F6FF89
:103520000546631C02D0044B1B781C44FFF7EEFFDA
:10353000401BA042FAD338BD00010024014B18689B
:10354000000C70470010005C06494FF6FF0C0002AB
:10355000054BCA6800F4E06002EA0C021043034322
:10356000CB60704700ED00E00000FA05144BDB680B
:10357000C3F30223A3F1030CBCF1040F00B516D86A
:103580004FF0FF3EC3F107030EFA03F30EFA0CFEF1
:10359000DB4322EA0E021940002801FA0CF141EA4D
:1035A00002014FEA011106DB064B195400BD00224F
:1035B0000F239446EFE700F00F00034B195400BDB2
:1035C00000ED00E000E400E014ED00E0002807DB7F
:1035D00000F01F0101234009024A8B4042F82030CD
:1035E000704700BF00E100E000280CDB4309012226
:1035F00000F01F0004492033824041F82320BFF32C
:103600004F8FBFF36F8F704700E100E0431EB3F1AF
:10361000807F01D3012070474FF0E0220020054950
:103620004FF0F00C5361072381F823C090611361C0
:10363000704700BF00ED00E0BFF35F8F044B002137
:103640005A6A22F480325A62C3F89410704700BF5D
:1036500000ED00E0064B40F00100C3F894005A6A08
:1036600042F480325A62BFF34F8FBFF36F8F7047BF
:1036700000ED00E0174A4378C2F89830017819B39A
:10368000436800B5C2F89C30C37A90F80CC01B06A2
:1036900090F80FE043EA0C7390F80AC00B43817B6B
:1036A00043EACC4390F80DC043EA8C4390F809C03C
:1036B00043EA4143017A43EA0E4343EA0C2343EAD7
:1036C0004103C2F8A03000BDC2F89C10C2F8A0109F
:1036D000704700BF00ED00E0704700BF08B5FFF77E
:1036E000FBFF08BD354A01460368934233D01832C8
:1036F0009A1AB2FA82F252096ABB3148834238D030
:10370000183083423BD01830834236D01830834281
:1037100038D0183083423BD0183083422CD000F58B
:103720005670834232D0274A934234D018329342A3
:1037300034D01832934228D01832934231D0183204
:10374000934231D01832934231D01832934231D063
:1037500023F0FF000BE0DBB21B4ADFF880C0103B18
:103760001A48A2FB03231B091CF80320CA658865BD
:10377000704710221548F9E716221548F6E7162279
:103780001248F3E706221248F0E716221148EDE747
:1037900010220F48EAE706220E48E7E710220D48FC
:1037A000E4E700220C48E1E706220B48DEE710229E
:1037B0000948DBE716220848D8E700BF100002409E
:1037C0004000024028040240ABAAAAAA000002401E
:1037D0000400024000040240040402406809010899
:1037E00002682C4B2C49DFF8C8C08A4218BF9A42A5
:1037F00001F128010CBF01230023624508BF43F0FB
:1038000001030CF1280C8A4208BF43F00103283160
:10381000624508BF43F001038A4208BF43F0010339
:1038200014318A4208BF43F00103D1B200B513B985
:103830001A4B9A4213D1A1F10803DFF878C0184A55
:103840000121ACFB03C34FEA131E02EB1313154A0D
:1038500001FA0EF19B008166C0E9183200BDA1F1AA
:1038600010031149DFF850C05118ACFB03C3A8295D
:103870004FEA13130BD903F01F0CDFF840E00121CE
:103880000A4A9E4401FA0CF14FEA8E03E3E708333B
:103890009C46F2E7085402581C54025894540258AB
:1038A0000096001680580258F0FBFDBF80080240C9
:1038B00030540258CDCCCCCCABAAAAAA00820010BE
:1038C00070B50446FFF722FE002C00F0F780236855
:1038D0000546A74A934200F0948018329A1AB2FA29
:1038E00082F25209002A40F08C80A2498B4200F0FB
:1038F000DA8018318B4200F0D68018318B4200F00C
:10390000D28018318B4200F0CE8018318B4200F00B
:10391000CA8018318B4200F0C680974A934270D01B
:10392000183293426DD0183293426AD018329342C3
:1039300067D01832934264D01832934261D0183263
:1039400093425ED0183293425BD08C4A8C488D49AA
:10395000834218BF934200F128000CBF01220022CD
:103960008B4208BF42F001022831834208BF42F077
:10397000010228308B4208BF42F001022831834205
:1039800008BF42F001028B4208BF42F001021AB99F
:103990007D4A934240F0268100200221A26884F8EB
:1039A000340084F83510402A1D686FF3101500F0BC
:1039B0001781A2F18002B2FA82F252099103E669FC
:1039C000D4E90320104362691043A26910436F4A8F
:1039D0003043266A9A1845EA161545EAD000014395
:1039E0006B48A0FB02022046196013099B00E365A7
:1039F000FFF778FEE16D012201F01F018A4042606D
:103A000036E00021022284F8341084F835201A6848
:103A100022F001021A6005E0FFF778FD401B05283F
:103A200047D823681A68D107F6D4D4E9022521695A
:103A30002A43A0691D680A4361690A43E169024398
:103A40000A4354492940256A2A430A43616A0429E2
:103A500036D01A605A6922F0070211435961204694
:103A6000FFF740FEE26D3F2302F01F0293408360A8
:103A70002046FFF7B5FEA368A16E802BD4E918524B
:103A800070D06368D8B2013B072B2860516034D9ED
:103A90000023C4E91B3363670023012263651846D2
:103AA00084F8352070BD022184F8342084F8351064
:103AB000ADE720220323626584F83530012070BD14
:103AC000D4E90B5129431143A26A1960596921F0C5
:103AD0000701114341F00401002DBFD000285FD140
:103AE000012A73D032F00202B8D1EA01B6D54022E1
:103AF0000123626584F83530E0E72268411E1F4BE0
:103B00001F4DAA4218BF9A4205F114050CBF0123AC
:103B10000023AA4208BF43F001031435AA4208BF9C
:103B200043F001031435AA4208BF43F001031435E2
:103B3000AA4208BF43F001031435AA4208BF43F06C
:103B4000010313B9104B9A4245D1134A134D821801
:103B5000920001238B400021C4E91B25636711609B
:103B60006B6099E7002363602B60516090E700BFB2
:103B70001000024040000240100402400854025865
:103B80001C5402583054025894540258F8ABFDA704
:103B9000CDCCCCCC3F8010FE3F9600164059025849
:103BA000B0F5005F04D0022AA1D9032A9DD055E7C1
:103BB000032A3FF653AF01A050F822F0EF3A000875
:103BC000EB3A0008EF3A0008CD3B0008B5F1C07FA2
:103BD0007FF444AF8BE7064A064D82189200B8E79F
:103BE0001021ECE640220323626584F8353065E756
:103BF0003F82001040090240002800F027812DE993
:103C0000F0479E4690F83430012B00F0C680012327
:103C100080F8343090F83530012B08D000224FF472
:103C2000006380F8342043650120BDE8F08702235B
:103C3000D0F800C0894C80F835300023856D43658D
:103C4000874BA846456EA44518BF9C4504F118044F
:103C5000A946856E0CBF01230023824EAA46A445C7
:103C600008BF43F0010318347F4DA44508BF43F05B
:103C700001031834A44508BF43F001031834A445D8
:103C800008BF43F0010304F55674A44508BF43F090
:103C900001031834A44508BF43F001031834A445B8
:103CA00008BF43F001031834A44508BF43F00103E3
:103CB0001834A44508BF43F001031834A44508BFD5
:103CC00043F001031834A44508BF43F0010318343E
:103CD000A44514BF1C4643F00104B44518BFAC45CD
:103CE000C36E0CBF0125002527462E4601D0002CAF
:103CF00056D0DCF8004024F00104CCF80040C9F8AC
:103D000004A02BB1D0E91C4565600EB9002F53D03B
:103D1000C46D3F2504F01F0405FA04F4C8F80840F8
:103D2000DCF8004024F48024CCF800408468CCF80F
:103D300004E0402C2CD0CCF80810CCF80C200EB9A4
:103D4000002F70D0DCF8002022F01E0242F0160294
:103D5000CCF80020026C2AB1DCF8002042F0080206
:103D6000CCF80020026E1168C90303D5116841F434
:103D7000807111601BB11A6842F480721A60DCF81D
:103D80000030002043F00103CCF80030BDE8F0879C
:103D9000CCF80820CCF80C10D1E70220BDE8F08761
:103DA000DCF8004024F00104CCF80040C9F804A07D
:103DB00013B1D0E91C4565602C4C2D4DAC4518BFA6
:103DC000A44505F114050CBF01240024AC4508BF2F
:103DD00044F001041435AC4508BF44F00104143527
:103DE000AC4508BF44F001041435AC4508BF44F0AD
:103DF00001041435AC4508BF44F0010414B91D4C4E
:103E0000A44510D1C46D012504F01F0405FA04F483
:103E1000C8F804408468CCF804E0402C18D0CCF8F2
:103E20000810CCF80C20DCF80020016C22F00E0207
:103E300042F00A02CCF80020026E002993D0DCF890
:103E4000001041F00401CCF800108CE7012070470D
:103E5000CCF80820CCF80C10E5E700BF5800024071
:103E6000400002402800024010000240085402585E
:103E70001C54025894540258002873D008B590F886
:103E80003530022B61D10368374A934261D0183232
:103E900093425ED0183293425BD01832934258D08E
:103EA0001832934255D01832934252D0183293426E
:103EB0004FD0183293424CD002F55672934248D0FC
:103EC0001832934245D01832934242D0183293426E
:103ED0003FD0183293423CD01832934239D0183236
:103EE000934236D01832934233D01A68D0F860C06B
:103EF00022F00E02C16DD0F858E01A6001F01F01E7
:103F00001A6822F001021A600123DCF800208B40BD
:103F100022F48072CCF80020CEF80430C36ED0E9D1
:103F2000192151603BB11A68D0E91C1C22F480723F
:103F30001A60C1F804C000210122036D80F834101A
:103F400080F8352063B198470AE08023436501205B
:103F500008BD042280F835201A6822F001021A6098
:103F6000002008BD0120704710000240484B00228D
:103F70002DE9F041D3F8008086B00368454E464CE9
:103F80000592A34218BFB342826D08BF4FF0010CE7
:103F9000156818BF4FF0000C176800F085801834C2
:103FA000A34200F025821834A34200F02182183485
:103FB000A34200F01D821834A34200F01982183485
:103FC000A34200F015821834A34200F0118204F5D8
:103FD0005674A34200F00C821834A34200F0088209
:103FE0001834A34200F004821834A34200F0008287
:103FF0001834A34200F0FC811834A34200F0F88189
:104000001834A34200F0F4811834A34200F0F08188
:104010002249234CA34218BF8B4204F114040CBF65
:1040200001210021A34208BF41F001011434A34241
:1040300008BF41F001011434A34208BF41F001015F
:104040001434A34208BF41F001011434A34208BF55
:1040500041F0010111B913498B4216D1C46D0425F9
:10406000196804F01F04A5403D4200F087824E0706
:1040700040F1848255600A0440F1B282CB0300F122
:10408000B582836C002B40F09F8106B0BDE8F081C3
:104090004C0000241000024028000240085402583E
:1040A0001C54025894540258D0F85CE008240EF0D6
:1040B0001F06B440254200F08B811F68790708D5A0
:1040C0001F6827F004071F609460446D44F00104EA
:1040D000446525FA06F4E70752D5BCF1000F45D137
:1040E000924C934FBB4218BFA34207F130070CBF5D
:1040F00001240024BB4208BF44F001041837BB422E
:1041000008BF44F001041837BB4208BF44F0010463
:104110001837BB4208BF44F0010407F55677BB428D
:1041200008BF44F001041837BB4208BF44F0010443
:104130001837BB4208BF44F001041837BB4208BF20
:1041400044F001041837BB4208BF44F0010418379B
:10415000BB4208BF44F001041837BB4208BF44F01B
:1041600001041CB9734CA34240F0FA815C69240637
:1041700006D50124B4409460446D44F002044465C3
:104180000427B7402F420BD0BCF1000F00F048814C
:104190001C68A10704D59760446D44F0040444658D
:1041A0001024B4402C4267D0BCF1000F49D1604EBE
:1041B0005E4FB34218BFBB4206F130060CBF4FF052
:1041C000010C4FF0000CB34208BF4CF0010C183644
:1041D000B34208BF4CF0010C1836B34208BF4CF094
:1041E000010C1836B34208BF4CF0010C06F55676A8
:1041F000B34208BF4CF0010C1836B34208BF4CF074
:10420000010C1836B34208BF4CF0010C1836B3420B
:1042100008BF4CF0010C1836B34208BF4CF0010C3B
:104220001836B34208BF4CF0010C1836B34208BF31
:104230004CF0010CBCF1000F03D11836B34240F032
:1042400099811E68C6F3C006B6B194601C68670306
:1042500000F134811C68E40503D41C6824F00804D0
:104260001C60036C43B10190CDE90282984701982C
:10427000DDE90282D0F85CE00EF01F0E202404FA83
:104280000EF42C4276D006682B4B2C4DAE4218BF54
:104290009E4205F118050CBF01230023AE4208BF62
:1042A00043F001031835AE4208BF43F0010318354F
:1042B000AE4208BF43F001031835AE4208BF43F0D9
:1042C00001031835AE4208BF43F001031835AE4272
:1042D00008BF43F0010305F55675AE4208BF43F031
:1042E00001031835AE4208BF43F001031835AE4252
:1042F00008BF43F001031835AE4208BF43F0010385
:104300001835AE4208BF43F001031835AE4208BF6E
:1043100043F001031835AE4208BF43F001037BB9F7
:10432000044B9E4240F03A810AE000BF5800024030
:1043300040000240B8040240100002402800024041
:104340003368C3F30013ABB1946090F83530042B9D
:10435000336800F0C48013F4802F336800F0DC80F1
:10436000190340F1F480C36B23B1CDE901089847EC
:10437000DDE90108436D002B3FF487AE436DDA079A
:104380001ED59D4C0268A4FB0841042480F83540EA
:10439000890A136823F00103136002E01368DB0746
:1043A00004D5059B01338B420593F7D9002380F890
:1043B00034301368DF074CBF0323012380F8353006
:1043C000C36C002B3FF461AE06B0BDE8F041184766
:1043D00025FA06F4E4073FF5C9AE0427B7403D428D
:1043E0007FF4D6AE1024B44025427FF42AAF43E7D1
:1043F000D0F85CE008240EF01F06B44025427FF49C
:104400005CAE25FA06F4E1073FF5B0AE0427B740ED
:104410003D4205D11024B44025427FF4C8AE2BE7BD
:10442000764C77498B4218BFA34201F130010CBF93
:10443000012400248B4208BF44F0010418318B4250
:1044400008BF44F0010418318B4208BF44F0010456
:1044500018318B4208BF44F0010401F556718B42BC
:1044600008BF44F0010418318B4208BF44F0010436
:1044700018318B4208BF44F0010418318B4208BF49
:1044800044F0010418318B4208BF44F00104183194
:104490008B4208BF44F0010418318B4208BF44F03E
:1044A0000104002C7FF474AE564CA3423FF470AE6E
:1044B0001C681024B44025425CD1DDE61B681E0355
:1044C00037D4036C002B3FF4D7AE0190CDE90282C4
:1044D00098470198DDE90282D0F85CE0CCE623F051
:1044E00016033360736923F080037361036C002B40
:1044F00032D0336823F0080333603F23002103FAEE
:104500000EF393600122036D80F8341080F835209B
:10451000002B7FF459AFB8E513F480730DD0C36B53
:10452000002B3FF427AFCDE901089847DDE90108EA
:1045300020E7836C002BC8D19EE6326822F010027F
:104540003260012280F8343080F83520E7E7436C90
:10455000002B7FF40AAF0DE7836C002BC9D1CCE7A9
:104560001C680424B4402C42A2D11024B44025423B
:104570003FF482AE1E68C6F3800665E60225A540BC
:104580003D420FD08E070DD50F0455603CD5CE03AC
:1045900046D4436C002B7FF417AF76E53368C3F342
:1045A0004003D0E60825A5403D423FF46EAD0D071F
:1045B0007FF56BAD196821F00E0119600123002110
:1045C00003FA04F45460C26C436580F8341080F838
:1045D0003530002A3FF459AD06B0BDE8F041104730
:1045E0008F0603D41A6822F004021A60036C002BB1
:1045F0007FF4EAAE49E500BFB5814E1B580002408A
:1046000040000240B804024011F0200108D11A68AD
:10461000012422F00A021A6080F8341080F8354034
:10462000C36B002B7FF4D0AE2FE500BF406D704709
:104630000B68002B00F0DB81804A90424FF00002B3
:104640002DE9F04F85B000F0F1804FF00108DFF860
:10465000F8B14FF0B04E9A4600913DE0D70802F015
:1046600007040E690F2100EB8707A400D7F820C0CC
:10467000A64001FA04F403212CEA040C46EA0C06D5
:104680003E625700D0F800C003F0030601FA07F4B9
:104690000099BE402CEA040CE44346EA0C0606608E
:1046A0008E6806FA07FC86681B09009906EA040969
:1046B0009340CE68BE4046EA09068660466826EA10
:1046C00005052B434360C368234043EA0C03C360E2
:1046D00001323AFA02F37AD008FA02F515EA0A062C
:1046E000F6D000994B6823F01009B9F1020FB5D04C
:1046F00004685700032103F0030C019409F1FF390A
:1047000001FA07F401990CFA07FCB9F1010F21EA4B
:1047100004016FEA04044CEA010C00998968C0F8AE
:1047200000C001FA07FCBED9C568D90004EA050437
:1047300044EA0C04C460CBD5DBF8F44022F0030754
:1047400002F003050F2144F0020407F1B047AD0069
:10475000CBF8F44007F58067DBF8F44001FA05FC7C
:10476000374904F0020488420394039CBC6824EA9D
:104770000C0457D0334988422CD0DFF8D0C06045B4
:1047800000F03081DFF8C8C0604500F03181DFF80B
:10479000C4C0604500F02081DFF8BCC0604500F077
:1047A0002D81DFF8B8C0604500F02E81DFF8B0C081
:1047B000604500F02F81DFF8ACC060450CBF4FF0C2
:1047C000090C4FF00A0C0CFA05F52C4307E005B074
:1047D000BDE8F08F4FF0020C0CFA05F52C43BC60DD
:1047E000DF03DEF8804054BFB44334439D03CEF86A
:1047F0008040DEF8844054BFB4433443D902CEF83D
:104800008440DEF8004054BFB44334439B02CEF8EA
:104810000040DEF8044054BF24EA06062643CEF8E2
:10482000046055E708FA05F52C43D8E74FF0030B71
:10483000DFF814A04FF0B046994673E0000002582C
:10484000000402580008025800440258000C0258A4
:10485000001002580014025800180258001C025898
:1048600000200258002402586F1E4FEA420C0568CF
:1048700003F0030E00972F460BFA0CF50EFA0CFE10
:1048800027EA0507ED434EEA070EC0F800E08F68FF
:1048900007FA0CFE009F012F79D9C4682C4044EA26
:1048A0000E04C460DC0038D5DAF8F44022F00305C9
:1048B0000F2744F0020405F1B045CAF8F44005F5AD
:1048C0008065DAF8F44004F002040394039C02F0DB
:1048D0000304D5F808C0A40007FA04F4DF032CEAA7
:1048E0000404AC60D6F8804073D424EA08049D0325
:1048F000C6F88040D6F8844068D424EA0804DF0271
:10490000C6F8844034685ED424EA08049D0234600A
:10491000746855D424EA08047460013239FA02F349
:104920003FF455AF012303FA02F419EA0408F4D066
:104930004B6823F01005022D96D14FEAD20E02F0FB
:10494000070C0D690F2700EB8E0E4FEA8C0CDEF87A
:10495000208005FA0CF507FA0CFC28EA0C084FEA4F
:10496000420C45EA0805CEF820500BFA0CFED0F8B0
:10497000008003F0030528EA0E0805FA0CF545EA65
:10498000080505606FEA0E058F6807FA0CFED0F87F
:1049900008801B09CF6808EA0508934007FA0CFC59
:1049A0004CEA080CC0F808C0D0F804C02CEA040493
:1049B00023434360C3682B4043EA0E03C360ACE764
:1049C00048EA0404A8E748EA04049FE748EA040424
:1049D00095E744EA08048AE74FF0050C0CFA05F560
:1049E0002C43FCE6032101FA05F52C43F7E670475A
:1049F0004FF0040C0CFA05F52C43F0E64FF0060CD2
:104A00000CFA05F52C43EAE64FF0070C0CFA05F515
:104A10002C43E4E64FF0080C0CFA05F52C43DEE6D7
:104A2000002900F0FC80824B98422DE9F04F00F005
:104A3000908000234FF001084FF00F0A4FF0030B56
:104A40004FF0B04708FA03F212EA010C6FD023F0DE
:104A5000030603F00304774D06F1B046E400A842D4
:104A60000AFA04FED6F8089406F580660EEA0909EB
:104A700020D0714DA84264D0704DA84265D0704DD1
:104A8000A8425AD06F4DA84200F0C5806E4DA84292
:104A900000F0C6806D4DA84200F0B9806C4DA84270
:104AA00000F0C2806B4DA8420CBF09250A2505FA0B
:104AB00004F401E008FA04F4A14517D1B46824EA2B
:104AC0000E04B460D7F8804024EA0C04C7F8804094
:104AD000D7F8844024EA0C04C7F884403C6824EAF0
:104AE0000C043C607C6824EA0C047C605C00066872
:104AF0004FEAD30C0BFA04F400EB8C0C264306604F
:104B000003F00706DCF820E0B6000AFA06F62EEA03
:104B10000606CCF82060866826EA040686604668A9
:104B200026EA02024260C26822EA0402C26001333D
:104B300031FA03F286D1BDE8F08F042505FA04F4BA
:104B4000BAE7022505FA04F4B6E7032505FA04F4EA
:104B5000B2E700224FF0010C3F4C0F264FF0B04758
:104B60004FF0030E02F003030CFA02F522F00308E3
:104B7000DB0011EA0509A04406FA03F341D0D8F896
:104B800008A013EA0A0F19D1D8F808A02AEA0303EB
:104B9000C8F80830D7F8803023EA0903C7F8803016
:104BA000D7F8843023EA0903C7F884303B6823EA46
:104BB00009033B607B6823EA09037B604FEA4208F4
:104BC00003684FEAD2090EFA08F800EB890948EAAF
:104BD0000303036002F00703D9F820A09B0006FA44
:104BE00003F32AEA0303C9F82030836823EA0803A1
:104BF0008360436823EA05034360C36823EA08032C
:104C0000C360013231FA02F3ACD1BDE8F08F072561
:104C100005FA04F450E7052505FA04F44CE770475B
:104C2000062505FA04F447E7082505FA04F443E7E6
:104C3000000002580004025800080258000C0258F4
:104C4000001002580014025800180258001C0258A4
:104C50000020025800240258000400580369194239
:104C600014BF01200020704702B909048161704718
:104C700003682DE9F047044686B018461D4605F046
:104C800077FB012802D006B0BDE8F087206805F068
:104C90001FFB0028F7D0206805F01AFB820223686A
:104CA00002D54FF400125A61184605F011FBC702F5
:104CB000236802D54FF480125A61184605F008FBAC
:104CC0004601236802D54FF080625A61184605F00C
:104CD000FFFA8007236832D4184605F0F9FA8100FC
:104CE00000F12381206805F0F3FAC201236800F186
:104CF000DE80184605F0ECFA060700F1CC8020684B
:104D000005F0E6FA10F0007F20681BD105F0E0FA0C
:104D1000C306B8D523689A6922F010029A61196A0D
:104D200001F4F010C1F30A12B0F5802F02D1002A6D
:104D300040F029829A6942F010029A61A3E70222A8
:104D40005A61C9E705F07EFBD4F808C08146BCF182
:104D5000000F00F0A78005F5A067002320684DE054
:104D6000D5F808C01CF0040F67D00420A860E868DC
:104D700040F00200E860D8F80800800500F14D819D
:104D8000D8F8080010F0010000F0E180206968B157
:104D900001EB810CD8F8100004EBCC0CC0F3120E20
:104DA000DCF84800A0EB0E00CCF84C008E004FF071
:104DB000010E4FF0000C701804EBC000C0F858C092
:104DC00080F85DE0C8F808E090F83FC01CF0FD0FE7
:104DD00000F0C881BCF1030F00F08B82711804EB66
:104DE000C10191F8502082F0010281F85020D4F8DE
:104DF00008C0206801332037634554D203F00F0206
:104E000029FA02F2D507F5D5D9B2D7F800E000F5B6
:104E1000A0621EF4004F4FEA411A02EB4115A8466A
:104E20009ED1D5F808E01EF004060FD00422AA6037
:104E3000EA6842F00202EA60DCE7D5F808C01CF03C
:104E4000200F00F042812020A86094E7D5F808E008
:104E50001EF0200E00F0F48001EB81024FF0200ED6
:104E600004EBC202C5F808E092F83DE0BEF1010F84
:104E7000C0D14FF0020C82F83D60019382F85CC013
:104E8000EA6842EA0C02EA6005F0E0FAD4F808C0E9
:104E90002068019BAEE72046FEF7F0F90823206862
:104EA00043612DE720684FF0007343612EE7D3F88C
:104EB000402403F588660492D3F840240592059AAD
:104EC00022F02E020592049A970707D5049AD0077C
:104ED00000F18B81059A42F002020592049A1107B3
:104EE00018D5059A42F008020592049A520740F13B
:104EF000A581A169022900F0D581E268012A03D1C8
:104F00004EF66022C3F804242046FEF7C5F9204679
:104F1000FEF7B8F92368049A970603D5059A42F07C
:104F200020020592059A3260E3E6D5F84034204627
:104F300023F02E03C5F84034FEF7A8F901212068BC
:104F400005F05EFA4FF0005320684361CBE6D8F8D5
:104F500008C01CF0020F00F0E280D8F80CC08E00F0
:104F60002CF0020CC8F80CC001EB810C04EBCC0C4B
:104F70009CF85DE00EF1FF3CBCF1070F31D8DFE893
:104F80000CF045303D303604300406EB010C04EBE8
:104F9000CC0CDCF858C00CF1010CBCF1030F00F292
:104FA000588260464FF0020E06EB010C04EBCC0C6D
:104FB000CCF858008CF85CE052F80A0020F08040F1
:104FC00040F0004042F80A00022072460193C8F8FF
:104FD00008002046FEF75EF9D4F808C02068019B5F
:104FE00008E7721804EBC20292F85CE0ECE7721872
:104FF000052004EBC20282F85C00E5E770184FF070
:10500000020E04EBC00080F85CE0D5E772180120C6
:1050100004EBC20282F85C00D6E7D8F80C204546C3
:10502000206842F002020193C8F80C2005F00EFA45
:105030004FF400722068AA60019BD4F808C0D9E63A
:10504000AD686D0600F1DB80D8F808E045461EF437
:10505000007E40F01F81D8F80850EE0700F15A8119
:10506000D8F808E01EF0080E40F0D981D8F80850B2
:10507000ED0640F16A8101EB81024FF0030C04EB75
:10508000C202C2F858E082F85DC092F83D205AB9D9
:10509000282202FB014292F83CC0BCF1000F03D170
:1050A0004FF0010C82F83DC0D8F80C20019342F07B
:1050B0000202C8F80C2005F0C9F91022D4F808C083
:1050C0002068019BC8F8082094E6D5F808C01CF0B9
:1050D000080F40F0C080D5F808C01CF4806F3FF482
:1050E0004AAED5F80CC001914CF0020CC5F80CC0CA
:1050F000CDE9023205F0AAF901994FF0100C01EB4D
:105100008100C5F808C04FF0080C04EBC00080F81F
:105110005DC04FF48060DDE90232A8602BE6D8F86C
:10512000082012F0800240F0C880D8F80800C606B7
:1051300014D501EB810C04EBCC0C9CF83F00032848
:1051400000F08A8110F0FD0005D12269CCF85800EA
:10515000002A00F093811022C8F80820D4F808C073
:10516000206847E6D8F80C20206842F0020202933B
:105170000191C8F80C2005F069F91022DDE901134E
:10518000C8F808202AE601F00F0606EB860104EBBA
:10519000C105696C00293FF4CDAD18460292019318
:1051A00004F0F2FF019B029A03F5A06C696C23687E
:1051B0000CEB461011440469E86C696471011044F9
:1051C000C44A2240E864002A3FF4B4AD5CF80120F0
:1051D00022F0804242F000424CF8012095F8502025
:1051E00082F0010285F85020A4E59A6920460193D7
:1051F00022F000529A61FEF745F8019B6AE601EB46
:1052000081024FF0040C019304EBC20282F85DC0EE
:105210004FF0010CC2F858E082F83DC0D8F80C20DD
:1052200042F00202C8F80C2005F010F94022206874
:10523000C8F80820019BD4F808C0DBE52046FEF73B
:105240002FF83268236822F02E0232609A6942F009
:1052500000529A615FE6D5F80CC04FF0050E01913F
:105260004CF0020CC5F80CC001EB810C04EBCC0C2B
:105270008CF85DE04FF0100CC5F808C04FF0080C3A
:10528000C5F808C0CDE9023205F0E0F8039ADDE97F
:10529000011370E5D8F80C20019342F00202C8F81F
:1052A0000C20C3E6049B206803F4C023B3F5802FD1
:1052B00018BF012105F0A4F826E6D8F80C0001EB90
:1052C0008102019304EBC20240F00200C8F80C0016
:1052D000906D01309065062082F85D00206805F031
:1052E000B5F880222068C8F80820019BD4F808C0CF
:1052F00080E552F80AC002934CF0005C019142F83C
:105300000AC0724680F85CE02046FDF7C3FFDDE985
:10531000011363E5D8F80C20029342F0020C01EB74
:10532000810204EBC202C2F858E0C8F80CC0019236
:1053300005F08CF80121019A029BC8F8081082F848
:105340005D10D4F808C0206854E5D8F808E01EF0D5
:10535000800F40F0A580D8F808E01EF4806E40F081
:10536000BB80D8F80860B6077FF544ADD8F80C00CC
:1053700020F00200C8F80C00282000FB014090F843
:105380005D00013807280BD8DFE800F0360A040476
:10539000141B0A1B2822022002FB014282F85C0037
:1053A00028220220019302FB0142C8F8080092F86B
:1053B0005C200EE62822052002FB014282F85C00F8
:1053C000EEE7282000FB0140806D0130032800F249
:1053D000A08086464FF0020C282000FB014080F898
:1053E0005CC0C0F858E052F80A0020F0804040F05D
:1053F000004042F80A00D3E72822012002FB0142C4
:1054000082F85C0092F83F000238C0B20128C7D889
:1054100092F8510080F0010082F85100C0E70822A4
:1054200002930191C8F80820D8F80C2042F002023B
:10543000C8F80C2005F00AF80199029B01EB8101E4
:1054400004EBC102052182F85D10D4F808C0206881
:10545000D0E44FF0040EA7E5D8F80C004FF0280C6C
:10546000019340F002000CFB014CCCF85820C8F826
:105470000C00206804F0EAFF019B6CE62822032060
:10548000019302FB014282F85D00D8F80C202068ED
:1054900042F00202C8F80C2004F0D8FF019B5AE643
:1054A000D8F80C20029342F002020191C8F80C20B7
:1054B00004F0CCFF01992822029B02FB0142062145
:1054C00082F85D108022D4F808C02068C8F808204F
:1054D00090E400BF0000F81FD8F80C20029342F0BF
:1054E00002020191C8F80C2004F0B0FF01992822B3
:1054F000029B02FB01421021C8F808104FF48061A2
:10550000C8F80810082182F85D10D4F808C0206897
:1055100070E44FF0040C5FE790F8B832012B10D024
:1055200003460122006800B583B083F8B8220193D6
:1055300004F0ECFF0022019B104683F8B82203B070
:1055400000BD0220704700BF4B1C10B5144682B04E
:10555000024639D1006883699C074ED48369D90615
:10556000F9D583699B06FCD520231021C161C36155
:1055700083699C0701D5002383628369D90714D509
:1055800043684FF0200C23490B4000214360536CCB
:1055900043F00403536482F841C082F842100023B0
:1055A000012082F8403002B010BD836943F001034E
:1055B0008361E5E7CDE90021FDF7A8FF0199031B11
:1055C000009A8B421BD8D1B1106883699B0714D411
:1055D0008369DB06EED583699B06C5D4CDE900213E
:1055E000FDF794FF0199001B009A814207D331B166
:1055F000106883699B06F1D5B6E70020D3E7536CAA
:10560000202000210343536482F8410082F84210B5
:10561000C5E700BF00E800FE70B50D46164604461B
:1056200023689A69920647D49A69D2062ED5681CD7
:105630000AD09A6992060AD4FDF768FF801B85425A
:105640002BD355B32368F4E79A699106FCD5202241
:105650001021D961DA619A69900701D500229A6216
:105660009A69D10723D55A682021144802405A600C
:105670000022636C43F00403636484F8411084F8EF
:1056800042200023012084F8403070BDFDF73EFF2A
:10569000801BA84201D8002DC2D1636C20210022BA
:1056A0000B43636484F8411084F84220E9E79A6967
:1056B00042F001029A61D6E7002070BD00E800FECA
:1056C000002858D0034610B590F8412082B002F06F
:1056D000FF01002A48D01A682420596883F8410045
:1056E000106821F07061D3F80CC020F00100BCF10B
:1056F000010F106011619168986821F40041916078
:105700002ED040F40440BCF1020F906002D14FF45F
:1057100000615160D2F804C0184819694CEA0000D1
:105720005060D06820F40040D060D3E905402143A8
:1057300041EA0021D3E9070CD160002140EA0C00C6
:105740004FF0200C1060106840F001001060084617
:10575000596483F841C0196383F8421002B010BD48
:1057600040F400409060D5E780F840100190FBF7CE
:1057700069FE019BAFE70120704700BF0080000277
:105780002DE9F843984690F84130089E202B40F0D0
:10579000898090F840300446012B00F0838001237B
:1057A00091460F4680F84030FDF7B0FE054604E014
:1057B000FDF7ACFE401B192877D82368986910F4D0
:1057C0000040F5D12122C7F30907C4F8249084F8DA
:1057D00041201022606384F842206064A4F82A808B
:1057E000628D92B2FF2A75D8628D4648596822852B
:1057F000D2B2014047EA02420A4343491143596089
:10580000638D2A46314620469BB2002B39D0FFF7E4
:105810009BFE002854D1606A226810F8011B238D7A
:105820009162618D013B606201399BB26185618D3E
:10583000238589B2002BE3D10029E1D0701C42D02E
:1058400093691B0609D4FDF761FE401B86422CD3E9
:105850005EB3226893691B06F5D5638D9BB2FF2B5F
:1058600042D95368204629490B4029493B431943F3
:10587000FF23238551602A46638D31469BB2002B5E
:10588000C5D1FFF7C9FED8B923682021214DD961C0
:105890005A682A405A6084F8411084F8400084F81D
:1058A000420000E00220BDE8F883636C2021002262
:1058B0000B4384F84020636484F8411084F842204C
:1058C0000120BDE8F88393691906C6D493691906C7
:1058D000C3D4F8E75A680B490A400F493A431143C9
:1058E000FF22228559608BE7638D0848D9B2238552
:1058F000536803403B4343EA014343F00073536062
:105900007EE700BF009800FC00200082009C00FCA5
:105910000000FF0100E800FE0020FF81F0B5044612
:1059200090F8410085B0202840F0838000297AD08B
:105930001D46B2FA82F35B09002A74D0C7B294F80C
:105940004000012875D00120019184F84000CDE984
:105950000223FDF7DBFD0199039B064661622120CE
:105960002168029A84F84100636384F842706F1CD6
:10597000636462854B6823F400434B601BD08B69E2
:105980001B0700F19980FDF7C1FD801B216885424E
:1059900001D3002DF3D1636C20200022034384F84F
:1059A0004020636484F8410084F842204B6843F44B
:1059B00000434B603AE08B69180729D48A691207C3
:1059C000FCD50823CB61E368022B26D08B69DB036F
:1059D00002D48A69D203FCD5638D9BB25BB92BE0FC
:1059E000626A12F8011B9962638D6262013B6385F2
:1059F000628D92B202B3324629462046FFF7A4FDDB
:105A000023680028ECD05A6842F400425A600DE046
:105A10000823CB61E368022BD8D18B691F07FCD523
:105A20000823CB61D2E74FF400736364012005B013
:105A3000F0BD022005B0F0BD324629462046FFF7F2
:105A4000EBFD226840B1536843F400435360636C3C
:105A5000042BEBD1002363642023681CD3611AD08C
:105A600093691B041AD5FDF751FD831B22689D42E3
:105A700001D3002DF4D1636C20200021034384F86E
:105A80004010636484F8410084F84210536843F482
:105A900000435360CAE793691904FCD4516800239A
:105AA000202041F40041516084F84100184684F8F8
:105AB000423084F84030BAE70823CB61E368022B18
:105AC0000ED18B69180709D4FDF720FD831B2168CF
:105AD0009D42FFF460AF002DF3D15CE70823CB615A
